:020000040000FA
:100000000C9418010C9440010C9440010C94720F54
:100010000C94720F0C94720F0C9440010C94560ABD
:100020000C9440010C9440010C94070B0C9440017B
:100030000C9440010C94C40A0C94A00A0C94400146
:100040000C940D160C9440010C943C120C946E12FE
:100050000C9440010C9440010C9440010C9440011C
:100060000C9440010C9440010C9440010C94720FCC
:100070000C9440010C9440010C9440010C944001FC
:100080000C9440010C9440010C9440010C944001EC
:100090000C9440010C9440010C9440010C944001DC
:1000A0000C9440010C9440010C9440010C944001CC
:1000B0000C944001312E30610030003100320033A9
:1000C0000034003500360037003800390041004266
:1000D0000043004400450046005F000D0A004175E2
:1000E000646920436F6E636572742049204D756C9E
:1000F00074696D6564696120476174657761792011
:100100005665722E0052494E470D0A005052455610
:10011000494F55530D0A004E4558540D0A0053439C
:10012000414E0D0A00504C41590D0A0052414E44B7
:100130004F4D0D0A004C495354360D0A004C49539B
:1001400054350D0A004C495354340D0A004C4953A0
:1001500054330D0A004C495354320D0A004C495394
:1001600054310D0A004E58545F4C4953540D0A0047
:100170005052565F4C4953540D0A004D494E51554B
:100180004952590D0A004D454E41424C450D0A0059
:100190004D44495341424C450D0A006F76657266E5
:1001A0006C6F770D0A00646174616572720D0A00EC
:1001B0000A0D0E09000302000004050800000000FB
:1001C0000000000000000000000000010204081010
:1001D0002040800102040810200102040810204081
:1001E000804001020408040404040404040402021C
:1001F00002020202030303030303020203050505CF
:1002000005000000002300260029002C000000004B
:1002100000250028002B002E0000000000240027ED
:10022000002A002D00001B078D079E122907910749
:1002300011241FBECFEFD8E0DEBFCDBF12E0A0E09B
:10024000B1E0E2E3F5E302C005900D92A23CB107F4
:10025000D9F724E0A2ECB2E001C01D92AB36B207A0
:10026000E1F711E0C6E1D1E004C02197FE010E9450
:10027000F717C331D107C9F70E94FE150C948C1AE9
:100280000C940000CF93DF93EC01FB0124813581B6
:100290000E94AC15CE01DF91CF910895EF92FF92AD
:1002A0001F93CF93DF93EC017B01142F81E08883B0
:1002B00093E099838A838B831C828D8388E08E836D
:1002C00018861F821C861B861D866CE172E0CE019B
:1002D0000E960E947A146CE172E0CE0144960E9460
:1002E0007A146CE172E0CE014A960E947A146CE1B5
:1002F00072E0CE0180960E947A14F8A6EFA21EA3A7
:10030000DF91CF911F91FF90EF900895CF93DF93EE
:10031000EC018FA198A50E940211CE0180960E9447
:100320000B14CE014A960E940B14CE0144960E94F3
:100330000B14CE010E96DF91CF910C940B14FC019F
:1003400087A190A50C947010CF93DF93EC01BA01B4
:10035000FA01248135812250310944E050E00E94A5
:10036000AC15CE01DF91CF910895EF92FF920F93DC
:100370001F93CF93DF93CDB7DEB72C970FB6F894CA
:10038000DEBF0FBECDBF8C017B0170E060E0C70116
:100390000E949A1545E050E068E071E00E941A1A48
:1003A000892B61F481E0F8018483128213826CE16D
:1003B00072E0C7010E94021581E0B8C070E060E001
:1003C000C7010E949A1545E050E06EE071E00E947E
:1003D0001A1A892B29F481E0F80184838283E6CFFD
:1003E00070E060E0C7010E949A1545E050E064E1CA
:1003F00071E00E941A1A892B19F4F8011482D6CFE1
:1004000070E060E0C7010E949A1545E050E06AE1A3
:1004100071E00E941A1A892B39F4F80114821082B3
:10042000138283E08183C3CF70E060E0C7010E9444
:100430009A1545E050E060E271E00E941A1A892B9B
:1004400029F4F801148282E08183B0CF70E060E08B
:10045000C7010E949A1545E050E066E271E00E94F3
:100460001A1A892B21F4F801148211829FCF70E0AF
:1004700060E0C7010E949A1545E050E06CE271E02F
:100480000E941A1A892B29F4F801148282E08083D1
:10049000C7CF70E060E0C7010E949A1545E050E0C8
:1004A00062E371E00E941A1A892B31F4F801148278
:1004B00083E080831382B6CF70E060E0C7010E94C2
:1004C0009A1545E050E068E371E00E941A1A892B02
:1004D00021F4F801148281E0B7CF70E060E0C70139
:1004E0000E949A1545E050E06EE371E00E941A1AEE
:1004F000892B39F4F801148283E0818312821082FF
:1005000055CF70E060E0C7010E949A1543E050E0CB
:1005100064E471E00E941A1A892BA9F4F80113828D
:100520006CE172E0C7010E94021580E02C960FB6C4
:10053000F894DEBF0FBECDBFDF91CF911F910F9119
:10054000FF90EF90089570E060E0C7010E949A1557
:1005500046E050E068E471E00E941A1A892BB1F479
:1005600046E050E0B701CE0101960E944201CE0163
:1005700001960E94F215F80174876387CE010196F7
:100580000E940B1484E0F801848311C070E060E0E5
:10059000C7010E949A1545E050E06FE471E00E94A7
:1005A0001A1A892B31F484E0F8018483128281E0E5
:1005B00012C070E060E0C7010E949A1545E050E06B
:1005C00065E571E00E941A1A892B39F484E0F8017C
:1005D000848381E082838083E9CE70E060E0C7019C
:1005E0000E949A1545E050E06BE571E00E941A1AEE
:1005F000892B41F270E060E0C7010E949A1542E049
:1006000050E061E671E00E941A1A892B19F4F80192
:100610001482CDCF70E060E0C7010E949A1542E0DD
:1006200050E064E671E00E941A1A892B19F4F8016F
:10063000148265CF70E060E0C7010E949A1543E024
:1006400050E067E671E00E941A1A892B01F5F80163
:1006500014821082B701CE0107960E94ED14AE01FC
:10066000495F5F4FB801CE0101960E94A401BE010F
:100670006F5F7F4FC8010E960E94F614CE0101965F
:100680000E940B14CE0107960E940B140DC070E05F
:1006900060E0C7010E949A1542E050E06BE671E00D
:1006A0000E941A1A892B11F4F80180CE70E060E0E4
:1006B000C7010E949A1543E050E06EE671E00E9487
:1006C0001A1A892B21F270E060E0C7010E949A1586
:1006D00044E050E062E771E00E941A1A892B89F425
:1006E00044E050E0B701CE0101960E944201CE01E4
:1006F00001960E94F215F80170876783CE0101967A
:1007000097C170E060E0C7010E949A154AE050E08E
:1007100067E771E00E941A1A892B79F44AE050E0E9
:10072000B701CE0101960E944201CE0101960E94BE
:10073000F215F80172876187E1CF70E060E0C701D0
:100740000E949A1542E050E062E871E00E941A1A95
:10075000892B09F42CCE70E060E0C7010E949A1545
:1007600042E050E065E871E00E941A1A892B09F412
:100770009BCF70E060E0C7010E949A1548E050E00E
:1007800068E871E00E941A1A892B19F4F8011582A1
:100790000ECE70E060E0C7010E949A1547E050E07D
:1007A00061E971E00E941A1A892B81F370E060E020
:1007B000C7010E949A1548E050E069E971E00E9483
:1007C0001A1A892B49F170E060E0C7010E949A155E
:1007D00047E050E062EA71E00E941A1A892BE1F0CA
:1007E00070E060E0C7010E949A1547E050E06AEAB5
:1007F00071E00E941A1A892B99F070E060E0C7013D
:100800000E949A1547E050E062EB71E00E941A1ACC
:10081000892B41F483E001C081E0F8018583C7CDD5
:1008200082E0FBCF70E060E0C7010E949A1545E0CE
:1008300050E06AEB71E00E941A1A892B29F483E0D8
:10084000F80184831282B3CD70E060E0C7010E949A
:100850009A1545E050E060EC71E00E941A1A892B6D
:1008600031F483E0F801848381E08283A0CD70E0DD
:1008700060E0C7010E949A1545E050E066EC71E027
:100880000E941A1A892B21F5F801138281E08083D6
:1008900093E0918382836CE172E0C8010E960E941E
:1008A00002156CE172E0C80144960E9402156CE1E9
:1008B00072E0C8014A960E9402156CE172E0C8011C
:1008C00080960E940215F8011486138615866FCD56
:1008D00070E060E0C7010E949A1545E050E06CECC2
:1008E00071E00E941A1A892B21F481E0F8018383B8
:1008F000CECF70E060E0C7010E949A1545E050E05D
:1009000062ED71E00E941A1A892B31F482E0F8013D
:10091000848381E0808396CF70E060E0C7010E940D
:100920009A1545E050E068ED71E00E941A1A892B93
:1009300031F482E0F801848381E0808396CF70E017
:1009400060E0C7010E949A1543E050E06EED71E04F
:100950000E941A1A892B71F443E050E0B701CE01CE
:1009600001960E944201CE0101960E94F215F80103
:100970006683C4CE70E060E0C7010E949A1543E030
:1009800050E062EE71E00E941A1A892B79F443E07C
:1009900050E0B701CE0101960E944201BE016F5F97
:1009A0007F4FC80144960E94F614A8CE70E060E024
:1009B000C7010E949A1545E050E066EE71E00E9482
:1009C0001A1A892B69F445E050E0B701CE0101966F
:1009D0000E944201BE016F5F7F4FC8018096E3CF46
:1009E00070E060E0C7010E949A1544E050E06CEEB0
:1009F00071E00E941A1A892BF1F4B701CE01079613
:100A00000E94ED1444E050E0BE01695F7F4FCE01CB
:100A100001960E944201BE016F5F7F4FC8014A9656
:100A20000E94F614CE0101960E940B14CE01079687
:100A30000E940B14BCCC70E060E0C7010E949A15C4
:100A400042E050E061EF71E00E941A1A892B19F41C
:100A5000F8011082ACCC70E060E0C7010E949A15EA
:100A600042E050E064EF71E00E941A1A892B21F4F1
:100A700081E0F80180839BCC70E060E0C7010E94B8
:100A80009A1542E050E067EF71E00E941A1A892B34
:100A900011F4F801D7CE70E060E0C7010E949A150A
:100AA00042E050E06AEF71E00E941A1A892B19F4B3
:100AB00081E0F801DACE70E060E0C7010E949A158B
:100AC00042E050E066E971E00E941A1A892B81F237
:100AD00070E060E0C7010E949A1542E050E067EACA
:100AE00071E00E941A1A892B09F4B2CF70E060E01D
:100AF000C7010E949A1542E050E06FEA71E00E943F
:100B00001A1A892B19F482E0F8018CCC70E060E0AD
:100B1000C7010E949A1542E050E06DEF71E00E941B
:100B20001A1A892B11F481E0EFCF70E060E0C70161
:100B30000E949A1542E050E060E072E00E941A1AAA
:100B4000892B19F4F801118232CC70E060E0C70102
:100B50000E949A1543E050E063E072E00E941A1A86
:100B6000892B71F443E050E0B701CE0101960E9459
:100B70004201CE0101960E94F215F8016587BECDB3
:100B800070E060E0C7010E949A154EE050E067E017
:100B900072E00E941A1A892B09F48ACF08CC0F93AD
:100BA0001F93CF93DF93CDB7DEB72C970FB6F89492
:100BB000DEBF0FBECDBF8C016CE172E0CE010796A7
:100BC0000E947A14D80197968D919C91DC01ED9149
:100BD000FC910084F185E02D0995181619060CF09A
:100BE0004AC0F80187A190A5DC01ED91FC91028437
:100BF000F385E02D09958A30A9F56CE172E0CE010C
:100C000007960E947D158823A1F0C8010E94CF0598
:100C1000182FCE0107960E940B14812F2C960FB629
:100C2000F894DEBF0FBECDBFDF91CF911F910F9122
:100C30000895BE01695F7F4FCE0101960E94ED14B9
:100C4000BE016F5F7F4FC8010E94B501182FCE0112
:100C500001960E940B146CE172E0CE0107960E948F
:100C60000215D7CF8D3009F4ADCF682FCE0107968E
:100C70000E943D15A7CF10E0CCCF0C94CF050F9369
:100C80001F93CF93DF938C01C4EFD1E0C8010E9482
:100C9000CF0581110AC0209761F0219761E070E0D3
:100CA00080E090E00E947C16F1CF81E0CD2B09F42A
:100CB00080E0DF91CF911F910F910895EF92FF9205
:100CC0000F931F93CF93DF93CDB7DEB72C970FB65B
:100CD000F894DEBF0FBECDBF8C017B010E94CF0513
:100CE0006DE172E0CE0101960E947A14B701CE0147
:100CF00001960E9450156AE172E00E946315BC01E2
:100D0000CE0107960E94ED14CE0101960E940B14AD
:100D1000BE01695F7F4FF80187A190A50E9407136C
:100D2000C8010E943F06182FCE0107960E940B149F
:100D3000812F2C960FB6F894DEBF0FBECDBFDF918A
:100D4000CF911F910F91FF90EF9008950F931F93F4
:100D5000CF93DF9300D000D000D0CDB7DEB78C01A9
:100D600061E272E0CE0101960E947A14BE016F5FCB
:100D70007F4FC8010E945E06182FCE0101960E9487
:100D80000B14812F26960FB6F894DEBF0FBECDBF91
:100D9000DF91CF911F910F9108950F931F93CF93E0
:100DA000DF9300D000D000D0CDB7DEB78C0164E275
:100DB00072E0CE0101960E947A14BE016F5F7F4FF0
:100DC000C8010E945E06182FCE0101960E940B14E6
:100DD000812F26960FB6F894DEBF0FBECDBFDF91F0
:100DE000CF911F910F9108950F931F93CF93DF938E
:100DF00000D000D000D0CDB7DEB78C0167E272E042
:100E0000CE0101960E947A14BE016F5F7F4FC80128
:100E10000E945E06182FCE0101960E940B14812FAE
:100E200026960FB6F894DEBF0FBECDBFDF91CF91EF
:100E30001F910F91089520E044E063E08BEE92E073
:100E40000E94451042E06BEE72E082EC92E00C945E
:100E50004E0182EC92E00E9486018BEE92E00C94AF
:100E6000EA0F0F931F93CF93DF93EC018C010E5F7A
:100E70001F4F6CE172E0C8010E947A146CE172E0CD
:100E8000CE0108960E947A14188219826CE172E0F1
:100E9000C8010E94021585E08F87DF91CF911F91D5
:100EA0000F910895CF93DF93EC0161E08F850E944D
:100EB000371760E08F85DF91CF910C9473170F93F4
:100EC0001F93CF93DF93FC0120812223A1F0EC013B
:100ED0008C010E5F1F4F6AE272E0C8010E947D150F
:100EE000882371F081E089831E866CE172E0C8017D
:100EF0000E9402151882DF91CF911F910F910895E2
:100F000067E372E0C8010E947D15882321F081E02B
:100F100089838E87EACF1982E8CF8AE093E00C9428
:100F2000310782E193E00E940B148CE093E00C9473
:100F30000B14EF92FF920F931F93CF93DF93EC016B
:100F400080EC93E00E94041118161906C4F47E0187
:100F500082E0E80EF11C01E080EC93E00E940411B5
:100F6000892B69F080EC93E00E941E11182F682FE6
:100F7000C7010E943D151A3079F70883EDCFDF9144
:100F8000CF911F910F91FF90EF900895CF93DF9332
:100F9000EC010E949907CE010E945F078981882396
:100FA00069F08E85882341F08091C302811116C0BB
:100FB00082EC92E00E94A60619821E868F8590918F
:100FC000C30261E0933008F060E0DF91CF910C94B0
:100FD000731782EC92E00E94CD06EECF9FEF980F40
:100FE0009230B8F3833041F782EC92E00E94F4062D
:100FF000E3CF26E040E855E260E070E080EC93E06B
:101000000E94E41168E472E080EC93E00E942013F7
:101010000E94E50965E572E080EC93E00E942013F0
:1010200040E855E260E070E082EC92E00E949F01AF
:1010300065E672E080EC93E00E9420138AE093E082
:101040000E9452076BE772E080EC93E00E9420134D
:101050006EE872E080EC93E00C9420136091220320
:10106000709123034AE050E080EC93E00E94D21399
:1010700060912503709126034AE050E080EC93E0F4
:101080000E94D2130E94AC0B82EC92E00E943D06BB
:101090008AE093E00C94C6078091760390916703F1
:1010A000891789F0E82FF0E0EA5DFC4F908190937A
:1010B00075038F5F883121F08093760381E0089576
:1010C00010927603FBCF80E0089581E08093700357
:1010D00082E08093660381ED8093630388EE8093C2
:1010E0006503089520915F03E22FF0E0EE0FFF1FEC
:1010F000E25CFC4F918380832F5F2C3019F02093AA
:101100005F03089510925F030895CF93C82F8695CB
:10111000869586958E7190E087549F4F0E94720845
:10112000CC0FCE718C2F90E087549F4FCF910C94B1
:10113000720880917703809376030E944C08813077
:1011400021F4809175030E9485080E944C0881302B
:1011500021F4809175030E9485080E944C0881301B
:1011600021F4809175030E9485080E944C0881300B
:1011700021F4809175030E9485088BED90E00E9418
:101180007208809176038093770308958CEE8093A4
:1011900061031092790310927A03089590912003CD
:1011A000E92FF0E0EA5AFC4F80839F5F983019F0F6
:1011B000909320030895109220038091B1008460E1
:1011C0008093B100089589E90E94CE0889E90E94C0
:1011D000CE0889E50E94CE0889E40C94CE0880915F
:1011E00007010E94CE08809106010E94CE088091DE
:1011F0007A030E94CE08809179030E94CE088091E4
:101200007203813041F480E290917103913009F4CE
:1012100080610C94CE0880E0F7CF90916403911127
:1012200002C00C94CE089F5F909364038062F9CF54
:1012300083EC0E940D09809165038F5F80936503A5
:10124000811109C081E08093700385E0809366037B
:1012500086EF8093650308958CEE809361038BE89D
:101260000E940D090E94EF0880E70E94CE0883E8E3
:101270000C940D09809163030E94CE088091630352
:10128000863D51F481ED809363030E94E30880E082
:101290000E94CE080C9418098F5FF5CF83EC0E9452
:1012A0000D09809165038F5F80936503811106C0EE
:1012B00081E08093700389E08093660308958091B4
:1012C00007018F70806D0E94CE080E94E30880E0C5
:1012D0000E94CE080C944E09E0916603EB3008F0B2
:1012E00073C0F0E0EA58F64F0C94F71798098F098D
:1012F0009A09AA09A309AC09BC09B509BE09DA090A
:1013000081098CEE809361038BE40E940D090E9499
:10131000EF0880E20E94CE0883E40C940D098091CE
:1013200065038F5F80936503811102C00E94650889
:101330000C942C098CEE809361038BEC0E940D09B8
:101340008091650380FF0C943A090E94EF0880E1C8
:101350000E94CE080C9418098CEE809361038BECEC
:101360000E940D098091650380FF0C945F090E9423
:10137000EF0881E50E94CE080C944E098CEE809314
:1013800061038BEC0E940D090E94EF0881E50E9429
:10139000CE0883EC0E940D09809165038F5F8093D6
:1013A0006503882389F081E08093700389E080934E
:1013B000660308958BEC0E940D090E94EF0880E3FC
:1013C0000E94CE0883ECA9CF0895CF93DF93F894C1
:1013D000CEE6D0E01882259A239A2098289A109277
:1013E0008000E1E8F0E080E8808380818260808393
:1013F000B59AEFE6F0E08081806280838FEA809387
:10140000B30082E08093B00084E08093B100E0E715
:10141000F0E08081826080831092670310927703EE
:1014200088EF8093690310925F0310925E0310921D
:101430007303109272031092710310927003109252
:101440006D0310926C031092640381E48093070192
:1014500081E08093060186EF809362030E94C608B4
:1014600010927003109266038EED90E00E94720855
:1014700084EB90E00E9472088BED90E00E9472086D
:1014800085E091E00E9472088CE987BD14BC84B5A8
:10149000826084BD85B5856085BD888182608883D2
:1014A0000E946C097894DF91CF9108951F920F925A
:1014B0000FB60F9211242F938F939F93EF93FF9367
:1014C0008091B1008B7F8093B100E0912103E830DF
:1014D000A0F5F0E0EA5AFC4F908188EF80937B03FF
:1014E00025E080917B038823A1F02D9A822F8A9595
:1014F000F1F797FD0CC02B9A990F2D98822F8A95A2
:10150000F1F780917B038F5F80937B03EACF2B9869
:10151000F3CF809121038F5F809321038091B100ED
:1015200084608093B100FF91EF919F918F912F91F3
:101530000F900FBE0F901F90189510922103F3CFBC
:101540001F920F920FB60F9211248F939F93809149
:1015500025038F5F853049F0809325039F918F91FC
:101560000F900FBE0F901F9018951092250381E0E9
:1015700080932403809122039091230301969093FA
:10158000230380932203EACF1F920F920FB60F928C
:1015900011242F938F939F93EF93FF9380916F006C
:1015A0008E7F80936F001092730390916903993F2F
:1015B0000CF181E080936C0380916703E82FF0E0E9
:1015C000EA5DFC4F992329F02081220F20839F5F41
:1015D000F9CF98EF909369038F5F8831A9F08093DA
:1015E00067039091670380917703981303C081E0AC
:1015F00080936D03FF91EF919F918F912F910F90A9
:101600000FBE0F901F90189510926703EACF1F929C
:101610000F920FB60F9211242F933F934F938F93F6
:101620009F93EF93FF938091860090918700909312
:101630006B0380936A0310928500109284001899BE
:1016400018C0B09A80916F00816080936F00809184
:101650008100806480938100B59AFF91EF919F9102
:101660008F914F913F912F910F900FBE0F901F9030
:10167000189581E080937303909181009F7B9093F4
:101680008100B59A90916F0090FFE7CF809373032C
:1016900090916F009E7F90936F0020916A0330912C
:1016A0006B03213049E1340758F190EE90936803C1
:1016B00090916903993F8CF280936C03809167034A
:1016C000E82FF0E0EA5DFC4F992329F02081220FFA
:1016D00020839F5FF9CF98EF909369038F5F8831E4
:1016E00061F080936703909167038091770398136B
:1016F000B4CF81E080936D03B0CF10926703F3CF36
:10170000213082E0380708F4A8CF90916703E92FD1
:10171000F0E0EA5DFC4F8081880F213C394088F47D
:101720008083809168038F5F80936803811102C07A
:1017300010927303809169038F5F29F0809369038E
:101740008CCF8160EDCF88EF809369039F5F9831E4
:10175000A1F290936703C7CF0F931F93CF934AE0F3
:1017600050E06091240380EC93E00E94F813809194
:101770002403813081F4109224030E946C0980912B
:1017800060038F5F89F180936003809161038F5FB5
:10179000B1F18093610380916D03813031F4109237
:1017A0006D038BE991E00E94720880916C03813097
:1017B00031F410926C0386EA91E00E9472088091E5
:1017C0007703809376030E944C08882309F48BC129
:1017D00080917503833509F456C00E948508809175
:1017E000760380937703EFCF8CE9809360031092A8
:1017F0007103809178038F7E80937803C6CF8CEE3F
:1018000080936103809162038F5F29F1809362036B
:101810008091790391E0980F292F2F702A3059F188
:101820009093790380917903803609F0B4CF1092B8
:10183000790380917A0391E0980F292F2F702A3035
:10184000F1F090937A0380917A03803A09F0A3CF64
:1018500010927A03A0CF86EF809362038EED90E022
:101860000E94720884EB90E00E9472088BED90E079
:101870000E947208CDCF895F80937903D3CF895FAF
:1018800080937A03E0CF0E944C08882309F42BC18F
:10189000809175038C3221F083E50E94850898CFF2
:1018A0000E944C08882309F41EC18091750380931F
:1018B00074030E944C08882309F415C180917403B5
:1018C00020917503280F3327331F2F3F310509F06F
:1018D00007C2982F937009F003C29CEF90936403A2
:1018E0009091760390937703883509F436C108F018
:1018F00076C0843109F4F5C008F5883009F411C1C7
:1019000088F4813009F41EC1833009F452C189ED95
:1019100090E00E947208809174030E9485088BED0C
:1019200090E00DC18C3009F46BC1803181F71092C9
:1019300070031092660380E991E001C1803309F4DD
:10194000C2C130F5883109F408C18C3201F781E059
:1019500080936F0385E48093070180911A0380933D
:101960001C0380931D0380931E0380931F038091AB
:101970001B038F5F80931B03863011F410921B03AF
:1019800080911B03882309F4AEC08DE391E0D7C09A
:10199000883309F4F4C08C3409F0B9CF81E0809326
:1019A0006F0383E48093070180911A0380931B03E4
:1019B00080931C0380931E0380931F0380911D035B
:1019C0008F5F80931D03863011F410921D03809168
:1019D0001D03882309F487C08DE491E0B0C0883AE4
:1019E00009F4EDC008F03FC0883709F4E8C040F5BD
:1019F000803609F46AC0883609F089CF8091700377
:101A0000813031F488E08093660384EF809365032E
:101A10000E94C6088091060191E0980F90930601FC
:101A20009F709A3019F4895F8093060180910601B6
:101A3000803A19F481E08093060187E191E07FC04C
:101A40008C3809F4FEC0803A09F061CF8CE98093AC
:101A50006003809171038111AFC081E080937103B5
:101A60008EE191E06CC0883D09F489C030F58C3A74
:101A700009F408C18C3C09F04ACF81E080936F03E0
:101A800084E48093070180911A0380931B03809361
:101A90001D0380931E0380931F0380911C038F5F9F
:101AA00080931C03863011F410921C0380911C0358
:101AB0008823C9F085E491E042C0843E91F1883FDB
:101AC00009F49CCF803E09F022CF81E080936E0321
:101AD0009091720391116AC0809372038CE291E03D
:101AE0002EC010926403E0915E0380915F03E817BB
:101AF00009F404C1F0E0EE0FFF1FE25CFC4F00812F
:101B00001181F801C491CC2309F4EDC06C2F80EC55
:101B100093E00E941513CA3009F4E5C00F5F1F4F10
:101B2000F0CF1092720380917003811102C00E9465
:101B3000650880916E038111D6CF86E891E00E94FE
:101B40007208D1CF80917003813011F40E94650832
:101B50000E94C6088BE791E0F2CF0E94C60880E79A
:101B600091E00E94720880910701815080930701E3
:101B70008F7009F0B8CF86E480930701B4CF0E943C
:101B8000C60880916F0381110EC085E691E00E9426
:101B90007208809107018F5F80930701873408F4F2
:101BA000A2CF81E4E9CF10926F039DCF1092720310
:101BB00095CF85E291E0C3CF1092710351CF809110
:101BC0007003813031F488E08093660384EF809362
:101BD00065030E94C60880910601982F9F7019F432
:101BE0008650809306018091060181508093060102
:101BF000811103C089E9809306018CE091E09FCFB9
:101C000081E080936F0381E48093070180911A0340
:101C100080931B0380931C0380931D0380931E03FA
:101C200080911F038F5F80931F03863011F4109201
:101C30001F0380911F03882309F455CF8DE591E0A0
:101C40007ECF81E080936F0382E4809307018091CF
:101C50001A0380931B0380931C0380931D038093BE
:101C60001E0380911F038F5F80931F03863011F442
:101C700010921F0380911F03882309F434CF85E558
:101C800091E05DCF81E080936F0386E4809307014C
:101C900080911B0380931C0380931D0380931E037C
:101CA00080931F0380911A038F5F80931A038630FD
:101CB00011F410921B0380911B03882309F413CFA6
:101CC00085E391E03CCF80917003813031F4109234
:101CD00070038AE08093660306CF0E94650803CFF5
:101CE0000E94990800CF80915E038F5F80935E030E
:101CF0008C3009F0F8CE10925E03F5CECF911F9193
:101D00000F91089590E080E008952091BE033091F6
:101D1000BF0328173907B9F490917C0380917D03A4
:101D2000981789F0E0917C03F0E0E258FC4F808145
:101D300020917C0330E02F5F3F4F2F733327209398
:101D40007C0390E008958FEF9FEF0895EF92FF924C
:101D50000F931F93CF93DF93DC015C96ED90FC9083
:101D60005D97E114F10479F481E090E013969C937F
:101D70008E93129790E080E0DF91CF911F910F91A9
:101D8000FF90EF9008955196ED91FC9152975096E7
:101D90008C915097982F90950FB75E962C915E97E7
:101DA000122F127021FD6095F8942081112319F1F2
:101DB000282B2083E7012197F1F728E0462F50E0F8
:101DC000308160FF1AC0382B3083E7012197F1F78B
:101DD000BA0175956795215089F7112381F08081AB
:101DE000892380830FBF5C968D919C910197F1F7B9
:101DF00081E090E0C1CF2923DCCF3923E5CF90816A
:101E0000892BEFCF08952091BE033091BF0328178F
:101E1000390771F490917C0380917D03981741F00C
:101E2000E0917C03F0E0E258FC4F808190E008955F
:101E30008FEF9FEF08952091BE033091BF032817C5
:101E4000390771F480917D0320917C0390E0805CE0
:101E50009F4F821B910960E470E00E94A2170895D1
:101E600090E080E00895E091BE03F091BF03E81791
:101E7000F90769F4A389B4899C91858980958923A0
:101E80008C931092BF031092BE0381E0089580E00E
:101E90000895CF93DF93EC018A8D9B8D892B01F1FF
:101EA0008091BE039091BF038C179D07C9F00097E6
:101EB00011F00E94330F8E8D8E7F8E8F10927D03D6
:101EC00010927C03D093BF03C093BE03EB89FC89BF
:101ED00080819D89892B808381E0DF91CF91089556
:101EE00080E0FBCF1F920F920FB60F9211242F9319
:101EF0003F934F935F936F937F938F939F93AF9392
:101F0000BF93EF93FF93E091BE03F091BF0330972F
:101F100049F0A685B7858585968D91FF14C09C9163
:101F20008923A1F4FF91EF91BF91AF919F918F9180
:101F30007F916F915F914F913F912F910F900FBEC5
:101F40000F901F9018959C91892361F7A389B489FC
:101F50009C918589809589238C938689978901979F
:101F6000F1F7608D718DA685B785558538E020E045
:101F7000CB010197F1F7822F90E095958795282F57
:101F80004C91452309F02068315091F7868D81FDF1
:101F9000209580917D0390E001968F739927309171
:101FA0007C03381799F0A0917D03B0E0A258BC4F94
:101FB0002C9380937D03828D938D0197F1F7A389F4
:101FC000B4898C919589892B8C93ACCF868D816057
:101FD000868FF1CF21EA32E0FC01318320830C941B
:101FE000330F1F93CF93DF93EC01162F6E8D669501
:101FF000617081E06827812F0E94731761E0812F53
:102000000E943717812F110F990BFC01E553FE4FEA
:10201000E491E88BFC01EA51FE4FE491F0E0EE0F11
:10202000FF1FE35FFD4F859194919A8B898BDF9120
:10203000CF911F9108951F93CF93DF93EC01162F3B
:1020400060E0812F0E9437178E8D81FD04C061E012
:10205000812F0E9473171C87812F110F990BFC0190
:10206000E553FE4FE491ED87FC01EA51FE4FE49108
:10207000F0E0EE0FFF1FEF5FFD4F859194919F877A
:102080008E87DF91CF911F9108951F93CF93DF9398
:10209000EC01162F1B821A8288EE93E0A0E0B0E0DC
:1020A0008C839D83AE83BF8381EA92E0998388838A
:1020B0001F8A1E8A198E188E1B8E1A8E1D8E1C8EDC
:1020C0008E8D8E7F20FB81F98E8F642FCE010E9432
:1020D000F10F612FCE01DF91CF911F910C941B1056
:1020E000CF93DF93EC019A01AB011B8E1A8E198EF0
:1020F000188E1F8A1E8A60E079E08DE390E00E94CE
:10210000D817F901C90103972430310510F481E093
:1021100090E09D8F8C8F6C856B3108F061C0C90198
:10212000969587958431910558F143979F8B8E8BB7
:10213000C9010597369710F481E090E0998F888F58
:10214000C901880F991F280F391F36952795369595
:1021500027952D303105B8F02C5031093B8F2A8F4F
:102160009091680084E0683094F06E307CF08CEEE2
:10217000860F823058F082E067314CF088E007C06B
:1021800081E090E0D3CF21E030E0E8CF81E0892BFF
:10219000809368009C852DE630E098309CF09E305E
:1021A0007CF08CEE890F823058F02CE630E09731CD
:1021B0004CF023E730E09B312CF030E020E002C00F
:1021C0002BE630E03C8B2B8B98307CF481E001C017
:1021D000880F9A95EAF78D8B8C8D9D8D0197F1F77D
:1021E000CE01DF91CF910C94490F9E3014F498509A
:1021F000EDCF963114F49E50E9CF80E4963159F337
:102200009751E4CF0C94330FFC01918D228D892FCF
:1022100090E0805C9F4F821B91098F7399270895EE
:10222000FC01918D828D981731F0828DE80FF11DA0
:10223000858D90E008958FEF9FEF0895FC01918DBB
:10224000828D981761F0A28DAE0FBF2FB11D5D96E4
:102250008C91928D9F5F9F73928F90E008958FEF86
:102260009FEF0895FC01538D448D252F30E0842F7E
:1022700090E0821B930B541710F0CF9608950197AE
:10228000089584E992E1892B49F080E090E0892B60
:1022900029F00E94941281110E94000080E090E0D9
:1022A000892B49F080E090E0892B29F00E94000002
:1022B00081110C9400000895FC01A48DA80FB92F82
:1022C000B11DA35ABF4F2C91848D90E001968F735E
:1022D0009927848FA689B7892C93A089B1898C917D
:1022E00080648C93938D848D981306C00288F38943
:1022F000E02D80818F7D80830895CF93DF93EC0163
:10230000888D8823B9F0AA89BB89E889F9898C91DD
:1023100085FD03C0808186FD0DC00FB607FCF7CF99
:102320008C9185FFF2CF808185FFEDCFCE010E9499
:102330005C11E9CFDF91CF910895EF92FF920F9357
:102340001F93CF93DF93EC0181E0888F9B8D8C8D61
:10235000981316C0E889F989808185FF11C0EE893C
:10236000FF896083E889F98980818064808381E0C6
:1023700090E0DF91CF911F910F91FF90EF90089522
:10238000F62E0B8D10E00F5F1F4F0F731127E02EFD
:102390008C8D8E110CC00FB607FCFACFE889F98935
:1023A000808185FFF5CFCE010E945C11F1CFEB8DCE
:1023B000EC0FFD2FF11DE35AFF4FF0820B8FEA89DE
:1023C000FB8980818062D2CFCF92DF92EF92FF9221
:1023D0001F93CF93DF93EC016A017B01122FE889F1
:1023E000F98982E08083C11481EED806E104F1040A
:1023F000A1F060E079E08DE390E0A70196010E94F2
:10240000B61721503109410951095695479537951D
:102410002795211580E1380798F0E889F98910821D
:1024200060E874E88EE190E0A70196010E94B6177B
:1024300021503109410951095695479537952795FE
:10244000EC85FD853083EE85FF852083188EEC8931
:10245000FD891083EA89FB89808188698083EA8904
:10246000FB8980818F7D8083DF91CF911F91FF90C9
:10247000EF90DF90CF9008951F920F920FB60F92BA
:1024800011242F938F939F93EF93FF93E091D003A9
:10249000F091D1038081E091D603F091D70382FDC2
:1024A0001BC090818091D9038F5F8F732091DA03D5
:1024B000821741F0E091D903F0E0E054FC4F958F92
:1024C0008093D903FF91EF919F918F912F910F905E
:1024D0000FBE0F901F9018958081F4CF1F920F921E
:1024E0000FB60F9211242F933F934F935F936F93E7
:1024F0007F938F939F93AF93BF93EF93FF9380EC62
:1025000093E00E945C11FF91EF91BF91AF919F9179
:102510008F917F916F915F914F913F912F910F908C
:102520000FBE0F901F90189580EC93E00E9404114D
:1025300021E0892B09F420E0822F0895E0ECF3E0FC
:102540001382128288EE93E0A0E0B0E0848395834A
:10255000A683B78383EB92E09183808385EC90E040
:102560009587848784EC90E09787868780EC90E05D
:10257000918B808B81EC90E0938B828B82EC90E04E
:10258000958B848B86EC90E0978B868B118E128EC8
:10259000138E148E0895AF92BF92CF92DF92EF9276
:1025A000FF920F931F93CF93DF936C017B018B01FD
:1025B000040F151FEB015E01AE18BF08C017D1074D
:1025C00059F06991D601ED91FC910190F081E02DD7
:1025D000C6010995892B79F7C501DF91CF911F912C
:1025E0000F91FF90EF90DF90CF90BF90AF90089544
:1025F000FB0101900020E9F73197AF01461B570B13
:10260000DC01ED91FC910280F381E02D0994DB0166
:1026100014964D915C9115976D917C91DC01ED9133
:10262000FC910280F381E02D0994DC01ED91FC9195
:102630000190F081E02D09946AE172E00C94F812A7
:102640000F931F93CF93DF938C01D0E0C0E061150F
:10265000710519F00E94F812EC01C8010E941C13C8
:102660008C0F9D1FDF91CF911F910F9108958F9235
:102670009F92AF92BF92EF92FF920F931F93CF93CF
:10268000DF93CDB7DEB7A1970FB6F894DEBF0FBECC
:10269000CDBF7C01FA01CB0119A2223008F42AE057
:1026A0008E010F5D1F4F822E912CB12CA12CBF01EA
:1026B000A50194010E94B617F901CA016A300CF510
:1026C000605DD8016E938D01232B242B252B79F788
:1026D00090E080E0109721F0BD01C7010E94F81240
:1026E000A1960FB6F894DEBF0FBECDBFDF91CF919C
:1026F0001F910F91FF90EF90BF90AF909F908F90A0
:102700000895695CDECFCF92DF92EF92FF920F9334
:102710001F93CF93DF932115310581F4DC01ED91F7
:10272000FC910190F081E02D642FDF91CF911F91FA
:102730000F91FF90EF90DF90CF9009942A303105F0
:1027400001F52AE077FF1DC06A017B01EC016DE213
:102750000E9415138C0144275527BA014C195D09B5
:102760006E097F092AE0CE010E943713800F911F66
:10277000DF91CF911F910F91FF90EF90DF90CF905D
:102780000895DF91CF911F910F91FF90EF90DF900F
:10279000CF900C9437139A01AB01770F660B770B30
:1027A0000C9483130F931F93CF93DF93EC010E943C
:1027B000CB138C01CE010E941C13800F911FDF915F
:1027C000CF911F910F9108952115310541F4DC013E
:1027D000ED91FC910190F081E02D642F09940C940F
:1027E00037139A01462F50E070E060E00C94E41338
:1027F0000F931F93CF93DF93EC010E94F1138C0191
:10280000CE010E941C13800F911FDF91CF911F9169
:102810000F9108950895FC01808191810C94AD1869
:10282000CF93DF93EC0188819981009711F00E948A
:10283000AD18198218821D821C821B821A82DF91B8
:10284000CF9108950F931F93CF93DF93EC018B01EA
:102850006F5F7F4F888199810E943619009751F0F0
:10286000998388831B830A8381E0DF91CF911F9135
:102870000F91089580E0F9CFCF93DF93EC01888129
:102880009981892B49F08A819B818617970720F0CF
:1028900081E0DF91CF910895CE010E942214882318
:1028A000C1F38C819D81892B99F7E881F981108290
:1028B000EFCFEF92FF920F931F93CF93DF93EC0133
:1028C0007B018A01BA010E943C1481110BC0CE0128
:1028D0000E941014CE01DF91CF911F910F91FF90B4
:1028E000EF9008951D830C83B701888199810E9420
:1028F000391AF0CFFC0111821082138212821582E4
:1029000014826115710551F0FB0101900020E9F777
:102910003197AF01461B570B0C9459140895FB01D6
:1029200001900020E9F73197AF01461B570B0C943B
:1029300059140F931F93CF93DF938C01EB01FC018C
:1029400080819181009701F168817981611571051C
:10295000C9F02AE034E1232BA9F0428153812C8174
:102960003D814217530770F00E94391A8C819D8176
:10297000F801958384831D821C82DF91CF911F9182
:102980000F9108950E94AD1888819981F801918373
:1029900080838A819B81938382838C819D819583AF
:1029A0008483198218821B821A82E5CFCF93DF932A
:1029B000EC01FB018617970749F060817181611571
:1029C000710541F0448155810E945914CE01DF9177
:1029D000CF9108950E941014F9CFFC01118210824A
:1029E00013821282158214820C94D614CF93DF9333
:1029F000EC018617970711F00E949914CE01DF9120
:102A0000CF910895CF93DF93EC016115710531F0FB
:102A10000E948F14CE01DF91CF9108950E9410146F
:102A2000F9CFEF92FF920F931F93CF93DF9361152E
:102A3000710541F480E0DF91CF911F910F91FF90DC
:102A4000EF90089541155105B1F07B01EC010C8127
:102A50001D81040F151FB8010E943C14882351F3F7
:102A6000288139818C819D81B701820F931F0E943B
:102A7000391A1D830C8381E0DECFCF93DF9300D022
:102A8000CDB7DEB769831A8241E050E0BE016F5FC7
:102A90007F4F0E9411150F900F90DF91CF910895F5
:102AA000CF93DF93EC01FB014481558160817181FB
:102AB0000E941115811103C0CE010E941014CE0195
:102AC000DF91CF910895CF93DF93EC0161157105EC
:102AD00039F4CE010E941014CE01DF91CF910895F8
:102AE000FB0101900020E9F73197AF01461B570B1E
:102AF0000E941115882369F3EFCFFC0124813581F1
:102B0000232B31F421E0FB01672B49F4822F089538
:102B1000808191816115710539F421E0FC0180818A
:102B20008823A1F320E0F2CF0E94301A21E0892B04
:102B300069F3F8CFFC01248135816217730720F413
:102B400080819181009729F410925D048DE594E0D5
:102B50000895860F971F0895AF92BF92CF92DF928C
:102B6000EF92FF920F931F93CF93DF935C016B0162
:102B70007A0189012417350720F48F2D7901042F5C
:102B8000182F6CE172E0C5010E947A14D6011496E8
:102B9000CD91DC91EC16FD06C8F40C171D0708F466
:102BA000E801D601ED91FC911197EC0FFD1F10810A
:102BB00010826D917C916E0D7F1DC5010E940215E2
:102BC000F60180819181C80FD91F1883C501DF915B
:102BD000CF911F910F91FF90EF90DF90CF90BF901A
:102BE000AF900895FC0180819181009711F00C94C1
:102BF000F31960E070E0CB01089508950E94B516C6
:102C00000E94FD150E94F907C1E4D1E10E942E083F
:102C10002097E1F30E944111F9CF1F920F920FB656
:102C20000F9211242F933F938F939F93AF93BF9352
:102C300080915F0490916004A0916104B09162045E
:102C400030915E0423E0230F2D3758F50196A11D26
:102C5000B11D20935E0480935F0490936004A09361
:102C60006104B09362048091630490916404A09124
:102C70006504B09166040196A11DB11D80936304A3
:102C800090936404A0936504B0936604BF91AF91E0
:102C90009F918F913F912F910F900FBE0F901F909A
:102CA000189526E8230F0296A11DB11DD2CF3FB77C
:102CB000F8948091630490916404A0916504B091AC
:102CC000660426B5A89B05C02F3F19F00196A11DEB
:102CD000B11D3FBFBA2FA92F982F8827BC01CD0166
:102CE000620F711D811D911D42E0660F771F881FC5
:102CF000991F4A95D1F708958F929F92AF92BF92F4
:102D0000CF92DF92EF92FF926B017C010E945716E7
:102D10004B015C01C114D104E104F104E9F00E940B
:102D2000A1170E945716681979098A099B09683EFC
:102D300073408105910570F321E0C21AD108E108C2
:102D4000F10888EE880E83E0981EA11CB11CC11406
:102D5000D104E104F10429F7FF90EF90DF90CF90C8
:102D6000BF90AF909F908F900895789484B58360C2
:102D700084BD85B5836085BDEEE6F0E0808181602D
:102D80008083E1E8F0E082E080838081816080835D
:102D9000E0E8F0E0808181608083E1EBF0E0808119
:102DA00084608083E0EBF0E0808181608083E1E9F2
:102DB000F0E0808183608083E0E9F0E080818160E1
:102DC0008083E1EAF0E0808183608083E0EAF0E0E4
:102DD00080818160808387E880937A001092C100AF
:102DE000089582508D3008F03EC0E82FF0E0E550A5
:102DF000F94E0C94F7173017341708170E173317BE
:102E00003317121718171C172217331726172C17EA
:102E1000809180008F77809380000895809180005A
:102E20008F7DF9CF8091B0008F778093B0000895A7
:102E30008091B0008F7DF9CF809190008F77809343
:102E400090000895809190008F7DF9CF8091A0002F
:102E50008F778093A00008958091A0008F7DF9CF97
:102E600084B58F7784BD089584B58F7DFBCFCF93D4
:102E7000DF9390E0FC01E553FE4F24918A519E4F71
:102E8000FC0184918823C9F090E0880F991FFC0110
:102E9000E75EFD4FA591B491FC01E35FFD4FC59145
:102EA000D49161110DC09FB7F8948C912095822325
:102EB0008C938881282328839FBFDF91CF91089529
:102EC000623051F49FB7F8943C91822F8095832310
:102ED0008C93E8812E2BEFCF8FB7F894EC912E2BAB
:102EE0002C938FBFEACF1F93CF93DF93282F30E02F
:102EF000F901E055FE4F8491F901E553FE4FD4915D
:102F0000F901EA51FE4FC491CC23A9F0162F81118B
:102F10000E94F116EC2FF0E0EE0FFF1FE35FFD4F74
:102F2000A591B4918FB7F894EC91111108C0D09588
:102F3000DE23DC938FBFDF91CF911F910895DE2BAD
:102F4000F8CF089597FB072E16F4009407D077FD6D
:102F500009D00E94FD1707FC05D03EF4909581959D
:102F60009F4F0895709561957F4F0895A1E21A2EA5
:102F7000AA1BBB1BFD010DC0AA1FBB1FEE1FFF1F1D
:102F8000A217B307E407F50720F0A21BB30BE40B6D
:102F9000F50B661F771F881F991F1A9469F76095B4
:102FA0007095809590959B01AC01BD01CF0108956E
:102FB000052E97FB1EF400940E94EF1757FD07D0D3
:102FC0000E94B61707FC03D04EF40C94EF175095EF
:102FD0004095309521953F4F4F4F5F4F0895909505
:102FE0008095709561957F4F8F4F9F4F0895EE0F9D
:102FF000FF1F0590F491E02D0994AA1BBB1B51E122
:1030000007C0AA1FBB1FA617B70710F0A61BB70B58
:10301000881F991F5A95A9F780959095BC01CD01FD
:1030200008950F931F93CF93DF938230910510F48F
:1030300082E090E0E0916904F0916A0430E020E0E1
:10304000B0E0A0E0309799F42115310509F44AC0A9
:10305000281B390B24303105D8F58A819B816115F5
:10306000710589F1FB0193838283FE0111C04081C8
:1030700051810281138148175907E0F04817590719
:1030800099F4109761F012960C93129713961C9373
:103090003296CF01DF91CF911F910F910895009348
:1030A000690410936A04F4CF2115310551F04217D9
:1030B000530738F0A901DB019A01BD01DF01F801D6
:1030C000C1CFEF01F9CF90936A0480936904CDCF0B
:1030D000FE01E20FF31F819391932250310939834E
:1030E0002883D7CF2091670430916804232B41F4C3
:1030F000209102013091030130936804209367040A
:1031000020910001309101012115310541F42DB7C5
:103110003EB74091040150910501241B350BE0910D
:103120006704F0916804E217F307A0F42E1B3F0B2D
:103130002817390778F0AC014E5F5F4F2417350729
:1031400048F04E0F5F1F50936804409367048193CB
:1031500091939FCFF0E0E0E09CCFCF93DF93009777
:10316000E9F0FC01329713821282A0916904B091B8
:103170006A04ED0130E020E01097A1F42081318154
:10318000820F931F20916704309168042817390734
:1031900009F061C0F0936804E0936704DF91CF9178
:1031A0000895EA01CE17DF07E8F54A815B819E01A9
:1031B00041155105B1F7E901FB83EA834991599122
:1031C000C40FD51FEC17FD0761F480819181029631
:1031D000840F951FE90199838883828193819B8362
:1031E0008A83F0E0E0E012968D919C91139700970E
:1031F000B9F52D913C911197CD010296820F931F45
:1032000020916704309168042817390739F6309700
:1032100051F510926A0410926904B0936804A09367
:103220006704BCCFD383C28340815181840F951F33
:10323000C817D90761F44E5F5F4F88819981480FA5
:10324000591F518340838A819B81938382832115F7
:10325000310509F0B0CFF0936A04E09369049ECF82
:10326000FD01DC01C0CF13821282D7CFB0E0A0E015
:10327000ECE3F9E10C94571A8C01009751F4CB015F
:103280000E9411188C01C801CDB7DEB7E0E10C94A3
:10329000731AFC01E60FF71F9C0122503109E21757
:1032A000F30708F49DC0D901CD91DC911197C617A1
:1032B000D70798F0C530D10530F3CE0104978617B3
:1032C000970708F3C61BD70B2297C193D1936D9331
:1032D0007C93CF010E94AD18D6CF5B01AC1ABD0A1A
:1032E0004C018C0E9D1EA0916904B0916A04512C72
:1032F000412CF12CE12C109731F5809167049091CD
:1033000068048815990509F05CC04616570608F050
:1033100058C08091000190910101009741F48DB750
:103320009EB74091040150910501841B950BE8174D
:10333000F90708F055C0F0936804E0936704F901B9
:1033400071836083A0CF8D919C91119712966C90A0
:10335000129713967C901397A815B90559F56C012F
:1033600042E0C40ED11CCA14DB0420F1AC014A199E
:103370005B09DA011296159780F06282738251839D
:103380004083D9016D937C93E114F10471F0D7016E
:103390001396FC93EE93129776CF22968C0F9D1F77
:1033A000F90191838083F301EFCFF0936A04E093F6
:1033B000690469CF4816590608F42C017D01D30130
:1033C0009ACFCB010E9411187C01009749F0AE0101
:1033D000B8010E94271AC8010E94AD18870153CF77
:1033E00010E000E050CF1F93FC0199278827BC0113
:1033F000E89411911032E9F3193010F01E30C8F33F
:103400001B3251F01D3249F4689406C00E94401AE4
:10341000610F711D811D911D119110531A30B0F370
:103420003EF490958095709561957F4F8F4F9F4F9B
:103430001F910895FB01DC0104C08D91019080195A
:1034400021F441505040C8F7881B990B0895FB01A7
:10345000DC0102C001900D9241505040D8F7089510
:10346000FB01DC018D91019080190110D9F3990BBA
:103470000895FB01DC0101900D920020E1F7089511
:10348000592F482F372F262F660F771F881F991F18
:10349000660F771F881F991F620F731F841F951F68
:1034A000660F771F881F991F08952F923F924F92A2
:1034B0005F926F927F928F929F92AF92BF92CF92C4
:1034C000DF92EF92FF920F931F93CF93DF93CDB7CD
:1034D000DEB7CA1BDB0B0FB6F894DEBF0FBECDBF45
:1034E00009942A88398848885F846E847D848C8416
:1034F0009B84AA84B984C884DF80EE80FD800C811F
:103500001B81AA81B981CE0FD11D0FB6F894DEBF01
:103510000FBECDBFED01089511E0C6E1D1E004C0BA
:10352000FE010E94F7172196C831D107C9F7F89418
:10353000FFCF00006B048000010141585F50410043
:1035400041585F50550042545F41430042545F432D
:103550004E0042545F45430042545F494300425489
:103560005F57500042545F57430042545F4F43003F
:1035700042545F50410045525200464D5F46513D16
:1035800000464D5F504100464D5F505500464D5F2F
:1035900053430049410049490049522D0049520016
:1035A00050522D004D4D4D50006D757369635F6D28
:1035B000756E3D004F4B004F4E00504C41595F41DE
:1035C0004C4C00504C41595F4D3000504C41595FBC
:1035D0004F4E4500504C41595F4D3100504C4159C0
:1035E0005F4D3200434F4D5F534D520053445F5087
:1035F000410053445F50550053595F504F00535999
:103600005F50460055445F50410055445F5055009F
:10361000564F4C0041443A0020504E3A20004E4153
:103620003A20004331004330004D42004D41004DEF
:1036300033004D34004D464D004D55534943504CD9
:103640005946494E4953480041542B000D0A004247
:10365000542B0043410043450043520070686F6E95
:10366000652070726573730A0070686F6E65206CF8
:103670006F6E6770726573730A0048656C6C6F20BB
:10368000776F726C64210046696E69736820696E99
:103690006974204344430046696E69736820696E0B
:1036A000697420426C7565746F6F74680046696E4A
:1036B00069736820696E69742072656D6F74650046
:1036C00046696E69736820736574757028290000F7
:1036D000000000A60ECB12820E020F1B0F850E03F8
:1036E0000F000000009D11CB1232117D1104111E3C
:0436F00011101100A4
:00000001FF
