:020000040000FA
:100000000C94CD000C94F5000C94F5000C944B0A64
:100010000C944B0A0C944B0A0C94F5000C94F305C9
:100020000C94F5000C94F5000C94A6060C94F500C5
:100030000C94F5000C9463060C943D060C94F500AA
:100040000C94D50E0C94F5000C94E00B0C94120C4F
:100050000C94F5000C94F5000C94F5000C94F5004C
:100060000C94F5000C94F5000C94F5000C944B0ADC
:100070000C94650C0C94970C0C94F5000C94F50002
:100080000C94F5000C94F5000C94F5000C94F5001C
:100090000C94F5000C94F5000C94F5000C94F5000C
:1000A0000C94F5000C94F5000C94F5000C94F500FC
:1000B0000C94F50043616C6C20696E2070726F6760
:1000C000726573730A004F7574676F696E6720639A
:1000D000616C6C0A00496E636F6D696E67206361C5
:1000E0006C6C0A00436F6E6E65637465640A00444D
:1000F0006973636F6E6E65637465640A00312E30D8
:100100006100005F000D0A004175646920436F6E55
:10011000636572742049204D756C74696D656469FE
:100120006120616E642050686F6E65204761746560
:10013000776179205665722E0052494E470D0A00AC
:10014000434F4D2B50560D0A00434F4D2B504E0D33
:100150000A0000434F4D2B50410D0A00434F4D5FA5
:10016000534D520A00000000434F4D2B4D41580D96
:100170000A00434F4D2B4D55440D0A00434F4D2B64
:100180004D42540D0A00000000000000000018015C
:100190000C03380CBD0C1C01400311241FBECFEF13
:1001A000D8E0DEBFCDBF11E0A0E0B1E0E2EFF3E2C6
:1001B00002C005900D92A03AB107D9F723E0A0EA5A
:1001C000B1E001C01D92AB3CB207E1F710E0CBEC0F
:1001D000D0E004C02197FE010E94A00FC73CD107C8
:1001E000C9F70E94C8030C94EC110C9400000F9303
:1001F0001F93CF93DF93EC018C010E5F1F4F6FE1D4
:1002000071E0C8010E94C50D6FE171E0CE01089652
:100210000E94C50D188219826FE171E0C8010E9429
:10022000250E85E08F87DF91CF911F910F91089563
:1002300080EA91E00C94F70088EA91E00E94560D64
:1002400082EA91E00C94560D80E293E00C94260D26
:10025000EF92FF920F931F93CF93DF9300D000D0C4
:1002600000D0CDB7DEB78C017B0170E060E0C70144
:100270000E94C30E42E050E068E071E00E949811D5
:10028000892BB9F46FEE70E0CE0101960E944E0EFC
:10029000BE016F5F7F4F83E892E00E94260DCE0182
:1002A00001960E94560D81E0F801808383E08183EE
:1002B00041C070E060E0C7010E94C30E42E050E020
:1002C0006BE071E00E949811892BA1F464EE70E05C
:1002D000CE0101960E944E0EBE016F5F7F4F83E8F4
:1002E00092E00E94260DCE0101960E94560DF80163
:1002F0001082DCCF70E060E0C7010E94C30E42E0D4
:1003000050E06EE071E00E949811892B31F565EDA7
:1003100070E0CE0101960E944E0EBE016F5F7F4FCE
:1003200083E892E00E94260DCE0101960E94560DB0
:10033000F80111826FE171E0C7010E94250E81E092
:1003400026960FB6F894DEBF0FBECDBFDF91CF91DA
:100350001F910F91FF90EF90089570E060E0C7014A
:100360000E94C30E42E050E061E171E00E949811EA
:10037000892BA1F466EC70E0CE0101960E944E0E2E
:10038000BE016F5F7F4F83E892E00E94260DCE0191
:1003900001960E94560D81E0F80189CF70E060E07F
:1003A000C7010E94C30E42E050E064E171E00E9488
:1003B0009811892B09F0BECF64EB70E0CE01019655
:1003C0000E944E0EBE016F5F7F4F83E892E00E9455
:1003D000260DCE0101960E94560D82E0DDCFCF930F
:1003E000DF9300D000D000D0CDB7DEB767E171E079
:1003F000CE0101960E94C50DBE016F5F7F4F80E266
:1004000093E00E94260DCE0101960E94560D26967D
:100410000FB6F894DEBF0FBECDBFDF91CF91089528
:10042000CF93DF9300D000D000D0CDB7DEB760E22D
:1004300071E0CE0101960E94C50DBE016F5F7F4F36
:1004400080E293E00E94260DCE0101960E94560D97
:1004500026960FB6F894DEBF0FBECDBFDF91CF91C9
:100460000895CF93DF9300D000D000D0CDB7DEB792
:1004700069E271E0CE0101960E94C50DBE016F5F79
:100480007F4F80E293E00E94260DCE0101960E94EC
:10049000560D26960FB6F894DEBF0FBECDBFDF9186
:1004A000CF910895CF93DF9300D000D000D0CDB787
:1004B000DEB762E371E0CE0101960E94C50DBE0178
:1004C0006F5F7F4F80E293E00E94260DCE01019680
:1004D0000E94560D26960FB6F894DEBF0FBECDBF14
:1004E000DF91CF9108950F931F93CF93DF93CDB7F3
:1004F000DEB72C970FB6F894DEBF0FBECDBF8B01D1
:100500006BE371E0CE0107960E94C50DB801CE01E4
:1005100007960E94960E6DE171E00E94A90EBC0143
:10052000CE0101960E941C0EBE016F5F7F4F80E2DC
:1005300093E00E94260DCE0101960E94560DCE0139
:1005400007960E94560D2C960FB6F894DEBF0FBE8C
:10055000CDBFDF91CF911F910F910895CF93DF937E
:1005600000D000D000D0CDB7DEB76BE471E0CE0193
:1005700001960E94C50DBE016F5F7F4F80E293E040
:100580000E94260DCE0101960E94560D26960FB6AA
:10059000F894DEBF0FBECDBFDF91CF9108950F93CA
:1005A0001F93CF93DF9300D000D000D0CDB7DEB73C
:1005B0008C0126E040E855E260E070E080E293E0E4
:1005C0000E94880B64E670E080E090E00E94440F97
:1005D000C8010E94AE0264E670E080E090E00E94F4
:1005E000440F69E571E0CE0101960E94C50DBE0180
:1005F0006F5F7F4FC8010E947302CE0101960E9477
:10060000560D26960FB6F894DEBF0FBECDBFDF9114
:10061000CF911F910F910895CF93DF93C0EBD1E05D
:1006200081E0888393E099838A831B828C838D8306
:1006300088E08E8318861F821C861B861D866FE1CC
:1006400071E08EEB91E00E94C50D1C8A6FE171E0B4
:1006500085EC91E00E94C50D6FE171E08BEC91E0BB
:100660000E94C50D6FE171E081ED91E00E94C50D22
:100670006FE171E087ED91E0DF91CF910C94C50DB2
:1006800087ED91E00E94560D81ED91E00E94560D9C
:100690008BEC91E00E94560D85EC91E00E94560D86
:1006A0008EEB91E00C94560DCF92DF92EF92FF9279
:1006B0000F931F93CF93DF9300D000D000D0CDB71E
:1006C000DEB78C018091E501813099F463E471E03B
:1006D000CE0101960E94C50DBE016F5F7F4F80E283
:1006E00093E00E94260DCE0101960E94560D1092B5
:1006F000E50180E293E00E94C30A18161906DCF4B3
:1007000068018EE0C80ED11CEE24E39480E293E0F1
:100710000E94C30A892B79F080E293E00E94DD0AEF
:10072000F82E682FC6010E94830EEAE0FE12EECF7B
:10073000F801E48AEBCFF80184898823D1F07801AD
:10074000FEE0EF0EF11CB701CE0101960E941C0ED7
:10075000BE016F5F7F4FC8010E942801CE01019644
:100760000E94560DF801148A6FE171E0C7010E94E2
:10077000250E26960FB6F894DEBF0FBECDBFDF91D3
:10078000CF911F910F91FF90EF90DF90CF90089540
:1007900026E040E855E260E070E083E892E00E94E5
:1007A000880B80EB91E00E94CF020E94770580EBDE
:1007B00091E00E9454030E944B07F9CF80913902C7
:1007C00090912A02891789F0E82FF0E0E751FE4F57
:1007D0009081909338028F5F883121F080933902A5
:1007E00081E0089510923902FBCF80E0089581E006
:1007F0008093330282E08093290281ED8093260268
:1008000088EE80932802089520912202E22FF0E0E2
:10081000EE0FFF1FEF5FFD4F918380832F5F2C3022
:1008200019F0209322020895109222020895CF9386
:10083000C82F8695869586958E7190E08E5F9E4F27
:100840000E940404CC0FCE718C2F90E08E5F9E4FDF
:10085000CF910C94040480913A02809339020E9453
:10086000DE03813021F4809138020E9417040E9437
:10087000DE03813021F4809138020E9417040E9427
:10088000DE03813021F4809138020E9417040E9417
:10089000DE03813021F4809138020E94170485E044
:1008A00091E00E9404048091390280933A020895F5
:1008B0008CEE8093240210923C0210923D02089527
:1008C0009091E301E92FF0E0E75EFD4F80839F5FA9
:1008D000983019F09093E30108951092E30180910C
:1008E000B10084608093B100089589E90E9460049A
:1008F00089E90E94600489E50E94600489E40C94FF
:100900006004809107010E946004809106010E94AA
:10091000600480913D020E94600480913C020E942C
:10092000600480913502813041F480E2909134027C
:10093000913009F480610C94600480E0F7CF9091CD
:100940002702911102C00C9460049F5F90932702CC
:100950008062F9CF83EC0E949F04809128028F5F10
:1009600080932802811109C081E08093330285E0E1
:100970008093290286EF8093280208958CEE80935D
:1009800024028BE80E949F040E94810480E70E9459
:10099000600483E80C949F04809126020E94600406
:1009A00080912602863D51F481ED809326020E94BB
:1009B000750480E00E9460040C94AA048F5FF5CF58
:1009C00083EC0E949F04809128028F5F809328020D
:1009D000811106C081E08093330289E0809329026F
:1009E0000895809107018F70806D0E9460040E94BD
:1009F000750480E00E9460040C94E004E0912902F8
:100A0000EB3008F073C0F0E0E85FFA4F0C94A00FF1
:100A10002A0521052C053C0535053E054E054705F3
:100A200050056C0513058CEE809324028BE40E9424
:100A30009F040E94810480E20E94600483E40C947D
:100A40009F04809128028F5F80932802811102C049
:100A50000E94F7030C94BE048CEE809324028BEC6E
:100A60000E949F048091280280FF0C94CC040E9475
:100A7000810480E10E9460040C94AA048CEE8093AF
:100A800024028BEC0E949F048091280280FF0C942A
:100A9000F1040E94810481E50E9460040C94E0044A
:100AA0008CEE809324028BEC0E949F040E948104B0
:100AB00081E50E94600483EC0E949F0480912802DB
:100AC0008F5F80932802882389F081E0809333022E
:100AD00089E08093290208958BEC0E949F040E9474
:100AE000810480E30E94600483ECA9CF0895CF9332
:100AF000DF936BE571E083E892E00E943F0DF8948C
:100B0000CEE6D0E01882579A219A2098289A10921F
:100B10008000E1E8F0E080E880838081826080836B
:100B2000B59AEFE6F0E08081806280838FEA80935F
:100B3000B30082E08093B00084E08093B100E0E7EE
:100B4000F0E080818260808310922A0210923A0243
:100B500088EF80932C0210922202109221021092B0
:100B60003602109235021092340210923302109223
:100B7000300210922F021092270281E48093070125
:100B800081E08093060186EF809325020E9458043D
:100B9000109233021092290288E091E00E9404042E
:100BA0008DEF90E00E94040485E091E00E9404042F
:100BB00089E391E00E9404048CE987BD14BC84B5EC
:100BC000826084BD85B5856085BD888182608883AB
:100BD0000E94FE0478946AE671E083E892E0DF9177
:100BE000CF910C943F0D1F920F920FB60F921124CC
:100BF0002F938F939F93EF93FF938091B1008B7FFF
:100C00008093B100E091E401E830A0F5F0E0E75E08
:100C1000FD4F908188EF80933E0225E080913E0257
:100C20008823A1F05F9A822F8A95F1F797FD0CC077
:100C3000299A990F5F98822F8A95F1F780913E0249
:100C40008F5F80933E02EACF2998F3CF8091E40131
:100C50008F5F8093E4018091B10084608093B10044
:100C6000FF91EF919F918F912F910F900FBE0F9059
:100C70001F9018951092E401F3CF1F920F920FB6B8
:100C80000F9211248F939F939091E8019F5F90930F
:100C9000E8018091E6018F5F8093E601953029F4A9
:100CA0001092E80191E09093E701893129F41092C4
:100CB000E60181E08093E5019F918F910F900FBE37
:100CC0000F901F9018951F920F920FB60F9211243C
:100CD0002F938F939F93EF93FF9380916F008E7F5D
:100CE00080936F001092360290912C02993F0CF184
:100CF00081E080932F0280912A02E82FF0E0E751F3
:100D0000FE4F992329F02081220F20839F5FF9CF86
:100D100098EF90932C028F5F8831A9F080932A027C
:100D200090912A0280913A02981303C081E0809347
:100D30003002FF91EF919F918F912F910F900FBEF5
:100D40000F901F90189510922A02EACF1F920F92CF
:100D50000FB60F9211242F933F934F938F939F932E
:100D6000EF93FF93809186009091870090932E02DD
:100D700080932D021092850010928400189918C05B
:100D8000B09A80916F00816080936F0080918100A4
:100D9000806480938100B59AFF91EF919F918F912C
:100DA0004F913F912F910F900FBE0F901F9018956C
:100DB00081E080933602909181009F7B9093810027
:100DC000B59A90916F0090FFE7CF80933602909193
:100DD0006F009E7F90936F0020912D0230912E0224
:100DE000213049E1340758F190EE90932B02909115
:100DF0002C02993F8CF280932F0280912A02E82FD7
:100E0000F0E0E751FE4F992329F02081220F208343
:100E10009F5FF9CF98EF90932C028F5F883161F03C
:100E200080932A0290912A0280913A029813B4CFBB
:100E300081E080933002B0CF10922A02F3CF2130AC
:100E400082E0380708F4A8CF90912A02E92FF0E059
:100E5000E751FE4F8081880F213C394088F4808320
:100E600080912B028F5F80932B02811102C0109220
:100E7000360280912C028F5F29F080932C028CCF58
:100E80008160EDCF88EF80932C029F5F9831A1F2B3
:100E900090932A02C7CFEF92FF921F93CF93DF93D5
:100EA00000D000D000D0CDB7DEB78091E70181300F
:100EB00081F41092E7010E94FE04809123028F5F6B
:100EC00089F180932302809124028F5FB1F1809396
:100ED000240280913002813031F4109230028BE88C
:100EE00091E00E94040480912F02813031F410922D
:100EF0002F028CE891E00E94040480913A028093D2
:100F000039020E94DE03882309F48CC180913802E3
:100F1000833509F448C00E941704809139028093F8
:100F20003A02EFCF8CE98093230210923402809131
:100F30003B028F7E80933B02C6CF8CEE80932402CF
:100F4000809125028F5F29F18093250280913C02D8
:100F500091E0980F292F2F702A30E9F090933C02EE
:100F600080913C02803609F0B4CF10923C0280910F
:100F70003D0291E0980F292F2F702A3081F0909335
:100F80003D0280913D02803A09F0A3CF10923D02CC
:100F9000A0CF86EFD9CF895F80933C02E1CF895FF4
:100FA00080933D02EECF0E94DE03882309F43AC10C
:100FB000809138028C3221F083E50E941704A6CF7D
:100FC0000E94DE03882309F42DC1809138028093AA
:100FD00037020E94DE03882309F424C1809137027E
:100FE00020913802280F3327331F2F3F310509F096
:100FF00038C2982F937009F034C29CEF9093270267
:101000009091390290933A02883509F44CC108F066
:101010007FC0843109F404C138F5883009F421C156
:1010200088F4813009F432C1833009F468C183E067
:1010300091E00E940404809137020E94170485E029
:1010400091E02EC18C3009F487C1803181F7109274
:101050003302109229028AE891E00E94040480EB96
:1010600091E00E941002DEC0803309F4EDC130F53A
:10107000883109F418C18C32D1F681E080933202B4
:1010800085E4809307018091DD018093DF018093E7
:10109000E0018093E1018093E2018091DE018F5FA6
:1010A0008093DE01863011F41092DE018091DE0122
:1010B000882309F4B7C086E691E0F2C0883309F4CA
:1010C00004C18C3409F0B3CF81E08093320283E411
:1010D000809307018091DD018093DE018093DF0121
:1010E0008093E1018093E2018091E0018F5F809322
:1010F000E001863011F41092E0018091E001882334
:1011000021F088E691E00E94040464E871E047C1A0
:10111000883A09F4FAC008F045C0883709F4F5C0E8
:1011200070F5803609F470C0883609F080CF809160
:101130003302813031F488E08093290284EF809378
:1011400028020E9458048091060191E0980F909324
:1011500006019F709A3019F4895F8093060180918F
:101160000601803A19F481E08093060189E491E058
:101170000E94040480EB91E00E94310253C08C383D
:1011800009F41DC1803A09F052CF8CE98093230203
:10119000809134028111B6C081E08093340282E5EF
:1011A00091E07EC0883D09F490C030F58C3A09F496
:1011B0002AC18C3C09F03BCF81E08093320284E469
:1011C000809307018091DD018093DE018093E0012F
:1011D0008093E1018093E2018091DF018F5F809332
:1011E000DF01863011F41092DF018091DF01882346
:1011F000C9F087E691E054C0843E99F1883F09F434
:1012000096CF803E09F013CF81E080933102909118
:101210003502911171C0809335028CE591E040C098
:1012200010922702E091210280912202E81709F42E
:1012300026C1F0E0EE0FFF1FEF5FFD4FE080F18071
:10124000F7011491112309F40FC1612F83E892E093
:101250000E94340D1A3009F407C1FFEFEF1AFF0A9C
:10126000EFCF1092350280913302811102C00E94AB
:10127000F70380913102811104C089E891E00E9456
:10128000040480EB91E00E94EF01CCCF8091330207
:10129000813011F40E94F7030E94580488E891E01D
:1012A0000E940404BFCF0E94580487E891E00E9486
:1012B0000404809107018150809307018F7009F029
:1012C000B1CF86E480930701ADCF0E94580480918E
:1012D000320281110EC086E891E00E9404048091E0
:1012E00007018F5F80930701873408F49BCF81E467
:1012F000E9CF1092320296CF109235028ECF83E55D
:1013000091E0CECF109234024ACF809133028130E7
:1013100031F488E08093290284EF809328020E94B0
:10132000580480910601982F9F7019F4865080937D
:10133000060180910601815080930601811103C04E
:1013400089E98093060180E491E00E94040480EB27
:1013500091E00E94520266CF81E08093320281E4E4
:10136000809307018091DD018093DE018093DF018E
:101370008093E0018093E1018091E2018F5F80938F
:10138000E201863011F41092E2018091E20188239B
:1013900021F08CE791E00E94040460E771E0CE0147
:1013A00001960E94C50DBE016F5F7F4F80EB91E0FB
:1013B0000E942401CE0101960E94560D33CF81E098
:1013C0008093320282E4809307018091DD01809353
:1013D000DE018093DF018093E0018093E101809141
:1013E000E2018F5F8093E201863011F41092E201F6
:1013F0008091E201882321F082E791E00E940404B9
:101400006AE771E0CCCF81E08093320286E480937A
:1014100007018091DE018093DF018093E0018093DA
:10142000E1018093E2018091DD018F5F8093DD0116
:10143000863011F41092DE018091DE01882309F4D8
:10144000F1CE85E691E02CCF80913302813031F4EA
:10145000109233028AE080932902E4CE0E94F703BF
:10146000E1CE0E942B04DECE809121028F5F80931B
:1014700021028C3009F0D6CE10922102D3CE2696CE
:101480000FB6F894DEBF0FBECDBFDF91CF911F9195
:10149000FF90EF9008951F920F920FB60F921124B4
:1014A0002F933F934F935F936F937F938F939F936C
:1014B000AF93BF93EF93FF93E0918102F09182028B
:1014C000309749F0A685B7858585968D91FF14C024
:1014D0009C918923A1F4FF91EF91BF91AF919F91CE
:1014E0008F917F916F915F914F913F912F910F90CD
:1014F0000FBE0F901F9018959C91892361F7A389C7
:10150000B4899C918589809589238C938689978954
:101510000197F1F7608D718DA685B785558538E007
:1015200020E0CB010197F1F7822F90E09595879508
:10153000282F4C91452309F02068315091F7868D72
:1015400081FD20958091400290E001968F7399274C
:1015500030913F02381799F0A0914002B0E0AF5BA4
:10156000BD4F2C9380934002828D938D0197F1F7AC
:10157000A389B4898C919589892B8C93ACCF868D66
:101580008160868FF1CFFC01918D228D892F90E0B3
:10159000805C9F4F821B91098F7399270895FC01EE
:1015A000918D828D981731F0828DE80FF11D858D18
:1015B00090E008958FEF9FEF0895FC01918D828D4B
:1015C000981761F0A28DAE0FBF2FB11D5D968C9163
:1015D000928D9F5F9F73928F90E008958FEF9FEFA2
:1015E0000895FC01538D448D252F30E0842F90E029
:1015F000821B930B541710F0CF960895019708950E
:10160000FC01A48DA80FB92FB11DA35ABF4F2C9177
:10161000848D90E001968F739927848FA689B7896E
:101620002C93A089B1898C9180648C93938D848D47
:10163000981306C00288F389E02D80818F7D808316
:101640000895CF93DF93EC01888D8823B9F0AA89A0
:10165000BB89E889F9898C9185FD03C0808186FD6D
:101660000DC00FB607FCF7CF8C9185FFF2CF8081BC
:1016700085FFEDCFCE010E94000BE9CFDF91CF9126
:101680000895EF92FF920F931F93CF93DF93EC0196
:1016900081E0888F9B8D8C8D981316C0E889F9891D
:1016A000808185FF11C0EE89FF896083E889F9890F
:1016B00080818064808381E090E0DF91CF911F91F1
:1016C0000F91FF90EF900895F62E0B8D10E00F5FB5
:1016D0001F4F0F731127E02E8C8D8E110CC00FB68B
:1016E00007FCFACFE889F989808185FFF5CFCE0123
:1016F0000E94000BF1CFEB8DEC0FFD2FF11DE35A93
:10170000FF4FF0820B8FEA89FB8980818062D2CF04
:10171000CF92DF92EF92FF921F93CF93DF93EC0172
:101720006A017B01122FE889F98982E08083C11464
:1017300081EED806E104F104A1F060E079E08DE3E8
:1017400090E0A70196010E947E0F215031094109C6
:1017500051095695479537952795211580E138070A
:1017600098F0E889F989108260E874E88EE190E0E9
:10177000A70196010E947E0F2150310941095109AC
:101780005695479537952795EC85FD853083EE85F1
:10179000FF852083188EEC89FD891083EA89FB89F7
:1017A000808188698083EA89FB8980818F7D80833D
:1017B000DF91CF911F91FF90EF90DF90CF90089530
:1017C0001F920F920FB60F9211242F938F939F9316
:1017D000EF93FF93E0919302F09194028081E09166
:1017E0009902F0919A0282FD1BC0908180919C0227
:1017F0008F5F8F7320919D02821741F0E0919C02D0
:10180000F0E0ED57FD4F958F80939C02FF91EF9193
:101810009F918F912F910F900FBE0F901F90189551
:101820008081F4CF1F920F920FB60F9211242F9345
:101830003F934F935F936F937F938F939F93AF9358
:10184000BF93EF93FF9383E892E00E94000BFF9118
:10185000EF91BF91AF919F918F917F916F915F9128
:101860004F913F912F910F900FBE0F901F901895A1
:10187000E3E8F2E01382128288EE93E0A0E0B0E0A9
:1018800084839583A683B78382E991E091838083E3
:1018900085EC90E09587848784EC90E09787868735
:1018A00080EC90E0918B808B81EC90E0938B828B2D
:1018B00082EC90E0958B848B86EC90E0978B868B06
:1018C000118E128E138E148E08951F920F920FB6E2
:1018D0000F9211242F938F939F93EF93FF93E09197
:1018E0003003F09131038081E0913603F0913703AA
:1018F00082FD1BC09081809139038F5F8F7320918F
:101900003A03821741F0E0913903F0E0E05EFC4FCA
:10191000958F80933903FF91EF919F918F912F9134
:101920000F900FBE0F901F9018958081F4CF1F92DB
:101930000F920FB60F9211242F933F934F935F9303
:101940006F937F938F939F93AF93BF93EF93FF9387
:1019500080E293E00E94000BFF91EF91BF91AF9165
:101960009F918F917F916F915F914F913F912F91B7
:101970000F900FBE0F901F901895E0E2F3E01382D6
:10198000128288EE93E0A0E0B0E084839583A68382
:10199000B78382E991E0918380838DEC90E0958715
:1019A00084878CEC90E09787868788EC90E0918B19
:1019B000808B89EC90E0938B828B8AEC90E0958B06
:1019C000848B8EEC90E0978B868B118E128E138E0B
:1019D000148E0895AF92BF92CF92DF92EF92FF9252
:1019E0000F931F93CF93DF936C017B018B01040F47
:1019F000151FEB015E01AE18BF08C017D10759F0E3
:101A00006991D601ED91FC910190F081E02DC60124
:101A10000995892B79F7C501DF91CF911F910F911E
:101A2000FF90EF90DF90CF90BF90AF900895FB01B3
:101A300001900020E9F73197AF01461B570BDC01FD
:101A4000ED91FC910280F381E02D0994DB01149665
:101A50004D915C9115976D917C91DC01ED91FC911C
:101A60000280F381E02D0994DC01ED91FC9101905D
:101A7000F081E02D09946DE171E00C94170D0F9346
:101A80001F93CF93DF938C01D0E0C0E06115710507
:101A900019F00E94170DEC01C8010E943B0D8C0F3C
:101AA0009D1FDF91CF911F910F910895FC018081BF
:101AB00091810C944210CF93DF93EC01888199813E
:101AC000009711F00E944210198218821D821C8218
:101AD0001B821A82DF91CF9108950F931F93CF93AA
:101AE000DF93EC018B016F5F7F4F888199810E94AA
:101AF000CB10009751F0998388831B830A8381E080
:101B0000DF91CF911F910F91089580E0F9CFCF938E
:101B1000DF93EC0188819981892B49F08A819B812F
:101B20008617970720F081E0DF91CF910895CE01CD
:101B30000E946D0D8823C1F38C819D81892B99F7BB
:101B4000E881F9811082EFCFEF92FF920F931F93FC
:101B5000CF93DF93EC017B018A01BA010E94870DCC
:101B600081110BC0CE010E945B0DCE01DF91CF91A0
:101B70001F910F91FF90EF9008951D830C83B70183
:101B8000888199810E94AE11F0CFFC0111821082F0
:101B900013821282158214826115710551F0FB01C6
:101BA00001900020E9F73197AF01461B570B0C94C9
:101BB000A40D0895FB0101900020E9F73197AF01D2
:101BC000461B570B0C94A40DEF92FF920F931F939B
:101BD000CF93DF93EC017B018A01BA010E94870D4C
:101BE00081110BC0CE010E945B0DCE01DF91CF9120
:101BF0001F910F91FF90EF9008951D830C83B70103
:101C0000888199810E948811F0CFCF93DF93EC01F6
:101C1000FB018617970749F0608171816115710595
:101C200041F0448155810E94A40DCE01DF91CF91F6
:101C300008950E945B0DF9CFFC011182108213827E
:101C40001282158214820C94050ECF93DF93EC015F
:101C50006115710531F00E94DA0DCE01DF91CF914F
:101C600008950E945B0DF9CF0F931F93CF93DF93DD
:101C7000EC018B016115710571F0CB010E948F1190
:101C8000AC01B801CE010E94E40DCE01DF91CF91ED
:101C90001F910F9108950E945B0DF7CFFC011182F7
:101CA000108213821282158214820C94340EEF92E9
:101CB000FF920F931F93CF93DF936115710541F44A
:101CC00080E0DF91CF911F910F91FF90EF900895E9
:101CD00041155105B1F07B01EC010C811D81040F10
:101CE000151FB8010E94870D882351F3288139817F
:101CF0008C819D81B701820F931F0E94AE111D83BD
:101D00000C8381E0DECFCF93DF9300D0CDB7DEB779
:101D100069831A8241E050E0BE016F5F7F4F0E94ED
:101D2000570E0F900F90DF91CF910895CF93DF93CF
:101D3000EC01FB0144815581608171810E94570E45
:101D4000811103C0CE010E945B0DCE01DF91CF91C6
:101D50000895CF93DF93EC016115710539F4CE013D
:101D60000E945B0DCE01DF91CF910895FB010190A0
:101D70000020E9F73197AF01461B570B0E94570E21
:101D8000882369F3EFCFFC01248135816217730743
:101D900020F480819181009729F41092BD038DEB8E
:101DA00093E00895860F971F08951F920F920FB624
:101DB0000F9211242F933F938F939F93AF93BF93D1
:101DC0008091BF039091C003A091C103B091C20361
:101DD0003091BE0323E0230F2D3758F50196A11D46
:101DE000B11D2093BE038093BF039093C003A093C3
:101DF000C103B093C2038091C3039091C403A09127
:101E0000C503B091C6030196A11DB11D8093C30304
:101E10009093C403A093C503B093C603BF91AF9141
:101E20009F918F913F912F910F900FBE0F901F9018
:101E3000189526E8230F0296A11DB11DD2CF3FB7FA
:101E4000F8948091C3039091C403A091C503B0910D
:101E5000C60326B5A89B05C02F3F19F00196A11D0A
:101E6000B11D3FBFBA2FA92F982F8827BC01CD01E4
:101E7000620F711D811D911D42E0660F771F881F43
:101E8000991F4A95D1F708958F929F92AF92BF9272
:101E9000CF92DF92EF92FF926B017C010E941F0FA5
:101EA0004B015C01C114D104E104F104E9F00E948A
:101EB0007D0F0E941F0F681979098A099B09683EE6
:101EC00073408105910570F321E0C21AD108E10841
:101ED000F10888EE880E83E0981EA11CB11CC11485
:101EE000D104E104F10429F7FF90EF90DF90CF9047
:101EF000BF90AF909F908F9008950895A1E21A2E01
:101F0000AA1BBB1BFD010DC0AA1FBB1FEE1FFF1F9D
:101F1000A217B307E407F50720F0A21BB30BE40BED
:101F2000F50B661F771F881F991F1A9469F7609534
:101F30007095809590959B01AC01BD01CF010895EE
:101F4000EE0FFF1F0590F491E02D09940F931F935E
:101F5000CF93DF938230910510F482E090E0E0911E
:101F6000C903F091CA0330E020E0B0E0A0E0309770
:101F700099F42115310509F44AC0281B390B243086
:101F80003105D8F58A819B816115710589F1FB01C5
:101F900093838283FE0111C04081518102811381AC
:101FA00048175907E0F04817590799F4109761F05E
:101FB00012960C93129713961C933296CF01DF91D1
:101FC000CF911F910F9108950093C9031093CA03F5
:101FD000F4CF2115310551F04217530738F0A9010C
:101FE000DB019A01BD01DF01F801C1CFEF01F9CF9B
:101FF0009093CA038093C903CDCFFE01E20FF31F74
:10200000819391932250310939832883D7CF20912E
:10201000C7033091C803232B41F420910201309172
:1020200003013093C8032093C7032091000130912E
:1020300001012115310541F42DB73EB7409104014E
:1020400050910501241B350BE091C703F091C803A3
:10205000E217F307A0F42E1B3F0B2817390778F07F
:10206000AC014E5F5F4F2417350748F04E0F5F1FDE
:102070005093C8034093C703819391939FCFF0E09F
:10208000E0E09CCFCF93DF930097E9F0FC0132971B
:1020900013821282A091C903B091CA03ED0130E00E
:1020A00020E01097A1F420813181820F931F2091AD
:1020B000C7033091C8032817390709F061C0F093AE
:1020C000C803E093C703DF91CF910895EA01CE17CB
:1020D000DF07E8F54A815B819E0141155105B1F7A3
:1020E000E901FB83EA8349915991C40FD51FEC178D
:1020F000FD0761F4808191810296840F951FE901AB
:1021000099838883828193819B838A83F0E0E0E0D6
:1021100012968D919C9113970097B9F52D913C9152
:102120001197CD010296820F931F2091C703309122
:10213000C8032817390739F6309751F51092CA03AA
:102140001092C903B093C803A093C703BCCFD38335
:10215000C28340815181840F951FC817D90761F44C
:102160004E5F5F4F88819981480F591F518340838B
:102170008A819B81938382832115310509F0B0CF39
:10218000F093CA03E093C9039ECFFD01DC01C0CFE9
:1021900013821282D7CFB0E0A0E0E1EDF0E10C9421
:1021A000B7118C01009751F4CB010E94A60F8C014E
:1021B000C801CDB7DEB7E0E10C94D311FC01E60F06
:1021C000F71F9C0122503109E217F30708F49DC064
:1021D000D901CD91DC911197C617D70798F0C5307A
:1021E000D10530F3CE0104978617970708F3C61B75
:1021F000D70B2297C193D1936D937C93CF010E940B
:102200004210D6CF5B01AC1ABD0A4C018C0E9D1E4C
:10221000A091C903B091CA03512C412CF12CE12C9F
:10222000109731F58091C7039091C80388159905DF
:1022300009F05CC04616570608F058C080910001AE
:1022400090910101009741F48DB79EB74091040130
:1022500050910501841B950BE817F90708F055C04C
:10226000F093C803E093C703F90171836083A0CFA3
:102270008D919C91119712966C90129713967C9069
:102280001397A815B90559F56C0142E0C40ED11C8D
:10229000CA14DB0420F1AC014A195B09DA01129679
:1022A000159780F06282738251834083D9016D93C8
:1022B0007C93E114F10471F0D7011396FC93EE9333
:1022C000129776CF22968C0F9D1FF9019183808300
:1022D000F301EFCFF093CA03E093C90369CF481627
:1022E000590608F42C017D01D3019ACFCB010E943D
:1022F000A60F7C01009749F0AE01B8010E94A5111C
:10230000C8010E944210870153CF10E000E050CF77
:10231000FB01DC0105900D920020E1F70895FC011E
:1023200005900020E9F7809590958E0F9F1F0895E6
:10233000FB01DC0104C08D910190801921F4415012
:102340005040C8F7881B990B0895FB01DC0102C0BF
:1023500001900D9241505040D8F70895FB01DC01E7
:1023600001900D920020E1F708952F923F924F9235
:102370005F926F927F928F929F92AF92BF92CF9215
:10238000DF92EF92FF920F931F93CF93DF93CDB71E
:10239000DEB7CA1BDB0B0FB6F894DEBF0FBECDBF96
:1023A00009942A88398848885F846E847D848C8467
:1023B0009B84AA84B984C884DF80EE80FD800C8170
:1023C0001B81AA81B981CE0FD11D0FB6F894DEBF53
:1023D0000FBECDBFED01089510E0CBECD0E004C0FE
:1023E000FE010E94A00F2196CD3CD107C9F7F894B9
:1023F000FFCF0000CB03800001014D30004D3100C4
:102400004D32004D33004D3400434F4D2B50410DA4
:102410000A00434F4D2B50550D0A00434F4D2B5092
:102420004E0D0A00434F4D2B50560D0A00434F4DA1
:102430002B564F4C0041542B4D590D0A00434F4D24
:102440002B544F4E454F46460D0A004400496E69D5
:102450007469616C697A6174696F6E005265616458
:102460007900434F4D2B4D42540D0A00434F4D2BE5
:102470004D55440D0A00434F4D2B4D41580D0A0058
:1024800000000000410BEA0CF10A210BC30ADD0A2F
:02249000CF0A71
:107E000001C0B7C0112484B790E89093610010922C
:107E10006100882361F0982F9A70923041F081FFC1
:107E200002C097EF94BF282E80E0C6D0E9C085E05D
:107E30008093810082E08093C00088E18093C1003C
:107E400080E18093C40086E08093C2008EE0B4D0CD
:107E5000259A84E020E33CEF91E030938500209365
:107E6000840096BBB09BFECF1D9AA8954091C000A0
:107E700047FD02C0815089F793D0813479F490D0C6
:107E8000182FA0D0123811F480E004C088E0113817
:107E900009F083E07ED080E17CD0EECF823419F40B
:107EA00084E198D0F8CF853411F485E0FACF853598
:107EB00041F476D0C82F74D0D82FCC0FDD1F82D0DC
:107EC000EACF863519F484E085D0DECF843691F58B
:107ED00067D066D0F82E64D0D82E00E011E05801AB
:107EE0008FEFA81AB80A5CD0F80180838501FA10D8
:107EF000F6CF68D0F5E4DF1201C0FFCF50E040E0DC
:107F000063E0CE0136D08E01E0E0F1E06F0182E067
:107F1000C80ED11C4081518161E0C8012AD00E5F9A
:107F20001F4FF601FC10F2CF50E040E065E0CE01BB
:107F300020D0B1CF843771F433D032D0F82E30D086
:107F400041D08E01F80185918F0123D0FA94F11070
:107F5000F9CFA1CF853739F435D08EE11AD085E934
:107F600018D086E197CF813509F0A9CF88E024D0D9
:107F7000A6CFFC010A0167BFE895112407B600FCF3
:107F8000FDCF667029F0452B19F481E187BFE89594
:107F900008959091C00095FFFCCF8093C60008958E
:107FA0008091C00087FFFCCF8091C00084FD01C09C
:107FB000A8958091C6000895E0E6F0E098E19083EE
:107FC00080830895EDDF803219F088E0F5DFFFCF80
:107FD00084E1DFCFCF93C82FE3DFC150E9F7CF9122
:027FE000F1CFDF
:027FFE00000879
:00000001FF
