:100000000C94E2000C940A010C940A010C944D0823
:100010000C944D080C944D080C940A010C94620346
:100020000C940A010C940A010C9413040C940A0118
:100030000C940A010C94D0030C94AC030C940A01A8
:100040000C947C0C0C940A010C94680A0C949A0A87
:100050000C940A010C940A010C940A010C940A01F4
:100060000C940A010C940A010C940A010C944D089A
:100070000C940A010C940A010C940A010C940A01D4
:100080000C940A010C940A010C940A010C940A01C4
:100090000C940A010C940A010C940A010C940A01B4
:1000A0000C940A010C940A010C940A010C940A01A4
:1000B0000C940A01312E306100005F000D0A0041EE
:1000C00075646920436F6E636572742049204D75B5
:1000D0006C74696D6564696120616E642050686F3D
:1000E0006E652047617465776179205665722E00D0
:1000F00052494E470D0A00434F4D2B50560D0A00F2
:10010000434F4D2B504E0D0A0000434F4D2B504195
:100110000D0A00434F4D5F534D520A00000000434B
:100120004F4D2B4D41580D0A00434F4D2B4D55441B
:100130000D0A00434F4D2B4D42540D0A00000000A4
:10014000000000000A0D0E0900030200000405086B
:10015000000000000000000000000000000000019E
:10016000020408102040800102040810200102044B
:100170000810204080400102040804040404040420
:100180000404020202020202030303030303020245
:100190000305050505000000002300260029002CAA
:1001A0000000000000250028002B002E00000000A9
:1001B00000240027002A002D00000C012001C00AA5
:1001C00018012D0111241FBECFEFD8E0DEBFCDBF37
:1001D00011E0A0E0B1E0E8EFFFE102C005900D9270
:1001E000A834B107D9F722E0A8E4B1E001C01D921C
:1001F000A93CB207E1F710E0C0EED0E004C02197BF
:10020000FE010E94AC0DCD3DD107C9F70E9435011A
:100210000C94EF0F0C9400006EE071E08EE491E01E
:100220000E94670C68E071E088E491E00C94670C30
:1002300088E491E00E94F80B8EE491E00C94F80BB6
:1002400020E044E063E08AE591E00E9420096EE04E
:1002500071E084E591E00C94670C84E591E00E94E4
:10026000F80B8AE591E00C94C50826E040E855E2D9
:1002700060E070E08FE192E00E94100A0E94E602C6
:100280006091C9017091CA014AE050E08FE192E0AB
:100290000E94E60B0E94B804F3CF8091D5019091A3
:1002A000C401891789F0E82FF0E0ED57FE4F9081E7
:1002B0009093D4018F5F883121F08093D50181E044
:1002C00008951092D501FBCF80E0089581E08093DE
:1002D000CF0182E08093C30181ED8093C00188EE5D
:1002E0008093C20108952091BC01E22FF0E0EE0F4F
:1002F000FF1FE556FE4F918380832F5F2C3019F04E
:100300002093BC0108951092BC010895CF93C82F8B
:100310008695869586958E7190E087549F4F0E94B2
:100320007301CC0FCE718C2F90E087549F4FCF91EB
:100330000C9473018091D6018093D5010E944D01E8
:10034000813021F48091D4010E9486010E944D01E8
:10035000813021F48091D4010E9486010E944D01D8
:10036000813021F48091D4010E9486010E944D01C8
:10037000813021F48091D4010E9486018CEB90E0C1
:100380000E9473018091D5018093D60108958CEE6F
:100390008093BE011092D8011092D90108959091D6
:1003A0007F01E92FF0E0ED54FE4F80839F5F98308E
:1003B00019F090937F01089510927F018091B10010
:1003C00084608093B100089589E90E94CF0189E992
:1003D0000E94CF0189E50E94CF0189E40C94CF01EE
:1003E000809107010E94CF01809106010E94CF01F8
:1003F0008091D9010E94CF018091D8010E94CF0144
:100400008091D101813041F480E29091D00191300E
:1004100009F480610C94CF0180E0F7CF9091C10185
:10042000911102C00C94CF019F5F9093C101806233
:10043000F9CF83EC0E940E028091C2018F5F8093FE
:10044000C201811109C081E08093CF0185E08093D2
:10045000C30186EF8093C20108958CEE8093BE01A4
:100460008BE80E940E020E94F00180E70E94CF01FB
:1004700083E80C940E028091C0010E94CF0180910C
:10048000C001863D51F481ED8093C0010E94E401DA
:1004900080E00E94CF010C9419028F5FF5CF83ECAE
:1004A0000E940E028091C2018F5F8093C201811170
:1004B00006C081E08093CF0189E08093C301089555
:1004C000809107018F70806D0E94CF010E94E4012E
:1004D00080E00E94CF010C944F02E091C301EB3009
:1004E00008F073C0F0E0E958FD4F0C94AC0D990290
:1004F00090029B02AB02A402AD02BD02B602BF0293
:10050000DB0282028CEE8093BE018BE40E940E021D
:100510000E94F00180E20E94CF0183E40C940E025D
:100520008091C2018F5F8093C201811102C00E943D
:1005300066010C942D028CEE8093BE018BEC0E9420
:100540000E028091C20180FF0C943B020E94F001D8
:1005500080E10E94CF010C9419028CEE8093BE01C1
:100560008BEC0E940E028091C20180FF0C9460020D
:100570000E94F00181E50E94CF010C944F028CEEA5
:100580008093BE018BEC0E940E020E94F00181E577
:100590000E94CF0183EC0E940E028091C2018F5F06
:1005A0008093C201882389F081E08093CF0189E0A4
:1005B0008093C30108958BEC0E940E020E94F0010B
:1005C00080E30E94CF0183ECA9CF0895CF93DF93FE
:1005D0006FE071E08FE192E00E94340BF894CEE678
:1005E000D0E01882259A239A2098289A10928000A9
:1005F000E1E8F0E080E88083808182608083B59AC2
:10060000EFE6F0E08081806280838FEA8093B30020
:1006100082E08093B00084E08093B100E0E7F0E0F6
:100620008081826080831092C4011092D60188EF8D
:100630008093C6011092BC011092BB011092D201AE
:100640001092D1011092D0011092CF011092CC01E2
:100650001092CB011092C10181E48093070181E0E7
:100660008093060186EF8093BF010E94C70110921C
:10067000CF011092C3018FEB90E00E94730184EBD5
:1006800090E00E9473018CEB90E00E94730180EF78
:1006900090E00E9473018CE987BD14BC84B5826030
:1006A00084BD85B5856085BD8881826088830E9410
:1006B0006D0278946EE171E08FE192E0DF91CF916D
:1006C0000C94340B1F920F920FB60F9211242F939C
:1006D0008F939F93EF93FF938091B1008B7F8093D3
:1006E000B100E0918001E830A0F5F0E0ED54FE4F5C
:1006F000908188EF8093DA0125E08091DA018823E8
:10070000A1F02D9A822F8A95F1F797FD0CC02B9AB4
:10071000990F2D98822F8A95F1F78091DA018F5FDA
:100720008093DA01EACF2B98F3CF809180018F5F1D
:10073000809380018091B10084608093B100FF912B
:10074000EF919F918F912F910F900FBE0F901F905F
:10075000189510928001F3CF1F920F920FB60F924F
:1007600011248F939F93809182018F5F853049F090
:10077000809382019F918F910F900FBE0F901F90D9
:1007800018951092820181E0809381018091C901C6
:100790009091CA0101969093CA018093C901EACF52
:1007A0001F920F920FB60F9211242F938F939F9346
:1007B000EF93FF9380916F008E7F80936F00109274
:1007C000D2019091C601993F0CF181E08093CB0159
:1007D0008091C401E82FF0E0ED57FE4F992329F0F6
:1007E0002081220F20839F5FF9CF98EF9093C6015D
:1007F0008F5F8831A9F08093C4019091C4018091EA
:10080000D601981303C081E08093CC01FF91EF9152
:100810009F918F912F910F900FBE0F901F90189561
:100820001092C401EACF1F920F920FB60F921124BB
:100830002F933F934F938F939F93EF93FF938091C9
:100840008600909187009093C8018093C701109211
:10085000850010928400189918C0B09A80916F009A
:10086000816080936F00809181008064809381001B
:10087000B59AFF91EF919F918F914F913F912F9159
:100880000F900FBE0F901F90189581E08093D201BA
:10089000909181009F7B90938100B59A90916F0019
:1008A00090FFE7CF8093D20190916F009E7F90934D
:1008B0006F002091C7013091C801213049E1340710
:1008C00058F190EE9093C5019091C601993F8CF23A
:1008D0008093CB018091C401E82FF0E0ED57FE4FEB
:1008E000992329F02081220F20839F5FF9CF98EF71
:1008F0009093C6018F5F883161F08093C40190911D
:10090000C4018091D6019813B4CF81E08093CC01CB
:10091000B0CF1092C401F3CF213082E0380708F441
:10092000A8CF9091C401E92FF0E0ED57FE4F8081F0
:10093000880F213C394088F480838091C5018F5F06
:100940008093C501811102C01092D2018091C6012D
:100950008F5F29F08093C6018CCF8160EDCF88EF47
:100960008093C6019F5F9831A1F29093C401C7CFD5
:100970000F931F93CF9380918101813081F4109266
:1009800081010E946D028091BD018F5F89F180938A
:10099000BD018091BE018F5FB1F18093BE01809156
:1009A000CC01813031F41092CC0182E491E00E94BC
:1009B00073018091CB01813031F41092CB0183E43B
:1009C00091E00E9473018091D6018093D5010E942D
:1009D0004D01882309F48BC18091D401833509F43A
:1009E00056C00E9486018091D5018093D601EFCF39
:1009F0008CE98093BD011092D0018091D7018F7E48
:100A00008093D701C6CF8CEE8093BE018091BF0149
:100A10008F5F29F18093BF018091D80191E0980FF9
:100A2000292F2F702A3059F19093D8018091D80145
:100A3000803609F0B4CF1092D8018091D90191E0AD
:100A4000980F292F2F702A30F1F09093D9018091BF
:100A5000D901803A09F0A3CF1092D901A0CF86EF37
:100A60008093BF018FEB90E00E94730184EB90E0D4
:100A70000E9473018CEB90E00E947301CDCF895FDF
:100A80008093D801D3CF895F8093D901E0CF0E94B2
:100A90004D01882309F42BC18091D4018C3221F0BF
:100AA00083E50E94860198CF0E944D01882309F4B6
:100AB0001EC18091D4018093D3010E944D018823EF
:100AC00009F415C18091D3012091D401280F332757
:100AD000331F2F3F310509F007C2982F937009F09B
:100AE00003C29CEF9093C1019091D5019093D601E0
:100AF000883509F436C108F076C0843109F4F5C0B0
:100B000008F5883009F411C188F4813009F41EC158
:100B1000833009F452C18AEB90E00E947301809106
:100B2000D3010E9486018CEB90E00DC18C3009F45A
:100B30006BC1803181F71092CF011092C30181E423
:100B400091E001C1803309F4C2C130F5883109F464
:100B500008C18C3201F781E08093CE0185E4809357
:100B600007018091790180937B0180937C018093C0
:100B70007D0180937E0180917A018F5F80937A015D
:100B8000863011F410927A0180917A01882309F459
:100B9000AEC08DE191E0D7C0883309F4F4C08C3445
:100BA00009F0B9CF81E08093CE0183E480930701FF
:100BB0008091790180937A0180937B0180937D01FC
:100BC00080937E0180917C018F5F80937C018630D1
:100BD00011F410927C0180917C01882309F487C074
:100BE0008FE191E0B0C0883A09F4EDC008F03FC051
:100BF000883709F4E8C040F5803609F46AC08836C1
:100C000009F089CF8091CF01813031F488E0809361
:100C1000C30184EF8093C2010E94C7018091060145
:100C200091E0980F909306019F709A3019F4895FB4
:100C30008093060180910601803A19F481E0809347
:100C4000060180E091E07FC08C3809F4FEC0803A54
:100C500009F061CF8CE98093BD018091D0018111B1
:100C6000AFC081E08093D00189E091E06CC0883D05
:100C700009F489C030F58C3A09F408C18C3C09F0BC
:100C80004ACF81E08093CE0184E480930701809174
:100C9000790180937A0180937C0180937D01809318
:100CA0007E0180917B018F5F80937B01863011F400
:100CB00010927B0180917B018823C9F08EE191E045
:100CC00042C0843E91F1883F09F49CCF803E09F0F8
:100CD00022CF81E08093CD019091D10191116AC022
:100CE0008093D10183E191E02EC01092C101E09187
:100CF000BB018091BC01E81709F404C1F0E0EE0FDC
:100D0000FF1FE556FE4F00811181F801C491CC23ED
:100D100009F4EDC06C2F8FE192E00E94290BCA30DC
:100D200009F4E5C00F5F1F4FF0CF1092D101809101
:100D3000CF01811102C00E9466018091CD01811115
:100D4000D6CF80E491E00E947301D1CF8091CF0192
:100D5000813011F40E9466010E94C7018FE391E087
:100D6000F2CF0E94C7018EE391E00E94730180914F
:100D700007018150809307018F7009F0B8CF86E496
:100D800080930701B4CF0E94C7018091CE018111E9
:100D90000EC08DE391E00E947301809107018F5F87
:100DA00080930701873408F4A2CF81E4E9CF109241
:100DB000CE019DCF1092D10195CF8AE091E0C3CFB3
:100DC0001092D00151CF8091CF01813031F488E071
:100DD0008093C30184EF8093C2010E94C701809178
:100DE0000601982F9F7019F4865080930601809118
:100DF0000601815080930601811103C089E9809327
:100E0000060187EF90E09FCF81E08093CE0181E4DF
:100E1000809307018091790180937A0180937B010F
:100E200080937C0180937D0180917E018F5F809310
:100E30007E01863011F410927E0180917E0188231C
:100E400009F455CF83E391E07ECF81E08093CE011A
:100E500082E4809307018091790180937A018093E5
:100E60007B0180937C0180937D0180917E018F5F67
:100E700080937E01863011F410927E0180917E0174
:100E8000882309F434CF89E291E05DCF81E080933B
:100E9000CE0186E48093070180917A0180937B01E3
:100EA00080937C0180937D0180937E018091790104
:100EB0008F5F80937901863011F410927A018091CE
:100EC0007A01882309F413CF8CE191E03CCF809123
:100ED000CF01813031F41092CF018AE08093C301B9
:100EE00006CF0E94660103CF0E949A0100CF809135
:100EF000BB018F5F8093BB018C3009F0F8CE10925C
:100F0000BB01F5CECF911F910F91089590E080E045
:100F1000089520911D0230911E0228173907B9F457
:100F20009091DB018091DC01981789F0E091DB0161
:100F3000F0E0E352FE4F80812091DB0130E02F5F33
:100F40003F4F2F7333272093DB0190E008958FEFFD
:100F50009FEF0895EF92FF920F931F93CF93DF932C
:100F6000DC015C96ED90FC905D97E114F10479F45E
:100F700081E090E013969C938E93129790E080E02E
:100F8000DF91CF911F910F91FF90EF9008955196AF
:100F9000ED91FC91529750968C915097982F909587
:100FA0000FB75E962C915E97122F127021FD6095FF
:100FB000F8942081112319F1282B2083E701219730
:100FC000F1F728E0462F50E0308160FF1AC0382B3F
:100FD0003083E7012197F1F7BA01759567952150A4
:100FE00089F7112381F08081892380830FBF5C966C
:100FF0008D919C910197F1F781E090E0C1CF292379
:10100000DCCF3923E5CF9081892BEFCF0895209154
:101010001D0230911E022817390771F49091DB01EF
:101020008091DC01981741F0E091DB01F0E0E352A0
:10103000FE4F808190E008958FEF9FEF08952091FB
:101040001D0230911E022817390771F48091DC01CE
:101050002091DB0190E0805C9F4F821B910960E44E
:1010600070E00E94760D089590E080E00895E09190
:101070001D02F0911E02E817F90769F4A389B489EB
:101080009C918589809589238C9310921E021092E1
:101090001D0281E0089580E008951F920F920FB61F
:1010A0000F9211242F933F934F935F936F937F93EE
:1010B0008F939F93AF93BF93EF93FF93E0911D02A4
:1010C000F0911E02309749F0A685B7858585968DEB
:1010D00091FF14C09C918923A1F4FF91EF91BF91DE
:1010E000AF919F918F917F916F915F914F913F91C0
:1010F0002F910F900FBE0F901F9018959C918923F0
:1011000061F7A389B4899C918589809589238C9303
:10111000868997890197F1F7608D718DA685B785CE
:10112000558538E020E0CB010197F1F7822F90E060
:1011300095958795282F4C91452309F020683150CB
:1011400091F7868D81FD20958091DC0190E00196DC
:101150008F7399273091DB01381799F0A091DC014A
:10116000B0E0A352BE4F2C938093DC01828D938D0F
:101170000197F1F7A389B4898C919589892B8C9378
:10118000ACCF868D8160868FF1CF28E231E0FC0103
:10119000318320830C9437081F93CF93DF93EC01A6
:1011A000162F6E8D6695617081E06827812F0E94F1
:1011B000480D61E0812F0E940C0D812F110F990BBA
:1011C000FC01E15AFE4FE491E88BFC01E658FE4F2A
:1011D000E491F0E0EE0FFF1FEF55FE4F85919491E3
:1011E0009A8B898BDF91CF911F9108951F93CF9395
:1011F000DF93EC01162F60E0812F0E940C0D8E8D85
:1012000081FD04C061E0812F0E94480D1C87812F61
:10121000110F990BFC01E15AFE4FE491ED87FC019F
:10122000E658FE4FE491F0E0EE0FFF1FEB56FE4F45
:10123000859194919F878E87DF91CF911F9108951B
:101240001F93CF93DF93EC01162F1B821A8288EE37
:1012500093E0A0E0B0E08C839D83AE83BF8388E2FF
:1012600091E0998388831F8A1E8A198E188E1B8E9F
:101270001A8E1D8E1C8E8E8D8E7F20FB81F98E8F97
:10128000642FCE010E94CC08612FCE01DF91CF9157
:101290001F910C94F608FC01918D228D892F90E00E
:1012A000805C9F4F821B91098F7399270895FC01E1
:1012B000918D828D981731F0828DE80FF11D858D0B
:1012C00090E008958FEF9FEF0895FC01918D828D3E
:1012D000981761F0A28DAE0FBF2FB11D5D968C9156
:1012E000928D9F5F9F73928F90E008958FEF9FEF95
:1012F0000895FC01538D448D252F30E0842F90E01C
:10130000821B930B541710F0CF9608950197089500
:10131000FC01A48DA80FB92FB11DA35ABF4F2C916A
:10132000848D90E001968F739927848FA689B78961
:101330002C93A089B1898C9180648C93938D848D3A
:10134000981306C00288F389E02D80818F7D808309
:101350000895CF93DF93EC01888D8823B9F0AA8993
:10136000BB89E889F9898C9185FD03C0808186FD60
:101370000DC00FB607FCF7CF8C9185FFF2CF8081AF
:1013800085FFEDCFCE010E948809E9CFDF91CF9193
:101390000895EF92FF920F931F93CF93DF93EC0189
:1013A00081E0888F9B8D8C8D981316C0E889F98910
:1013B000808185FF11C0EE89FF896083E889F98902
:1013C00080818064808381E090E0DF91CF911F91E4
:1013D0000F91FF90EF900895F62E0B8D10E00F5FA8
:1013E0001F4F0F731127E02E8C8D8E110CC00FB67E
:1013F00007FCFACFE889F989808185FFF5CFCE0116
:101400000E948809F1CFEB8DEC0FFD2FF11DE35AFF
:10141000FF4FF0820B8FEA89FB8980818062D2CFF7
:10142000CF92DF92EF92FF921F93CF93DF93EC0165
:101430006A017B01122FE889F98982E08083C11457
:1014400081EED806E104F104A1F060E079E08DE3DB
:1014500090E0A70196010E948A0D215031094109AF
:1014600051095695479537952795211580E13807FD
:1014700098F0E889F989108260E874E88EE190E0DC
:10148000A70196010E948A0D215031094109510995
:101490005695479537952795EC85FD853083EE85E4
:1014A000FF852083188EEC89FD891083EA89FB89EA
:1014B000808188698083EA89FB8980818F7D808330
:1014C000DF91CF911F91FF90EF90DF90CF90089523
:1014D0001F920F920FB60F9211242F938F939F9309
:1014E000EF93FF93E0912F02F09130028081E09121
:1014F0003502F091360282FD1BC090818091380246
:101500008F5F8F7320913902821741F0E09138028A
:10151000F0E0E15EFD4F958F80933802FF91EF91EF
:101520009F918F912F910F900FBE0F901F90189544
:101530008081F4CF1F920F920FB60F9211242F9338
:101540003F934F935F936F937F938F939F93AF934B
:10155000BF93EF93FF938FE192E00E948809FF9180
:10156000EF91BF91AF919F918F917F916F915F911B
:101570004F913F912F910F900FBE0F901F90189594
:10158000EFE1F2E01382128288EE93E0A0E0B0E097
:1015900084839583A683B7838AE391E091838083D4
:1015A00085EC90E09587848784EC90E09787868728
:1015B00080EC90E0918B808B81EC90E0938B828B20
:1015C00082EC90E0958B848B86EC90E0978B868BF9
:1015D000118E128E138E148E0895AF92BF92CF92F9
:1015E000DF92EF92FF920F931F93CF93DF936C01E3
:1015F0007B018B01040F151FEB015E01AE18BF08C4
:10160000C017D10759F06991D601ED91FC91019075
:10161000F081E02DC6010995892B79F7C501DF918D
:10162000CF911F910F91FF90EF90DF90CF90BF90DF
:10163000AF900895FB0101900020E9F73197AF01C9
:10164000461B570BDC01ED91FC910280F381E02DEC
:101650000994DC01ED91FC910190F081E02D099459
:101660006CE071E00C941A0B0F931F93CF93DF93F0
:101670008C01D0E0C0E06115710519F00E941A0BD1
:10168000EC01C8010E94300B8C0F9D1FDF91CF91A0
:101690001F910F9108958F929F92AF92BF92EF92F8
:1016A000FF920F931F93CF93DF93CDB7DEB7A19730
:1016B0000FB6F894DEBF0FBECDBF7C01FA01CB019F
:1016C00019A2223008F42AE08E010F5D1F4F822EEE
:1016D000912CB12CA12CBF01A50194010E948A0D6F
:1016E000F901CA016A300CF5605DD8016E938D0175
:1016F000232B242B252B79F790E080E0109721F005
:10170000BD01C7010E941A0BA1960FB6F894DEBF67
:101710000FBECDBFDF91CF911F910F91FF90EF9042
:10172000BF90AF909F908F900895695CDECFCF926D
:10173000DF92EF92FF920F931F93CF93DF932115C8
:10174000310581F4DC01ED91FC910190F081E02DF7
:10175000642FDF91CF911F910F91FF90EF90DF9059
:10176000CF9009942A30310501F52AE077FF1DC09A
:101770006A017B01EC016DE20E94290B8C01442778
:101780005527BA014C195D096E097F092AE0CE017F
:101790000E944B0B800F911FDF91CF911F910F91F2
:1017A000FF90EF90DF90CF900895DF91CF911F9140
:1017B0000F91FF90EF90DF90CF900C944B0B9A011C
:1017C000AB01770F660B770B0C94970B0F931F935E
:1017D000CF93DF93EC010E94DF0B8C01CE010E94BE
:1017E000300B800F911FDF91CF911F910F910895C2
:1017F000FC01808191810C94620ECF93DF93EC0108
:1018000088819981009711F00E94620E19821882D6
:101810001D821C821B821A82DF91CF9108950F9343
:101820001F93CF93DF93EC018B016F5F7F4F888114
:1018300099810E94EB0E009751F0998388831B8356
:101840000A8381E0DF91CF911F910F91089580E08D
:10185000F9CFCF93DF93EC0188819981892B49F0EF
:101860008A819B818617970720F081E0DF91CF91D5
:101870000895CE010E940F0C8823C1F38C819D81B5
:10188000892B99F7E881F9811082EFCFEF92FF92CF
:101890000F931F93CF93DF93EC017B018A01BA0171
:1018A0000E94290C81110BC0CE010E94FD0BCE01BC
:1018B000DF91CF911F910F91FF90EF9008951D83BD
:1018C0000C83B701888199810E94B10FF0CFFC0190
:1018D00011821082138212821582148261157105A1
:1018E00051F0FB0101900020E9F73197AF01461B51
:1018F000570B0C94460C08951F920F920FB60F923F
:1019000011242F933F938F939F93AF93BF93809115
:10191000BD029091BE02A091BF02B091C002309171
:10192000BC0223E0230F2D3758F50196A11DB11DF0
:101930002093BC028093BD029093BE02A093BF028D
:10194000B093C0028091C1029091C202A091C302E3
:10195000B091C4020196A11DB11D8093C102909364
:10196000C202A093C302B093C402BF91AF919F91F2
:101970008F913F912F910F900FBE0F901F90189550
:1019800026E8230F0296A11DB11DD2CF82508D30C3
:1019900008F03EC0E82FF0E0E053F34F0C94AC0D9C
:1019A000050D090DDD0CE30C080D080DE70CED0C21
:1019B000F10CF70C080DFB0C010D809180008F7766
:1019C000809380000895809180008F7DF9CF809171
:1019D000B0008F778093B00008958091B0008F7D24
:1019E000F9CF809190008F77809390000895809137
:1019F00090008F7DF9CF8091A0008F778093A00019
:101A000008958091A0008F7DF9CF84B58F7784BD34
:101A1000089584B58F7DFBCFCF93DF9390E0FC01D9
:101A2000E15AFE4F249186589E4FFC0184918823F1
:101A3000C9F090E0880F991FFC01E355FE4FA59176
:101A4000B491FC01EF55FE4FC591D49161110DC0C9
:101A50009FB7F8948C91209582238C9388812823BA
:101A600028839FBFDF91CF910895623051F49FB7D3
:101A7000F8943C91822F809583238C93E8812E2BC0
:101A8000EFCF8FB7F894EC912E2B2C938FBFEACF2A
:101A90001F93CF93DF93282F30E0F901EC5BFE4FCB
:101AA0008491F901E15AFE4FD491F901E658FE4FB5
:101AB000C491CC23A9F0162F81110E94C60CEC2FE3
:101AC000F0E0EE0FFF1FEF55FE4FA591B4918FB7D9
:101AD000F894EC91111108C0D095DE23DC938FBFF0
:101AE000DF91CF911F910895DE2BF8CF97FB072E42
:101AF00016F4009407D077FD09D00E94B20D07FCC0
:101B000005D03EF4909581959F4F0895709561950D
:101B10007F4F0895A1E21A2EAA1BBB1BFD010DC029
:101B2000AA1FBB1FEE1FFF1FA217B307E407F5078D
:101B300020F0A21BB30BE40BF50B661F771F881F69
:101B4000991F1A9469F760957095809590959B01FF
:101B5000AC01BD01CF010895EE0FFF1F0590F49178
:101B6000E02D0994AA1BBB1B51E107C0AA1FBB1F94
:101B7000A617B70710F0A61BB70B881F991F5A9519
:101B8000A9F780959095BC01CD0108950F931F93FF
:101B9000CF93DF938230910510F482E090E0E091E2
:101BA000C702F091C80230E020E0B0E0A0E030973A
:101BB00099F42115310509F44AC0281B390B24304A
:101BC0003105D8F58A819B816115710589F1FB0189
:101BD00093838283FE0111C0408151810281138170
:101BE00048175907E0F04817590799F4109761F022
:101BF00012960C93129713961C933296CF01DF9195
:101C0000CF911F910F9108950093C7021093C802BE
:101C1000F4CF2115310551F04217530738F0A901CF
:101C2000DB019A01BD01DF01F801C1CFEF01F9CF5E
:101C30009093C8028093C702CDCFFE01E20FF31F3D
:101C4000819391932250310939832883D7CF2091F2
:101C5000C5023091C602232B41F42091020130913C
:101C600003013093C6022093C502209100013091F8
:101C700001012115310541F42DB73EB74091040112
:101C800050910501241B350BE091C502F091C6026D
:101C9000E217F307A0F42E1B3F0B2817390778F043
:101CA000AC014E5F5F4F2417350748F04E0F5F1FA2
:101CB0005093C6024093C502819391939FCFF0E069
:101CC000E0E09CCFCF93DF930097E9F0FC013297DF
:101CD00013821282A091C702B091C802ED0130E0D8
:101CE00020E01097A1F420813181820F931F209171
:101CF000C5023091C6022817390709F061C0F09378
:101D0000C602E093C502DF91CF910895EA01CE1794
:101D1000DF07E8F54A815B819E0141155105B1F766
:101D2000E901FB83EA8349915991C40FD51FEC1750
:101D3000FD0761F4808191810296840F951FE9016E
:101D400099838883828193819B838A83F0E0E0E09A
:101D500012968D919C9113970097B9F52D913C9116
:101D60001197CD010296820F931F2091C5023091E9
:101D7000C6022817390739F6309751F51092C80274
:101D80001092C702B093C602A093C502BCCFD38302
:101D9000C28340815181840F951FC817D90761F410
:101DA0004E5F5F4F88819981480F591F518340834F
:101DB0008A819B81938382832115310509F0B0CFFD
:101DC000F093C802E093C7029ECFFD01DC01C0CFB3
:101DD00013821282D7CFB0E0A0E0E1EFFEE00C94D6
:101DE000BA0F8C01009751F4CB010E94C60D8C01F3
:101DF000C801CDB7DEB7E0E10C94D60FFC01E60FC9
:101E0000F71F9C0122503109E217F30708F49DC027
:101E1000D901CD91DC911197C617D70798F0C5303D
:101E2000D10530F3CE0104978617970708F3C61B38
:101E3000D70B2297C193D1936D937C93CF010E94CE
:101E4000620ED6CF5B01AC1ABD0A4C018C0E9D1EF2
:101E5000A091C702B091C802512C412CF12CE12C69
:101E6000109731F58091C5029091C60288159905A9
:101E700009F05CC04616570608F058C08091000172
:101E800090910101009741F48DB79EB740910401F4
:101E900050910501841B950BE817F90708F055C010
:101EA000F093C602E093C502F90171836083A0CF6D
:101EB0008D919C91119712966C90129713967C902D
:101EC0001397A815B90559F56C0142E0C40ED11C51
:101ED000CA14DB0420F1AC014A195B09DA0112963D
:101EE000159780F06282738251834083D9016D938C
:101EF0007C93E114F10471F0D7011396FC93EE93F7
:101F0000129776CF22968C0F9D1FF90191838083C3
:101F1000F301EFCFF093C802E093C70269CF4816F0
:101F2000590608F42C017D01D3019ACFCB010E9400
:101F3000C60D7C01009749F0AE01B8010E94A80FC0
:101F4000C8010E94620E870153CF10E000E050CF1D
:101F5000FB01DC0102C001900D9241505040D8F7C6
:101F60000895FB01DC0101900D920020E1F7089536
:101F70002F923F924F925F926F927F928F929F9299
:101F8000AF92BF92CF92DF92EF92FF920F931F9387
:101F9000CF93DF93CDB7DEB7CA1BDB0B0FB6F89438
:101FA000DEBF0FBECDBF09942A88398848885F8478
:101FB0006E847D848C849B84AA84B984C884DF80E9
:101FC000EE80FD800C811B81AA81B981CE0FD11DCD
:101FD0000FB6F894DEBF0FBECDBFED01089510E03F
:101FE000C0EED0E004C0FE010E94AC0D2196C23EBE
:081FF000D107C9F7F894FFCFF7
:101FF8000000C90280000101307843300D0A004911
:102008006E697469616C697A6174696F6E00526592
:102018006164790000000000AA07ED0A8607060837
:102028001F088907070800000000C909ED0A790997
:08203800A9094B0965095709CC
:00000001FF
