:100000000C94EA000C94740C0C949B0C0C94C30A92
:100010000C94C30A0C94C30A0C9412010C948D0521
:100020000C9412010C9412010C945E060C941201B3
:100030000C9412010C941B060C94D7050C9412011D
:100040000C94C20C0C9412010C94370F0C94690F91
:100050000C9412010C9412010C9412010C941201D4
:100060000C9412010C9412010C9412010C94C30A0A
:100070000C9412010C9412010C9412010C941201B4
:100080000C9412010C9412010C9412010C941201A4
:100090000C9412010C9412010C9412010C94120194
:1000A0000C9412010C9412010C9412010C94120184
:1000B0000C941201312E316100000D0A004175646B
:1000C0006920436F6E636572742049204D756C74AE
:1000D000696D6564696120616E642050686F6E654A
:1000E0002047617465776179205665722E00524908
:1000F0004E470D0A0050524556494F55530D0A00C0
:100100004E4558540D0A005343414E0D0A00504CC1
:1001100041590D0A0052414E444F4D0D0A00000056
:1001200000415558206D6F64650D0A0055534220FB
:100130006469736B206D6F64650D0A00426C7565B0
:10014000746F6F7468206D6F64650D0A00000000A5
:10015000000000000A0D0E0900030200000405085B
:10016000000000000000000000000000000000018E
:10017000020408102040800102040810200102043B
:100180000810204080400102040804040404040410
:100190000404020202020202030303030303020235
:1001A0000305050505000000002300260029002C9A
:1001B0000000000000250028002B002E0000000099
:1001C00000240027002A002D00005C01AE028F0FE2
:1001D0006801C10211241FBECFEFD8E0DEBFCDBF42
:1001E00012E0A0E0B1E0E0E6F8E202C005900D9276
:1001F000AC30B107D9F723E0ACE0B2E001C01D920A
:10020000A939B207E1F710E0C8EED0E004C02197A9
:10021000FE010E94D711C53ED107C9F70E946203B3
:100220000C9423140C9400006EE071E088EF92E0CF
:100230000E941C1081E080931802089543E050E072
:1002400064E171E080E00C94540C809118028823E2
:1002500071F06BE271E088EF92E00E941C100E9446
:10026000BB01833069F40E94BE01109218020E9403
:10027000BB018330B9F461E0809106010C94EC0D70
:100280000E94BB01823019F40E94DC01EECF0E9473
:10029000BB018430C9F30E94BB01813031F70E9459
:1002A000FA01E3CF0E94BB01823029F30E94BB0117
:1002B000843009F360E0E0CF6EE371E082E192E028
:1002C0000E94A21068E371E08CE092E00C94A2100E
:1002D0008CE092E00E94331082E192E00C943310A3
:1002E000BC0186E292E00C940A10CF93DF9300D019
:1002F00000D000D0CDB7DEB740E855E260E070E056
:1003000086E292E00E94C10B62E370E080E090E040
:100310000E94310D6FE371E0CE0101960E94A210A0
:10032000CE0101960E947001CE0101960E94331009
:1003300062E370E080E090E00E94310D6AE471E0D9
:10034000CE0101960E94A210CE0101960E9470017A
:10035000CE0101960E94331062E370E080E090E0ED
:100360000E94310D26960FB6F894DEBF0FBECDBFAA
:10037000DF91CF910895809107010895CF93DF9386
:1003800000D000D000D0CDB7DEB768E571E0CE0177
:1003900001960E94A210CE0101960E947001CE012A
:1003A00001960E94331026960FB6F894DEBF0FBE5A
:1003B000CDBFDF91CF910895CF93DF9300D000D0D0
:1003C00000D0CDB7DEB760E671E0CE0101960E94A5
:1003D000A210CE0101960E947001CE0101960E94EA
:1003E000331026960FB6F894DEBF0FBECDBFDF9157
:1003F000CF910895CF93DF9300D000D000D0CDB738
:10040000DEB768E671E0CE0101960E94A210CE012F
:1004100001960E947001CE0101960E94331026962B
:100420000FB6F894DEBF0FBECDBFDF91CF91089518
:10043000CF93DF9300D000D000D0CDB7DEB760E718
:1004400071E0CE0101960E94A210CE0101960E9499
:100450007001CE0101960E94331026960FB6F894D3
:10046000DEBF0FBECDBFDF91CF910895CF93DF9355
:1004700000D000D000D0CDB7DEB769E771E0CE0183
:1004800001960E94A210CE0101960E947001CE0139
:1004900001960E94331026960FB6F894DEBF0FBE69
:1004A000CDBFDF91CF910895CF93DF9300D000D0DF
:1004B00000D0CDB7DEB762E871E0CE0101960E94B0
:1004C000A210CE0101960E947001CE0101960E94F9
:1004D000331026960FB6F894DEBF0FBECDBFDF9166
:1004E000CF910895CF93DF9300D000D000D0CDB747
:1004F000DEB76BE871E0CE0101960E94A210CE013A
:1005000001960E947001CE0101960E94331026963A
:100510000FB6F894DEBF0FBECDBFDF91CF91089527
:10052000CF93DF9300D000D000D0CDB7DEB764E921
:1005300071E0CE0101960E94A210CE0101960E94A8
:100540007001CE0101960E94331026960FB6F894E2
:10055000DEBF0FBECDBFDF91CF91089520E044E014
:1005600063E086E292E00E94960B6EE371E080E227
:1005700092E00E94A2106EE371E08AE192E00C9496
:10058000A2108AE192E00E94331080E292E00E9481
:10059000331086E292E00C943B0B0F931F93CF93A2
:1005A000DF9300D000D000D0CDB7DEB70E94C909DC
:1005B000813081F46EE971E0CE0101960E94A210B3
:1005C000CE0101960E947001CE0101960E94331067
:1005D0000E94D00986E292E00E946C0A1816190661
:1005E000B4F401E086E292E00E946C0A892B79F073
:1005F00086E292E00E94D609182F682F80E292E0EE
:100600000E9413111A3071F700931902EBCF8091F9
:100610001902882309F44BC06AE172E080E292E09B
:100620000E945311811143C066EA71E080E292E0BA
:100630000E946411882319F082E0809307016BEA1D
:1006400071E080E292E00E946411882319F084E056
:100650008093070160EB71E080E292E00E946411F8
:10066000882319F083E08093070165EB71E080E255
:1006700092E00E946411882319F081E080930701C1
:100680006AEB71E080E292E00E94641181111092A5
:10069000070160E272E08AE192E00E94C1101092CC
:1006A00019026EE371E080E292E00E94D810269673
:1006B0000FB6F894DEBF0FBECDBFDF91CF911F9173
:1006C0000F91089526E040E855E260E070E088EF81
:1006D00092E00E94DF0E0E9411050E941E010E94FE
:1006E00075010E94CD020E9403070E942501F9CFE7
:1006F0008091A50290919602891789F0E82FF0E089
:10070000EB5AFD4F90819093A4028F5F883121F0C6
:100710008093A50281E008951092A502FBCF80E0AE
:10072000089581E080939F0282E08093950281ED9D
:100730008093920288EE80939402089520918E0215
:10074000E22FF0E0EE0FFF1FE359FD4F918380830E
:100750002F5F2C3019F020938E02089510928E0294
:100760000895CF93C82F8695869586958E7190E0D3
:1007700087549F4F0E949E03CC0FCE718C2F90E028
:1007800087549F4FCF910C949E038091A602809333
:10079000A5020E947803813021F48091A4020E9476
:1007A000B1030E947803813021F48091A4020E9459
:1007B000B1030E947803813021F48091A4020E9449
:1007C000B1030E947803813021F48091A4020E9439
:1007D000B1038AEB90E00E949E038091A502809372
:1007E000A60208958CEE809390021092A8021092B7
:1007F000A902089590914B02E92FF0E0EB57FD4FCD
:1008000080839F5F983019F090934B020895109267
:100810004B028091B10084608093B100089589E912
:100820000E94FA0389E90E94FA0389E50E94FA030B
:1008300089E40C94FA03809109010E94FA038091E3
:1008400008010E94FA038091A9020E94FA03809194
:10085000A8020E94FA038091A102813041F480E253
:100860009091A002913009F480610C94FA0380E029
:10087000F7CF90919302911102C00C94FA039F5FFD
:10088000909393028062F9CF83EC0E9439048091A7
:1008900094028F5F80939402811109C081E080935C
:1008A0009F0285E08093950286EF809394020895DD
:1008B0008CEE809390028BE80E9439040E941B0406
:1008C00080E70E94FA0383E80C9439048091920235
:1008D0000E94FA0380919202863D51F481ED80934B
:1008E00092020E940F0480E00E94FA030C944404D8
:1008F0008F5FF5CF83EC0E943904809194028F5F63
:1009000080939402811106C081E080939F0289E068
:10091000809395020895809109018F70806D0E94E7
:10092000FA030E940F0480E00E94FA030C947A04F8
:10093000E0919502EB3008F073C0F0E0EE55FB4F0C
:100940000C94D711C404BB04C604D604CF04D80445
:10095000E804E104EA040605AD048CEE80939002FD
:100960008BE40E9439040E941B0480E20E94FA0377
:1009700083E40C943904809194028F5F80939402F5
:10098000811102C00E9491030C9458048CEE809354
:1009900090028BEC0E9439048091940280FF0C94A9
:1009A00066040E941B0480E10E94FA030C94440434
:1009B0008CEE809390028BEC0E943904809194021B
:1009C00080FF0C948B040E941B0481E50E94FA03B3
:1009D0000C947A048CEE809390028BEC0E94390484
:1009E0000E941B0481E50E94FA0383EC0E943904F3
:1009F000809194028F5F80939402882389F081E034
:100A000080939F0289E08093950208958BEC0E9469
:100A100039040E941B0480E30E94FA0383ECA9CFEF
:100A20000895CF93DF936FEB71E088EF92E00E941F
:100A30001C10F894CEE6D0E01882259A239A2098CC
:100A4000289A10928000E1E8F0E080E880838081BD
:100A500082608083B59AEFE6F0E0808180628083D7
:100A60008FEA8093B30082E08093B00084E08093AB
:100A7000B100E0E7F0E0808182608083109296020E
:100A80001092A60288EF8093980210928E02109224
:100A90008D021092A2021092A1021092A002109256
:100AA0009F0210929C0210929B021092930281E48A
:100AB0008093090181E08093080186EF8093910281
:100AC0000E94F20310929F02109295028DEB90E02B
:100AD0000E949E0384EB90E00E949E038AEB90E0CC
:100AE0000E949E038EEE90E00E949E038CE987BDDB
:100AF00014BC84B5826084BD85B5856085BD888160
:100B0000826088830E94980478946EEC71E088EF8C
:100B100092E0DF91CF910C941C101F920F920FB6B0
:100B20000F9211242F938F939F93EF93FF938091B4
:100B3000B1008B7F8093B100E0914C02E830A0F5CA
:100B4000F0E0EB57FD4F908188EF8093AA0225E0FB
:100B50008091AA028823A1F02D9A822F8A95F1F71D
:100B600097FD0CC02B9A990F2D98822F8A95F1F73B
:100B70008091AA028F5F8093AA02EACF2B98F3CFCD
:100B800080914C028F5F80934C028091B100846011
:100B90008093B100FF91EF919F918F912F910F90D2
:100BA0000FBE0F901F90189510924C02F3CF1F921A
:100BB0000F920FB60F9211248F939F93809154023E
:100BC0008F5F80935402909152029F5F90935202E4
:100BD000909150029F5F9093500290914E029F5FC0
:100BE00090934E02853029F41092540281E0809354
:100BF0005302809152028A3029F41092520281E00D
:100C00008093510280915002823329F41092500255
:100C100081E080934F0280914E02893129F4109235
:100C20004E0281E080934D029F918F910F900FBEF5
:100C30000F901F9018951F920F920FB60F921124CC
:100C40002F938F939F93EF93FF9380916F008E7FED
:100C500080936F001092A20290919802993F0CF13C
:100C600081E080939B0280919602E82FF0E0EB5A9E
:100C7000FD4F992329F02081220F20839F5FF9CF18
:100C800098EF909398028F5F8831A9F08093960235
:100C9000909196028091A602981303C081E0809300
:100CA0009C02FF91EF919F918F912F910F900FBE1A
:100CB0000F901F90189510929602EACF1F920F92F4
:100CC0000FB60F9211242F933F934F938F939F93BF
:100CD000EF93FF93809186009091870090939A0202
:100CE000809399021092850010928400189918C080
:100CF000B09A80916F00816080936F008091810035
:100D0000806480938100B59AFF91EF919F918F91BC
:100D10004F913F912F910F900FBE0F901F901895FC
:100D200081E08093A202909181009F7B909381004B
:100D3000B59A90916F0090FFE7CF8093A2029091B7
:100D40006F009E7F90936F002091990230919A02DC
:100D5000213049E1340758F190EE90939702909139
:100D60009802993F8CF280939B0280919602E82F23
:100D7000F0E0EB5AFD4F992329F02081220F2083C8
:100D80009F5FF9CF98EF909398028F5F883161F061
:100D900080939602909196028091A6029813B4CF08
:100DA00081E080939C02B0CF10929602F3CF213065
:100DB00082E0380708F4A8CF90919602E92FF0E07E
:100DC000EB5AFD4F8081880F213C394088F48083A5
:100DD000809197028F5F80939702811102C01092D9
:100DE000A202809198028F5F29F0809398028CCFA5
:100DF0008160EDCF88EF809398029F5F9831A1F2D8
:100E000090939602C7CFCF93DF9300D000D000D04D
:100E1000CDB7DEB780915302813081F41092530236
:100E20000E94980480918F028F5F89F180938F02D6
:100E3000809190028F5FB1F18093900280919C022B
:100E4000813031F410929C0282E591E00E949E0371
:100E500080919B02813031F410929B0283E591E0F6
:100E60000E949E038091A6028093A5020E947803AF
:100E7000882309F48EC08091A402833509F448C008
:100E80000E94B1038091A5028093A602EFCF8CE966
:100E900080938F021092A0028091A7028F7E809390
:100EA000A702C6CF8CEE80939002809191028F5F53
:100EB00029F1809391028091A80291E0980F292F47
:100EC0002F702A30E9F09093A8028091A802803612
:100ED00009F0B4CF1092A8028091A90291E0980F76
:100EE000292F2F702A3081F09093A9028091A902B6
:100EF000803A09F0A3CF1092A902A0CF86EFD9CFF4
:100F0000895F8093A802E1CF895F8093A902EECF29
:100F10000E9478038823E9F18091A4028C3221F0A9
:100F200083E50E94B103A7CF0E947803882389F14B
:100F30008091A4028093A3020E947803882349F140
:100F40008091A3022091A402280F3327331F2F3F43
:100F5000310509F010C2982F937009F00CC29CEF74
:100F6000909393029091A5029093A602883509F47C
:100F70002BC108F07FC0843109F403C138F58830F3
:100F800009F402C198F4813009F411C1833009F4E5
:100F900047C190918D0220918E02892F821709F40A
:100FA000EDC18F5F90E08C30C9F7F7CF8C3009F43A
:100FB00060C1803171F710929F021092950281E515
:100FC00091E00E949E030E943602E3CF803309F431
:100FD000C5C130F5883109F4F7C08C32D1F681E013
:100FE00080939E0285E4809309018091450280935D
:100FF0004702809348028093490280934A0280917D
:1010000046028F5F80934602863011F410924602AA
:1010100080914602882309F4BCCF8FE191E0D1C0D2
:10102000883309F4E3C08C3409F0B3CF81E08093B6
:101030009E0283E4809309018091450280934602D9
:10104000809347028093490280934A02809148022C
:101050008F5F80934802863011F41092480280918D
:101060004802882321F081E291E00E949E036EED08
:1010700071E046C1883A09F4D9C008F043C0883706
:1010800009F4D4C060F5803609F46FC0883609F0E1
:1010900080CF80919F02813031F488E08093950267
:1010A00084EF809394020E94F2038091080191E002
:1010B000980F909308019F709A3019F4895F80937C
:1010C000080180910801803A19F481E080930801B9
:1010D00080E091E00E949E030E9454025ACF8C3817
:1010E00009F4EBC0803A09F054CF8CE980938F0269
:1010F0008091A002811197C081E08093A00287E0D7
:1011000091E05FC0883D09F471C038F58C3A09F46C
:1011100004C18C3C09F03DCF81E080939E0284E4C1
:101120008093090180914502809346028093480292
:101130008093490280934A02809147028F5F809397
:101140004702863011F410924702809147028823AB
:1011500009F41FCF80E291E034C0843EA9F0883FBB
:1011600009F497CF803E09F014CF81E080939D026F
:101170009091A102911151C08093A10285E191E06B
:1011800020C01092930205CF1092A10280919F027D
:10119000811102C00E94910380919D02811104C0BF
:1011A00080E591E00E949E030E941802F2CE809199
:1011B0009F02813011F40E9491030E94F2038FE498
:1011C00091E00E949E03E5CE0E94F2038EE491E03E
:1011D0000E949E03809109018150809309018F70C4
:1011E00009F0D7CE86E480930901D3CE0E94F203A2
:1011F00080919E0281110EC08DE491E00E949E03B9
:10120000809109018F5F80930901873408F4C1CE72
:1012100081E4E9CF10929E02BCCE1092A102AECF23
:101220008EE091E0CECF1092A00269CF80919F0214
:10123000813031F488E08093950284EF80939402AA
:101240000E94F20380910801982F9F7019F4865034
:101250008093080180910801815049F08093080132
:1012600085EF90E00E949E030E94720292CE89E96F
:10127000F5CF81E080939E0281E480930901809103
:1012800045028093460280934702809348028093F0
:10129000490280914A028F5F80934A02863011F49E
:1012A00010924A0280914A02882321F08CE391E057
:1012B0000E949E030E9490026CCE81E080939E0269
:1012C00082E48093090180914502809346028093D5
:1012D0004702809348028093490280914A028F5FBF
:1012E00080934A02863011F410924A0280914A0299
:1012F000882321F08CE291E00E949E0364ED71E06E
:10130000CE0101960E94A210CE0101960E947001AA
:10131000CE0101960E9433103CCE81E080939E0264
:1013200086E480930901809146028093470280936E
:1013300048028093490280934A02809145028F5F60
:1013400080934502863011F4109246028091460245
:10135000882309F41ECE8EE191E033CF80919F0265
:10136000813031F410929F028AE08093950211CE71
:101370000E9491030ECE0E94C5030BCE80938D0276
:1013800026960FB6F894DEBF0FBECDBFDF91CF918A
:10139000089590914F0281E0913009F080E0089526
:1013A00010924F02089590E080E008952091ED02A0
:1013B0003091EE0228173907B9F49091AB02809171
:1013C000AC02981789F0E091AB02F0E0E355FD4FD5
:1013D00080812091AB0230E02F5F3F4F2F73332786
:1013E0002093AB0290E008958FEF9FEF0895EF9266
:1013F000FF920F931F93CF93DF93DC015C96ED90E8
:10140000FC905D97E114F10479F481E090E013968B
:101410009C938E93129790E080E0DF91CF911F9183
:101420000F91FF90EF9008955196ED91FC91529796
:1014300050968C915097982F90950FB75E962C915F
:101440005E97122F127021FD6095F8942081112370
:1014500019F1282B2083E7012197F1F728E0462F87
:1014600050E0308160FF1AC0382B3083E7012197AC
:10147000F1F7BA0175956795215089F7112381F02D
:101480008081892380830FBF5C968D919C91019709
:10149000F1F781E090E0C1CF2923DCCF3923E5CFFC
:1014A0009081892BEFCF08952091ED023091EE02CB
:1014B0002817390771F49091AB028091AC0298170C
:1014C00041F0E091AB02F0E0E355FD4F808190E008
:1014D00008958FEF9FEF08952091ED023091EE0275
:1014E0002817390771F48091AC022091AB0290E08B
:1014F000805C9F4F821B910960E470E00E94821122
:10150000089590E080E00895E091ED02F091EE0200
:10151000E817F90769F4A389B4899C9185898095B6
:1015200089238C931092EE021092ED0281E00895CF
:1015300080E00895CF93DF93EC018A8D9B8D892BFA
:1015400001F18091ED029091EE028C179D07C9F098
:10155000009711F00E94840A8E8D8E7F8E8F1092DC
:10156000AC021092AB02D093EE02C093ED02EB8975
:10157000FC8980819D89892B808381E0DF91CF91D7
:10158000089580E0FBCF1F920F920FB60F921124A7
:101590002F933F934F935F936F937F938F939F937B
:1015A000AF93BF93EF93FF93E091ED02F091EE02C2
:1015B000309749F0A685B7858585968D91FF14C033
:1015C0009C918923A1F4FF91EF91BF91AF919F91DD
:1015D0008F917F916F915F914F913F912F910F90DC
:1015E0000FBE0F901F9018959C91892361F7A389D6
:1015F000B4899C918589809589238C938689978964
:101600000197F1F7608D718DA685B785558538E016
:1016100020E0CB010197F1F7822F90E09595879517
:10162000282F4C91452309F02068315091F7868D81
:1016300081FD20958091AC0290E001968F739927EF
:101640003091AB02381799F0A091AC02B0E0A355ED
:10165000BD4F2C938093AC02828D938D0197F1F74F
:10166000A389B4898C919589892B8C93ACCF868D75
:101670008160868FF1CF2CEE31E0FC013183208335
:101680000C94840A1F93CF93DF93EC01162F6E8D79
:101690006695617081E06827812F0E94EC0D61E002
:1016A000812F0E94B00D812F110F990BFC01E15980
:1016B000FE4FE491E88BFC01E657FE4FE491F0E029
:1016C000EE0FFF1FEF54FE4F859194919A8B898BFB
:1016D000DF91CF911F9108951F93CF93DF93EC017A
:1016E000162F60E0812F0E94B00D8E8D81FD04C009
:1016F00061E0812F0E94EC0D1C87812F110F990B47
:10170000FC01E159FE4FE491ED87FC01E657FE4FE5
:10171000E491F0E0EE0FFF1FEB55FE4F85919491A1
:101720009F878E87DF91CF911F9108951F93CF934D
:10173000DF93EC01162F1B821A8288EE93E0A0E063
:10174000B0E08C839D83AE83BF838CEE91E0998360
:1017500088831F8A1E8A198E188E1B8E1A8E1D8EE4
:101760001C8E8E8D8E7F20FB81F98E8F642FCE0193
:101770000E94420B612FCE01DF91CF911F910C94FB
:101780006C0BCF93DF93EC019A01AB011B8E1A8E89
:10179000198E188E1F8A1E8A60E079E08DE390E032
:1017A0000E94B811F901C90103972430310510F4E2
:1017B00081E090E09D8F8C8F6C856B3108F061C06B
:1017C000C901969587958431910558F143979F8B70
:1017D0008E8BC9010597369710F481E090E0998FC0
:1017E000888FC901880F991F280F391F36952795B3
:1017F000369527952D303105B8F02C5031093B8FA7
:101800002A8F9091680084E0683094F06E307CF00C
:101810008CEE860F823058F082E067314CF088E021
:1018200007C081E090E0D3CF21E030E0E8CF81E055
:10183000892B809368009C852DE630E098309CF0E1
:101840009E307CF08CEE890F823058F02CE630E030
:1018500097314CF023E730E09B312CF030E020E072
:1018600002C02BE630E03C8B2B8B98307CF481E07F
:1018700001C0880F9A95EAF78D8B8C8D9D8D01970D
:10188000F1F7CE01DF91CF910C949A0A9E3014F4B7
:101890009850EDCF963114F49E50E9CF80E4963104
:1018A00059F39751E4CF08958230E8F4E82FF0E03F
:1018B000EE0FFF1FE65FFE4F71836083813041F0C2
:1018C000809169008C7F482B40936900E89A0895C5
:1018D00080916900837F440F551F440F551F482B8B
:1018E00040936900E99A08951F920F920FB60F92E4
:1018F00011242F933F934F935F936F937F938F9315
:101900009F93AF93BF93EF93FF93E0910A01F09100
:101910000B010995FF91EF91BF91AF919F918F912D
:101920007F916F915F914F913F912F910F900FBEDB
:101930000F901F9018951F920F920FB60F921124BF
:101940002F933F934F935F936F937F938F939F93C7
:10195000AF93BF93EF93FF93E0910C01F0910D01D2
:101960000995FF91EF91BF91AF919F918F917F91D9
:101970006F915F914F913F912F910F900FBE0F90FC
:101980001F9018951F920F920FB60F9211242F934C
:101990003F938F939F93AF93BF938091F002909169
:1019A000F102A091F202B091F3023091EF0223E034
:1019B000230F2D3758F50196A11DB11D2093EF027D
:1019C0008093F0029093F102A093F202B093F3029D
:1019D0008091F4029091F502A091F602B091F70285
:1019E0000196A11DB11D8093F4029093F502A0937E
:1019F000F602B093F702BF91AF919F918F913F9103
:101A00002F910F900FBE0F901F90189526E8230F6F
:101A10000296A11DB11DD2CF3FB7F8948091F40278
:101A20009091F502A091F602B091F70226B5A89B1D
:101A300005C02F3F19F00196A11DB11D3FBFBA2F60
:101A4000A92F982F8827BC01CD01620F711D811D20
:101A5000911D42E0660F771F881F991F4A95D1F7A5
:101A600008958F929F92AF92BF92CF92DF92EF92A2
:101A7000FF926B017C010E940C0D4B015C01C114B3
:101A8000D104E104F104E9F00E9481110E940C0DDF
:101A9000681979098A099B09683E73408105910597
:101AA00070F321E0C21AD108E108F10888EE880E2F
:101AB00083E0981EA11CB11CC114D104E104F104FF
:101AC00029F7FF90EF90DF90CF90BF90AF909F905D
:101AD0008F90089582508D3008F03EC0E82FF0E0DE
:101AE000EC58F24F0C94D711A90DAD0D810D870D57
:101AF000AC0DAC0D8B0D910D950D9B0DAC0D9F0D8F
:101B0000A50D809180008F7780938000089580914B
:101B100080008F7DF9CF8091B0008F778093B000E7
:101B200008958091B0008F7DF9CF809190008F77DC
:101B3000809390000895809190008F7DF9CF8091DF
:101B4000A0008F778093A00008958091A0008F7DE2
:101B5000F9CF84B58F7784BD089584B58F7DFBCF91
:101B6000CF93DF9390E0FC01E159FE4F249186571B
:101B70009E4FFC0184918823C9F090E0880F991F43
:101B8000FC01E354FE4FA591B491FC01EF54FE4FCC
:101B9000C591D49161110DC09FB7F8948C91209597
:101BA00082238C938881282328839FBFDF91CF9144
:101BB0000895623051F49FB7F8943C91822F80953C
:101BC00083238C93E8812E2BEFCF8FB7F894EC9181
:101BD0002E2B2C938FBFEACF1F93CF93DF93282F09
:101BE00030E0F901EC5AFE4F8491F901E159FE4FC2
:101BF000D491F901E657FE4FC491CC23A9F0162FDA
:101C000081110E946A0DEC2FF0E0EE0FFF1FEF54E0
:101C1000FE4FA591B4918FB7F894EC91111108C0C3
:101C2000D095DE23DC938FBFDF91CF911F91089574
:101C3000DE2BF8CFFC01918D228D892F90E0805C06
:101C40009F4F821B91098F7399270895FC01918DF5
:101C5000828D981731F0828DE80FF11D858D90E00F
:101C600008958FEF9FEF0895FC01918D828D981755
:101C700061F0A28DAE0FBF2FB11D5D968C91928D3C
:101C80009F5F9F73928F90E008958FEF9FEF08956D
:101C9000FC01538D448D252F30E0842F90E0821B72
:101CA000930B541710F0CF96089501970895FC01F7
:101CB000A48DA80FB92FB11DA35ABF4F2C91848DAD
:101CC00090E001968F739927848FA689B7892C930A
:101CD000A089B1898C9180648C93938D848D9813A5
:101CE00006C00288F389E02D80818F7D808308956E
:101CF000CF93DF93EC01888D8823B9F0AA89BB8943
:101D0000E889F9898C9185FD03C0808186FD0DC02D
:101D10000FB607FCF7CF8C9185FFF2CF808185FF4E
:101D2000EDCFCE010E94570EE9CFDF91CF910895FC
:101D3000EF92FF920F931F93CF93DF93EC0181E01B
:101D4000888F9B8D8C8D981316C0E889F9898081C6
:101D500085FF11C0EE89FF896083E889F989808158
:101D60008064808381E090E0DF91CF911F910F919B
:101D7000FF90EF900895F62E0B8D10E00F5F1F4F30
:101D80000F731127E02E8C8D8E110CC00FB607FC3F
:101D9000FACFE889F989808185FFF5CFCE010E94CD
:101DA000570EF1CFEB8DEC0FFD2FF11DE35AFF4FD6
:101DB000F0820B8FEA89FB8980818062D2CFCF923B
:101DC000DF92EF92FF921F93CF93DF93EC016A01B2
:101DD0007B01122FE889F98982E08083C11481EEAA
:101DE000D806E104F104A1F060E079E08DE390E031
:101DF000A70196010E94961121503109410951090C
:101E00005695479537952795211580E1380798F025
:101E1000E889F989108260E874E88EE190E0A70112
:101E200096010E9496112150310941095109569598
:101E3000479537952795EC85FD853083EE85FF85A1
:101E40002083188EEC89FD891083EA89FB898081C3
:101E500088698083EA89FB8980818F7D8083DF9117
:101E6000CF911F91FF90EF90DF90CF9008951F9238
:101E70000F920FB60F9211242F938F939F93EF938E
:101E8000FF93E0910803F09109038081E0910E0334
:101E9000F0910F0382FD1BC09081809111038F5F31
:101EA0008F7320911203821741F0E0911103F0E04B
:101EB000E850FD4F958F80931103FF91EF919F9113
:101EC0008F912F910F900FBE0F901F9018958081CA
:101ED000F4CF1F920F920FB60F9211242F933F93BE
:101EE0004F935F936F937F938F939F93AF93BF9322
:101EF000EF93FF9388EF92E00E94570EFF91EF91CE
:101F0000BF91AF919F918F917F916F915F914F9111
:101F10003F912F910F900FBE0F901F901895E8EFF3
:101F2000F2E01382128288EE93E0A0E0B0E08483B6
:101F30009583A683B7838EEF91E09183808385ECB0
:101F400090E09587848784EC90E09787868780EC83
:101F500090E0918B808B81EC90E0938B828B82EC74
:101F600090E0958B848B86EC90E0978B868B118E1E
:101F7000128E138E148E0895AF92BF92CF92DF927D
:101F8000EF92FF920F931F93CF93DF936C017B012E
:101F90008B01040F151FEB015E01AE18BF08C017BF
:101FA000D10759F06991D601ED91FC910190F08132
:101FB000E02DC6010995892B79F7C501DF91CF91F5
:101FC0001F910F91FF90EF90DF90CF90BF90AF9057
:101FD0000895FB0101900020E9F73197AF01461BFE
:101FE000570BDC01ED91FC910280F381E02D099407
:101FF000DB0114964D915C9115976D917C91DC01FC
:10200000ED91FC910280F381E02D09946CE371E085
:102010000C94E90F0F931F93CF93DF93EC010E9471
:10202000F80F8C01CE010E940610800F911FDF91E6
:10203000CF911F910F9108950F931F93CF93DF932B
:102040008C01D0E0C0E06115710519F00E94E90F24
:10205000EC01C8010E9406108C0F9D1FDF91CF91EB
:102060001F910F910895FC01808191810C948D1234
:10207000CF93DF93EC0188819981009711F00E9442
:102080008D12198218821D821C821B821A82DF9196
:10209000CF9108950F931F93CF93DF93EC018B01A2
:1020A0006F5F7F4F888199810E941613009751F0CE
:1020B000998388831B830A8381E0DF91CF911F91ED
:1020C0000F91089580E0F9CFCF93DF93EC018881E1
:1020D0009981892B49F08A819B818617970720F087
:1020E00081E0DF91CF910895CE010E944A108823AC
:1020F000C1F38C819D81892B99F7E881F981108248
:10210000EFCFEF92FF920F931F93CF93DF93EC01EA
:102110007B018A01BA010E94641081110BC0CE01BB
:102120000E943810CE01DF91CF911F910F91FF9047
:10213000EF9008951D830C83B701888199810E94D7
:10214000E513F0CFFC0111821082138212821582F6
:1021500014826115710551F0FB0101900020E9F72F
:102160003197AF01461B570B0C9481100895FB016A
:1021700001900020E9F73197AF01461B570B0C94F3
:102180008110CF93DF93EC01FB018617970749F08D
:10219000608171816115710541F0448155810E9412
:1021A0008110CE01DF91CF9108950E943810F9CFB0
:1021B000CF93DF93EC016115710531F00E94B710E8
:1021C000CE01DF91CF9108950E943810F9CFEF92A0
:1021D000FF920F931F93CF93DF936115710541F425
:1021E00080E0DF91CF911F910F91FF90EF900895C4
:1021F00041155105B1F07B01EC010C811D81040FEB
:10220000151FB8010E946410882351F32881398179
:102210008C819D81B701820F931F0E94E5131D835E
:102220000C8381E0DECFCF93DF9300D0CDB7DEB754
:1022300069831A8241E050E0BE016F5F7F4F0E94C8
:10224000E7100F900F90DF91CF910895CF93DF9318
:10225000EC01A881B981EB01E881F9811097F1F0D7
:102260003097B1F4EC018C819D81892BC9F08C9160
:1022700090E00BC0DB0114968D919C91892B81F02D
:10228000808190E0919581959109DF91CF9108959A
:10229000BF01CD01DF91CF910C94DC13309751F742
:1022A00090E080E0F2CFFC0144815581FB01248164
:1022B00035814217530729F40E94261121E0892B0A
:1022C00009F020E0822F0895FC0124813581232B21
:1022D00031F421E0FB01672B49F4822F08958081BE
:1022E00091816115710539F421E0FC018081882319
:1022F000A1F320E0F2CF0E94DC1321E0892B69F3E7
:10230000F8CF089597FB072E16F4009407D077FDB9
:1023100009D00E94DD1107FC05D03EF4909581950F
:102320009F4F0895709561957F4F0895A1E21A2EF1
:10233000AA1BBB1BFD010DC0AA1FBB1FEE1FFF1F69
:10234000A217B307E407F50720F0A21BB30BE40BB9
:10235000F50B661F771F881F991F1A9469F7609500
:102360007095809590959B01AC01BD01CF010895BA
:10237000052E97FB1EF400940E94CF1157FD07D045
:102380000E94961107FC03D04EF40C94CF11509587
:102390004095309521953F4F4F4F5F4F0895909551
:1023A0008095709561957F4F8F4F9F4F0895EE0FE9
:1023B000FF1F0590F491E02D0994AA1BBB1B51E16E
:1023C00007C0AA1FBB1FA617B70710F0A61BB70BA5
:1023D000881F991F5A95A9F780959095BC01CD014A
:1023E00008950F931F93CF93DF938230910510F4DC
:1023F00082E090E0E0919703F091980330E020E0D4
:10240000B0E0A0E0309799F42115310509F44AC0F5
:10241000281B390B24303105D8F58A819B81611541
:10242000710589F1FB0193838283FE0111C0408114
:1024300051810281138148175907E0F04817590765
:1024400099F4109761F012960C93129713961C93BF
:102450003296CF01DF91CF911F910F910895009394
:10246000970310939803F4CF2115310551F04217CB
:10247000530738F0A901DB019A01BD01DF01F80122
:10248000C1CFEF01F9CF9093980380939703CDCFFD
:10249000FE01E20FF31F819391932250310939839A
:1024A0002883D7CF2091950330919603232B41F4B5
:1024B00020910201309103013093960320939503FC
:1024C00020910001309101012115310541F42DB712
:1024D0003EB74091040150910501241B350BE0915A
:1024E0009503F0919603E217F307A0F42E1B3F0B20
:1024F0002817390778F0AC014E5F5F4F2417350776
:1025000048F04E0F5F1F50939603409395038193BD
:1025100091939FCFF0E0E0E09CCFCF93DF930097C3
:10252000E9F0FC01329713821282A0919703B091D7
:102530009803ED0130E020E01097A1F42081318173
:10254000820F931F20919503309196032817390726
:1025500009F061C0F0939603E0939503DF91CF916A
:102560000895EA01CE17DF07E8F54A815B819E01F5
:1025700041155105B1F7E901FB83EA83499159916E
:10258000C40FD51FEC17FD0761F48081918102967D
:10259000840F951FE90199838883828193819B83AE
:1025A0008A83F0E0E0E012968D919C91139700975A
:1025B000B9F52D913C911197CD010296820F931F91
:1025C00020919503309196032817390739F63097F3
:1025D00051F51092980310929703B0939603A0932D
:1025E0009503BCCFD383C28340815181840F951F53
:1025F000C817D90761F44E5F5F4F88819981480FF2
:10260000591F518340838A819B8193838283211543
:10261000310509F0B0CFF0939803E09397039ECF74
:10262000FD01DC01C0CF13821282D7CFB0E0A0E061
:10263000ECE1F3E10C94EE138C01009751F4CB0123
:102640000E94F1118C01C801CDB7DEB7E0E10C9416
:102650000A14FC01E60FF71F9C0122503109E21712
:10266000F30708F49DC0D901CD91DC911197C617ED
:10267000D70798F0C530D10530F3CE0104978617FF
:10268000970708F3C61BD70B2297C193D1936D937D
:102690007C93CF010E948D12D6CF5B01AC1ABD0A8C
:1026A0004C018C0E9D1EA0919703B0919803512C64
:1026B000412CF12CE12C109731F5809195039091EC
:1026C00096038815990509F05CC04616570608F070
:1026D00058C08091000190910101009741F48DB79D
:1026E0009EB74091040150910501841B950BE8179A
:1026F000F90708F055C0F0939603E0939503F901AC
:1027000071836083A0CF8D919C91119712966C90EC
:10271000129713967C901397A815B90559F56C017B
:1027200042E0C40ED11CCA14DB0420F1AC014A19EA
:102730005B09DA011296159780F0628273825183E9
:102740004083D9016D937C93E114F10471F0D701BA
:102750001396FC93EE93129776CF22968C0F9D1FC3
:10276000F90191838083F301EFCFF0939803E09315
:10277000970369CF4816590608F42C017D01D3014F
:102780009ACFCB010E94F1117C01009749F0AE0174
:10279000B8010E94D313C8010E948D12870153CF44
:1027A00010E000E050CFFB01DC0102C001900D926F
:1027B00041505040D8F70895FB01DC018D91019004
:1027C00080190110D9F3990B0895FB01DC010190E8
:1027D0000D920020E1F708952F923F924F925F9261
:1027E0006F927F928F929F92AF92BF92CF92DF9221
:1027F000EF92FF920F931F93CF93DF93CDB7DEB786
:10280000CA1BDB0B0FB6F894DEBF0FBECDBF099419
:102810002A88398848885F846E847D848C849B8470
:10282000AA84B984C884DF80EE80FD800C811B817E
:10283000AA81B981CE0FD11D0FB6F894DEBF0FBEAD
:10284000CDBFED01089510E0C8EED0E004C0FE0158
:102850000E94D7112196CA3ED107C9F7F894FFCF3D
:1028600000009903800005010101530C000052652E
:102870006365697665642066726F6D207374656543
:1028800072696E6720776865656C0050686F6E6569
:1028900020627574746F6E00307843300D0A004307
:1028A0004F4D2B564F4C430D0A00434F4D2B544F69
:1028B0004E454F46460D0A0042542B43410D0A0037
:1028C00042542B43450D0A0042542B43520D0A003B
:1028D000434F4D2B50410D0A00434F4D2B50550D8A
:1028E0000A00434F4D2B504E0D0A00434F4D2B50C5
:1028F000560D0A00434F4D2B4D42540D0A004154D2
:102900002B4D590D0A004D340D0A004D330D0A00B0
:102910004D320D0A004D310D0A004D300D0A0049AF
:102920006E697469616C697A6174696F6E00526571
:1029300061647900434F4D2B4D55440D0A00434FC0
:102940004D2B4D41580D0A0000000000F709BC0F47
:10295000D309530A6C0AD609540A00000000980EE5
:0C296000BC0F480E780E1A0E340E260E26
:00000001FF
