:100000000C9416010C943E010C943E010C94F808DB
:100010000C94F8080C94F8080C943E010C94050418
:100020000C943E010C943E010C94B6040C943E01D9
:100030000C943E010C9473040C944F040C943E01F8
:100040000C94F8090C943E010C94660C0C94980CDA
:100050000C943E010C943E010C943E010C943E0124
:100060000C943E010C943E010C943E010C94F80853
:100070000C943E010C943E010C943E010C943E0104
:100080000C943E010C943E010C943E010C943E01F4
:100090000C943E010C943E010C943E010C943E01E4
:1000A0000C943E010C943E010C943E010C943E01D4
:1000B0000C943E01312E30610030003100320033AB
:1000C0000034003500360037003800390041004266
:1000D0000043004400450046005F000D0A004175E2
:1000E000646920436F6E636572742049204D756C9E
:1000F00074696D6564696120476174657761792011
:100100005665722E0052494E470D0A005052455610
:10011000494F55530D0A004E4558540D0A0053439C
:10012000414E0D0A00504C41590D0A0052414E44B7
:100130004F4D0D0A004C495354360D0A004C49539B
:1001400054350D0A004C495354340D0A004C4953A0
:1001500054330D0A004C495354320D0A004C495394
:1001600054310D0A004E58545F4C4953540D0A0047
:100170005052565F4C4953540D0A004D494E51554B
:100180004952590D0A004D454E41424C450D0A0059
:100190004D44495341424C450D0A006F76657266E5
:1001A0006C6F770D0A00646174616572720D0A00EC
:1001B0000A0D0E09000302000004050800000000FB
:1001C0000000000000000000000000010204081010
:1001D0002040800102040810200102040810204081
:1001E000804001020408040404040404040402021C
:1001F00002020202030303030303020203050505CF
:1002000005000000002300260029002C000000004B
:1002100000250028002B002E0000000000240027ED
:10022000002A002D0000B201C80CC40111241FBE19
:10023000CFEFD8E0DEBFCDBF11E0A0E0B1E0E2EB50
:10024000F2E202C005900D92AC33B107D9F722E07B
:10025000ACE3B1E001C01D92A43EB207E1F711E0AA
:10026000C5E1D1E004C02197FE010E94090FC3310E
:10027000D107C9F70E94C40E0C944C110C940000D5
:10028000EF92FF921F93CF93DF93EC017B01142F2A
:1002900081E0888393E099838A838B831C828D839A
:1002A00088E08E8318861F821C861B861D866BE362
:1002B00071E0CE010E960E94950E6BE371E0CE01C7
:1002C00044960E94950E6BE371E0CE014A960E941F
:1002D000950E6BE371E0CE0180960E94950EF8A614
:1002E000EFA21EA3DF91CF911F91FF90EF90089591
:1002F000CF93DF93EC018FA198A50E94F609CE0160
:1003000080960E94260ECE014A960E94260ECE01AD
:1003100044960E94260ECE010E96DF91CF910C944A
:10032000260E0F931F93CF93DF93EC018C010E5F8A
:100330001F4F6BE371E0C8010E94950E6BE371E003
:10034000CE0108960E94950E188219826BE371E027
:10035000C8010E94B40E85E08F87DF91CF911F9175
:100360000F91089520E044E063E085E791E00E946A
:10037000CB0942E065E771E08CE491E00E94400126
:100380008CE391E00C94910184E491E00E94260EAC
:100390008EE391E00E94260E8CE491E00E947801A9
:1003A00085E791E00C94700926E040E855E260E0B2
:1003B00070E083E492E00E940E0C68E071E083E458
:1003C00092E00E943C0D0C94940360919C0170910A
:1003D0009D014AE050E083E492E00E94EE0D6091BE
:1003E0009F017091A0014AE050E083E492E00E94F6
:1003F000EE0D0C945B058091F0019091E10189175D
:1004000089F0E82FF0E0E056FE4F90819093EF01E5
:100410008F5F883121F08093F00181E00895109280
:10042000F001FBCF80E0089581E08093EA0182E053
:100430008093E00181ED8093DD0188EE8093DF0100
:1004400008952091D901E22FF0E0EE0FFF1FE8544C
:10045000FE4F918380832F5F2C3019F02093D901B8
:1004600008951092D9010895CF93C82F8695869547
:1004700086958E7190E087549F4F0E942102CC0F89
:10048000CE718C2F90E087549F4FCF910C94210216
:100490008091F1018093F0010E94FB01813021F4F1
:1004A0008091EF010E9434020E94FB01813021F40F
:1004B0008091EF010E9434020E94FB01813021F4FF
:1004C0008091EF010E9434020E94FB01813021F4EF
:1004D0008091EF010E9434028BED90E00E94210296
:1004E0008091F0018093F10108958CEE8093DB01FF
:1004F0001092F3011092F401089590919A01E92F5E
:10050000F0E0E053FE4F80839F5F983019F09093A6
:100510009A01089510929A018091B10084608093AD
:10052000B100089589E90E947D0289E90E947D0257
:1005300089E50E947D0289E40C947D028091070187
:100540000E947D02809106010E947D028091F4014B
:100550000E947D028091F3010E947D028091EC0156
:10056000813041F480E29091EB01913009F4806197
:100570000C947D0280E0F7CF9091DE01911102C0D2
:100580000C947D029F5F9093DE018062F9CF83EC33
:100590000E94BC028091DF018F5F8093DF01811197
:1005A00009C081E08093EA0185E08093E00186EF55
:1005B0008093DF0108958CEE8093DB018BE80E942D
:1005C000BC020E949E0280E70E947D0283E80C9498
:1005D000BC028091DD010E947D028091DD01863D9B
:1005E00051F481ED8093DD010E94920280E00E942F
:1005F0007D020C94C7028F5FF5CF83EC0E94BC0292
:100600008091DF018F5F8093DF01811106C081E05F
:100610008093EA0189E08093E001089580910701C9
:100620008F70806D0E947D020E94920280E00E9485
:100630007D020C94FD02E091E001EB3008F073C004
:10064000F0E0EB5DFC4F0C94090F47033E034903B8
:10065000590352035B036B0364036D038903300387
:100660008CEE8093DB018BE40E94BC020E949E0210
:1006700080E20E947D0283E40C94BC028091DF0141
:100680008F5F8093DF01811102C00E9414020C94DD
:10069000DB028CEE8093DB018BEC0E94BC0280912C
:1006A000DF0180FF0C94E9020E949E0280E10E941B
:1006B0007D020C94C7028CEE8093DB018BEC0E94D0
:1006C000BC028091DF0180FF0C940E030E949E0209
:1006D00081E50E947D020C94FD028CEE8093DB018B
:1006E0008BEC0E94BC020E949E0281E50E947D026A
:1006F00083EC0E94BC028091DF018F5F8093DF0159
:10070000882389F081E08093EA0189E08093E00109
:1007100008958BEC0E94BC020E949E0280E30E941E
:100720007D0283ECA9CF0895CF93DF93F894CEE6B2
:10073000D0E01882259A239A2098289A1092800057
:10074000E1E8F0E080E88083808182608083B59A70
:10075000EFE6F0E08081806280838FEA8093B300CF
:1007600082E08093B00084E08093B100E0E7F0E0A5
:100770008081826080831092E1011092F10188EF04
:100780008093E3011092D9011092D8011092ED01EB
:100790001092EC011092EB011092EA011092E70125
:1007A0001092E6011092DE0181E48093070181E05E
:1007B0008093060186EF8093DC010E9475021092FF
:1007C000EA011092E0018EED90E00E94210284EB9C
:1007D00090E00E9421028BED90E00E94210285E0D2
:1007E00091E00E9421028CE987BD14BC84B582602F
:1007F00084BD85B5856085BD8881826088830E94BF
:100800001B037894DF91CF9108951F920F920FB63A
:100810000F9211242F938F939F93EF93FF938091C7
:10082000B1008B7F8093B100E0919B01E830A0F58F
:10083000F0E0E053FE4F908188EF8093F50125E0D2
:100840008091F5018823A1F02D9A822F8A95F1F7E6
:1008500097FD0CC02B9A990F2D98822F8A95F1F74E
:100860008091F5018F5F8093F501EACF2B98F3CF4C
:1008700080919B018F5F80939B018091B100846088
:100880008093B100FF91EF919F918F912F910F90E5
:100890000FBE0F901F90189510929B01F3CF1F92DF
:1008A0000F920FB60F9211248F939F9380919F0107
:1008B0008F5F853049F080939F019F918F910F90BA
:1008C0000FBE0F901F90189510929F0181E08093AA
:1008D0009E0180919C0190919D01019690939D01B4
:1008E00080939C01EACF1F920F920FB60F921124B2
:1008F0002F938F939F93EF93FF9380916F008E7F41
:1009000080936F001092ED019091E301993F0CF1FB
:1009100081E08093E6018091E101E82FF0E0E0566C
:10092000FE4F992329F02081220F20839F5FF9CF6A
:1009300098EF9093E3018F5F8831A9F08093E101F4
:100940009091E1018091F101981303C081E08093BF
:10095000E701FF91EF919F918F912F910F900FBE23
:100960000F901F9018951092E101EACF1F920F92FD
:100970000FB60F9211242F933F934F938F939F9312
:10098000EF93FF9380918600909187009093E5010B
:100990008093E4011092850010928400189918C089
:1009A000B09A80916F00816080936F008091810088
:1009B000806480938100B59AFF91EF919F918F9110
:1009C0004F913F912F910F900FBE0F901F90189550
:1009D00081E08093ED01909181009F7B9093810055
:1009E000B59A90916F0090FFE7CF8093ED019091C1
:1009F0006F009E7F90936F002091E4013091E5019C
:100A0000213049E1340758F190EE9093E201909142
:100A1000E301993F8CF28093E6018091E101E82F98
:100A2000F0E0E056FE4F992329F02081220F208329
:100A30009F5FF9CF98EF9093E3018F5F883161F06A
:100A40008093E1019091E1018091F1019813B4CF7D
:100A500081E08093E701B0CF1092E101F3CF213024
:100A600082E0380708F4A8CF9091E101E92FF0E087
:100A7000E056FE4F8081880F213C394088F4808306
:100A80008091E2018F5F8093E201811102C0109298
:100A9000ED018091E3018F5F29F08093E3018CCF1A
:100AA0008160EDCF88EF8093E3019F5F9831A1F2E1
:100AB0009093E101C7CF0F931F93CF934AE050E08B
:100AC00060919E0183E492E00E94140E80919E0149
:100AD000813081F410929E010E941B038091DA0103
:100AE0008F5F89F18093DA018091DB018F5FB1F133
:100AF0008093DB018091E701813031F41092E701AE
:100B00008BE991E00E9421028091E601813031F46D
:100B10001092E60186EA91E00E9421028091F101A3
:100B20008093F0010E94FB01882309F48BC180911E
:100B3000EF01833509F456C00E9434028091F00120
:100B40008093F101EFCF8CE98093DA011092EB01F1
:100B50008091F2018F7E8093F201C6CF8CEE80935C
:100B6000DB018091DC018F5F29F18093DC018091B2
:100B7000F30191E0980F292F2F702A3059F19093AB
:100B8000F3018091F301803609F0B4CF1092F301A4
:100B90008091F40191E0980F292F2F702A30F1F005
:100BA0009093F4018091F401803A09F0A3CF109260
:100BB000F401A0CF86EF8093DC018EED90E00E94DF
:100BC000210284EB90E00E9421028BED90E00E94D4
:100BD0002102CDCF895F8093F301D3CF895F8093CA
:100BE000F401E0CF0E94FB01882309F42BC180911E
:100BF000EF018C3221F083E50E94340298CF0E94ED
:100C0000FB01882309F41EC18091EF018093EE015E
:100C10000E94FB01882309F415C18091EE01209107
:100C2000EF01280F3327331F2F3F310509F007C28B
:100C3000982F937009F003C29CEF9093DE0190917E
:100C4000F0019093F101883509F436C108F076C0BF
:100C5000843109F4F5C008F5883009F411C188F42D
:100C6000813009F41EC1833009F452C189ED90E04E
:100C70000E9421028091EE010E9434028BED90E0EF
:100C80000DC18C3009F46BC1803181F71092EA01FB
:100C90001092E00180E991E001C1803309F4C2C102
:100CA00030F5883109F408C18C3201F781E0809376
:100CB000E90185E480930701809194018093960176
:100CC0008093970180939801809399018091950179
:100CD0008F5F80939501863011F410929501809179
:100CE0009501882309F4AEC08DE391E0D7C0883325
:100CF00009F4F4C08C3409F0B9CF81E08093E901A4
:100D000083E48093070180919401809395018093FF
:100D100096018093980180939901809197018F5F4C
:100D200080939701863011F410929701809197017A
:100D3000882309F487C08DE491E0B0C0883A09F4B3
:100D4000EDC008F03FC0883709F4E8C040F58036B0
:100D500009F46AC0883609F089CF8091EA018130B0
:100D600031F488E08093E00184EF8093DF010E94FA
:100D700075028091060191E0980F909306019F7093
:100D80009A3019F4895F8093060180910601803AB8
:100D900019F481E08093060187E191E07FC08C38EF
:100DA00009F4FEC0803A09F061CF8CE98093DA0142
:100DB0008091EB018111AFC081E08093EB018EE166
:100DC00091E06CC0883D09F489C030F58C3A09F493
:100DD00008C18C3C09F04ACF81E08093E90184E4AA
:100DE00080930701809194018093950180939701EE
:100DF0008093980180939901809196018F5F8093F1
:100E00009601863011F41092960180919601882304
:100E1000C9F085E491E042C0843E91F1883F09F435
:100E20009CCF803E09F022CF81E08093E801909131
:100E3000EC0191116AC08093EC018CE291E02EC02C
:100E40001092DE01E091D8018091D901E81709F4F0
:100E500004C1F0E0EE0FFF1FE854FE4F0081118146
:100E6000F801C491CC2309F4EDC06C2F83E492E027
:100E70000E94310DCA3009F4E5C00F5F1F4FF0CF5B
:100E80001092EC018091EA01811102C00E941402CB
:100E90008091E8018111D6CF86E891E00E9421027D
:100EA000D1CF8091EA01813011F40E9414020E9496
:100EB00075028BE791E0F2CF0E94750280E791E026
:100EC0000E942102809107018150809307018F7059
:100ED00009F0B8CF86E480930701B4CF0E94750271
:100EE0008091E90181110EC085E691E00E94210206
:100EF000809107018F5F80930701873408F4A2CFA8
:100F000081E4E9CF1092E9019DCF1092EC0195CFD9
:100F100085E291E0C3CF1092EB0151CF8091EA01BD
:100F2000813031F488E08093E00184EF8093DF0129
:100F30000E94750280910601982F9F7019F48650C7
:100F400080930601809106018150809306018111F2
:100F500003C089E9809306018CE091E09FCF81E096
:100F60008093E90181E4809307018091940180934B
:100F700095018093960180939701809398018091C9
:100F800099018F5F80939901863011F41092990135
:100F900080919901882309F455CF8DE591E07ECFAA
:100FA00081E08093E90182E48093070180919401BC
:100FB0008093950180939601809397018093980187
:100FC000809199018F5F80939901863011F410927E
:100FD000990180919901882309F434CF85E591E046
:100FE0005DCF81E08093E90186E4809307018091E1
:100FF0009501809396018093970180939801809347
:101000009901809194018F5F80939401863011F44F
:101010001092950180919501882309F413CF85E3FF
:1010200091E03CCF8091EA01813031F41092EA01E5
:101030008AE08093E00106CF0E94140203CF0E9451
:10104000480200CF8091D8018F5F8093D8018C3007
:1010500009F0F8CE1092D801F5CECF911F910F91E3
:10106000089590E080E0089520913802309139028F
:1010700028173907B9F49091F6018091F701981774
:1010800089F0E091F601F0E0E850FE4F8081209178
:10109000F60130E02F5F3F4F2F7333272093F60187
:1010A00090E008958FEF9FEF0895EF92FF920F93D6
:1010B0001F93CF93DF93DC015C96ED90FC905D97DE
:1010C000E114F10479F481E090E013969C938E93FF
:1010D000129790E080E0DF91CF911F910F91FF90E8
:1010E000EF9008955196ED91FC91529750968C9106
:1010F0005097982F90950FB75E962C915E97122F70
:10110000127021FD6095F8942081112319F1282B8C
:101110002083E7012197F1F728E0462F50E0308146
:1011200060FF1AC0382B3083E7012197F1F7BA012D
:1011300075956795215089F7112381F08081892366
:1011400080830FBF5C968D919C910197F1F781E0B0
:1011500090E0C1CF2923DCCF3923E5CF9081892BC3
:10116000EFCF0895209138023091390228173907BE
:1011700071F49091F6018091F701981741F0E09198
:10118000F601F0E0E850FE4F808190E008958FEF87
:101190009FEF0895209138023091390228173907BE
:1011A00071F48091F7012091F60190E0805C9F4FEF
:1011B000821B910960E470E00E94D30E089590E0D4
:1011C00080E00895E0913802F0913902E817F907BC
:1011D00069F4A389B4899C918589809589238C932E
:1011E000109239021092380281E0089580E008954B
:1011F0001F920F920FB60F9211242F933F934F938C
:101200005F936F937F938F939F93AF93BF93EF936E
:10121000FF93E0913802F0913902309749F0A685AA
:10122000B7858585968D91FF14C09C918923A1F483
:10123000FF91EF91BF91AF919F918F917F916F91AE
:101240005F914F913F912F910F900FBE0F901F9084
:1012500018959C91892361F7A389B4899C9185890C
:10126000809589238C93868997890197F1F7608D02
:10127000718DA685B785558538E020E0CB010197B3
:10128000F1F7822F90E095958795282F4C91452373
:1012900009F02068315091F7868D81FD209580916D
:1012A000F70190E001968F7399273091F601381776
:1012B00099F0A091F701B0E0A850BE4F2C93809315
:1012C000F701828D938D0197F1F7A389B4898C91F1
:1012D0009589892B8C93ACCF868D8160868FF1CFD9
:1012E00029E131E0FC01318320830C94E2081F9353
:1012F000CF93DF93EC01162F6E8D6695617081E0C0
:101300006827812F0E94000B61E0812F0E94C40A90
:10131000812F110F990BFC01E553FE4FE491E88BEF
:10132000FC01EA51FE4FE491F0E0EE0FFF1FE35F96
:10133000FD4F859194919A8B898BDF91CF911F916D
:1013400008951F93CF93DF93EC01162F60E0812F58
:101350000E94C40A8E8D81FD04C061E0812F0E942D
:10136000000B1C87812F110F990BFC01E553FE4FD9
:10137000E491ED87FC01EA51FE4FE491F0E0EE0FBD
:10138000FF1FEF5FFD4F859194919F878E87DF91BF
:10139000CF911F9108951F93CF93DF93EC01162FE8
:1013A0001B821A8288EE93E0A0E0B0E08C839D83DC
:1013B000AE83BF8389E191E0998388831F8A1E8A67
:1013C000198E188E1B8E1A8E1D8E1C8E8E8D8E7F02
:1013D00020FB81F98E8F642FCE010E947709612F47
:1013E000CE01DF91CF911F910C94A1090C94E208DA
:1013F0001F920F920FB60F9211242F933F938F934A
:101400009F93AF93BF9380913B0290913C02A09138
:101410003D02B0913E0230913A0223E0230F2D3776
:1014200058F50196A11DB11D20933A0280933B020D
:1014300090933C02A0933D02B0933E0280913F0204
:1014400090914002A0914102B09142020196A11DEB
:10145000B11D80933F0290934002A0934102B0934C
:101460004202BF91AF919F918F913F912F910F9029
:101470000FBE0F901F90189526E8230F0296A11D0E
:10148000B11DD2CF789484B5836084BD85B5836067
:1014900085BDEEE6F0E0808181608083E1E8F0E0E8
:1014A00082E08083808181608083E0E8F0E0808159
:1014B00081608083E1EBF0E0808184608083E0EBF9
:1014C000F0E0808181608083E1E9F0E080818360E9
:1014D0008083E0E9F0E0808181608083E1EAF0E0F0
:1014E000808183608083E0EAF0E080818160808396
:1014F00087E880937A001092C100089582508D3061
:1015000008F03EC0E82FF0E0E857F54F0C94090FC3
:10151000BD0AC10A950A9B0AC00AC00A9F0AA50A09
:10152000A90AAF0AC00AB30AB90A809180008F776E
:10153000809380000895809180008F7DF9CF809105
:10154000B0008F778093B00008958091B0008F7DB8
:10155000F9CF809190008F778093900008958091CB
:1015600090008F7DF9CF8091A0008F778093A000AD
:1015700008958091A0008F7DF9CF84B58F7784BDC9
:10158000089584B58F7DFBCFCF93DF9390E0FC016E
:10159000E553FE4F24918A519E4FFC01849188238C
:1015A000C9F090E0880F991FFC01E75EFD4FA591FF
:1015B000B491FC01E35FFD4FC591D49161110DC061
:1015C0009FB7F8948C91209582238C93888128234F
:1015D00028839FBFDF91CF910895623051F49FB768
:1015E000F8943C91822F809583238C93E8812E2B55
:1015F000EFCF8FB7F894EC912E2B2C938FBFEACFBF
:101600001F93CF93DF93282F30E0F901E055FE4F71
:101610008491F901E553FE4FD491F901EA51FE4F4F
:10162000C491CC23A9F0162F81110E947E0AEC2FC1
:10163000F0E0EE0FFF1FE35FFD4FA591B4918FB770
:10164000F894EC91111108C0D095DE23DC938FBF84
:10165000DF91CF911F910895DE2BF8CFFC01918D82
:10166000228D892F90E0805C9F4F821B91098F73A0
:1016700099270895FC01918D828D981731F0828D04
:10168000E80FF11D858D90E008958FEF9FEF08958D
:10169000FC01918D828D981761F0A28DAE0FBF2F46
:1016A000B11D5D968C91928D9F5F9F73928F90E09C
:1016B00008958FEF9FEF0895FC01538D448D252FE2
:1016C00030E0842F90E0821B930B541710F0CF96DC
:1016D0000895019708958EEB9CE0892B49F080E0F6
:1016E00090E0892B29F00E94BE0C81110E9400001D
:1016F00080E090E0892B49F080E090E0892B29F090
:101700000E94000081110C9400000895FC01A48D3A
:10171000A80FB92FB11DA35ABF4F2C91848D90E013
:1017200001968F739927848FA689B7892C93A089F6
:10173000B1898C9180648C93938D848D981306C0AD
:101740000288F389E02D80818F7D80830895CF9377
:10175000DF93EC01888D8823B9F0AA89BB89E889D9
:10176000F9898C9185FD03C0808186FD0DC00FB67F
:1017700007FCF7CF8C9185FFF2CF808185FFEDCFFD
:10178000CE010E94860BE9CFDF91CF910895EF92B1
:10179000FF920F931F93CF93DF93EC0181E0888F2B
:1017A0009B8D8C8D981316C0E889F989808185FFFF
:1017B00011C0EE89FF896083E889F989808180649E
:1017C000808381E090E0DF91CF911F910F91FF9096
:1017D000EF900895F62E0B8D10E00F5F1F4F0F73E3
:1017E0001127E02E8C8D8E110CC00FB607FCFACF9E
:1017F000E889F989808185FFF5CFCE010E94860BAB
:10180000F1CFEB8DEC0FFD2FF11DE35AFF4FF0826E
:101810000B8FEA89FB8980818062D2CFCF92DF92E1
:10182000EF92FF921F93CF93DF93EC016A017B014C
:10183000122FE889F98982E08083C11481EED806ED
:10184000E104F104A1F060E079E08DE390E0A7010C
:1018500096010E94E70E2150310941095109569520
:10186000479537952795211580E1380798F0E88945
:10187000F989108260E874E88EE190E0A701960192
:101880000E94E70E215031094109510956954795AB
:1018900037952795EC85FD853083EE85FF85208380
:1018A000188EEC89FD891083EA89FB89808188691B
:1018B0008083EA89FB8980818F7D8083DF91CF914E
:1018C0001F91FF90EF90DF90CF9008951F920F929D
:1018D0000FB60F9211242F938F939F93EF93FF9343
:1018E000E0915302F09154028081E0915902F0910D
:1018F0005A0282FD1BC0908180915C028F5F8F73C2
:1019000020915D02821741F0E0915C02F0E0ED5B16
:10191000FD4F958F80935C02FF91EF919F918F9186
:101920002F910F900FBE0F901F9018958081F4CFCC
:101930001F920F920FB60F9211242F933F934F9344
:101940005F936F937F938F939F93AF93BF93EF9327
:10195000FF9383E492E00E94860BFF91EF91BF9189
:10196000AF919F918F917F916F915F914F913F9137
:101970002F910F900FBE0F901F90189583E492E067
:101980000E942E0B21E0892B09F420E0822F08957C
:10199000E3E4F2E01382128288EE93E0A0E0B0E08C
:1019A00084839583A683B7838BE291E091838083C0
:1019B00085EC90E09587848784EC90E09787868714
:1019C00080EC90E0918B808B81EC90E0938B828B0C
:1019D00082EC90E0958B848B86EC90E0978B868BE5
:1019E000118E128E138E148E0895AF92BF92CF92E5
:1019F000DF92EF92FF920F931F93CF93DF936C01CF
:101A00007B018B01040F151FEB015E01AE18BF08AF
:101A1000C017D10759F06991D601ED91FC91019061
:101A2000F081E02DC6010995892B79F7C501DF9179
:101A3000CF911F910F91FF90EF90DF90CF90BF90CB
:101A4000AF900895FB0101900020E9F73197AF01B5
:101A5000461B570BDC01ED91FC910280F381E02DD8
:101A60000994DC01ED91FC910190F081E02D099445
:101A700069E371E00C94220D0F931F93CF93DF93D2
:101A80008C01D0E0C0E06115710519F00E94220DB3
:101A9000EC01C8010E94380D8C0F9D1FDF91CF9182
:101AA0001F910F9108958F929F92AF92BF92EF92E4
:101AB000FF920F931F93CF93DF93CDB7DEB7A1971C
:101AC0000FB6F894DEBF0FBECDBF7C01FA01CB018B
:101AD00019A2223008F42AE08E010F5D1F4F822EDA
:101AE000912CB12CA12CBF01A50194010E94E70EFD
:101AF000F901CA016A300CF5605DD8016E938D0161
:101B0000232B242B252B79F790E080E0109721F0F0
:101B1000BD01C7010E94220DA1960FB6F894DEBF49
:101B20000FBECDBFDF91CF911F910F91FF90EF902E
:101B3000BF90AF909F908F900895695CDECFCF9259
:101B4000DF92EF92FF920F931F93CF93DF932115B4
:101B5000310581F4DC01ED91FC910190F081E02DE3
:101B6000642FDF91CF911F910F91FF90EF90DF9045
:101B7000CF9009942A30310501F52AE077FF1DC086
:101B80006A017B01EC016DE20E94310D8C0144275A
:101B90005527BA014C195D096E097F092AE0CE016B
:101BA0000E94530D800F911FDF91CF911F910F91D4
:101BB000FF90EF90DF90CF900895DF91CF911F912C
:101BC0000F91FF90EF90DF90CF900C94530D9A01FE
:101BD000AB01770F660B770B0C949F0D0F931F9340
:101BE000CF93DF93EC010E94E70D8C01CE010E94A0
:101BF000380D800F911FDF91CF911F910F910895A4
:101C00002115310541F4DC01ED91FC910190F08149
:101C1000E02D642F09940C94530D9A01462F50E047
:101C200070E060E00C94000E0F931F93CF93DF934E
:101C3000EC010E940D0E8C01CE010E94380D800F28
:101C4000911FDF91CF911F910F910895FC01808129
:101C500091810C94BF0FCF93DF93EC018881998120
:101C6000009711F00E94BF0F198218821D821C82FA
:101C70001B821A82DF91CF9108950F931F93CF9308
:101C8000DF93EC018B016F5F7F4F888199810E9408
:101C90004810009751F0998388831B830A8381E061
:101CA000DF91CF911F910F91089580E0F9CFCF93ED
:101CB000DF93EC0188819981892B49F08A819B818E
:101CC0008617970720F081E0DF91CF910895CE012C
:101CD0000E943D0E8823C1F38C819D81892B99F749
:101CE000E881F9811082EFCFEF92FF920F931F935B
:101CF000CF93DF93EC017B018A01BA010E94570E5A
:101D000081110BC0CE010E942B0ECE01DF91CF912D
:101D10001F910F91FF90EF9008951D830C83B701E1
:101D2000888199810E940E11F0CFFC0111821082EE
:101D300013821282158214826115710551F0FB0124
:101D400001900020E9F73197AF01461B570B0C9427
:101D5000740E0895FB0101900020E9F73197AF015F
:101D6000461B570B0C94740ECF93DF93EC01611557
:101D7000710531F00E94AA0ECE01DF91CF91089536
:101D80000E942B0EF9CF08950E94420A0E94C30EB2
:101D90000E94D401CBE6DBE00E94E5012097E1F34D
:101DA0000E946B0BF9CF97FB072E16F4009407D017
:101DB00077FD09D00E940F0F07FC05D03EF49095E7
:101DC00081959F4F0895709561957F4F0895A1E289
:101DD0001A2EAA1BBB1BFD010DC0AA1FBB1FEE1FA5
:101DE000FF1FA217B307E407F50720F0A21BB30BF0
:101DF000E40BF50B661F771F881F991F1A9469F76C
:101E000060957095809590959B01AC01BD01CF01C7
:101E10000895EE0FFF1F0590F491E02D0994AA1B81
:101E2000BB1B51E107C0AA1FBB1FA617B70710F0C5
:101E3000A61BB70B881F991F5A95A9F780959095F7
:101E4000BC01CD0108950F931F93CF93DF93823090
:101E5000910510F482E090E0E091E202F091E3025B
:101E600030E020E0B0E0A0E0309799F42115310592
:101E700009F44AC0281B390B24303105D8F58A8172
:101E80009B816115710589F1FB0193838283FE01BA
:101E900011C0408151810281138148175907E0F038
:101EA0004817590799F4109761F012960C931297FE
:101EB00013961C933296CF01DF91CF911F910F9112
:101EC00008950093E2021093E302F4CF2115310547
:101ED00051F04217530738F0A901DB019A01BD0107
:101EE000DF01F801C1CFEF01F9CF9093E3028093B6
:101EF000E202CDCFFE01E20FF31F819391932250B6
:101F0000310939832883D7CF2091E0023091E10253
:101F1000232B41F420910201309103013093E1021F
:101F20002093E0022091000130910101211531053B
:101F300041F42DB73EB74091040150910501241B97
:101F4000350BE091E002F091E102E217F307A0F413
:101F50002E1B3F0B2817390778F0AC014E5F5F4FFF
:101F60002417350748F04E0F5F1F5093E10240934E
:101F7000E002819391939FCFF0E0E0E09CCFCF937C
:101F8000DF930097E9F0FC01329713821282A0914F
:101F9000E202B091E302ED0130E020E01097A1F4FD
:101FA00020813181820F931F2091E0023091E10264
:101FB0002817390709F061C0F093E102E093E002CD
:101FC000DF91CF910895EA01CE17DF07E8F54A8146
:101FD0005B819E0141155105B1F7E901FB83EA835D
:101FE00049915991C40FD51FEC17FD0761F4808109
:101FF00091810296840F951FE901998388838281DC
:1020000093819B838A83F0E0E0E012968D919C910E
:1020100013970097B9F52D913C911197CD01029638
:10202000820F931F2091E0023091E10228173907B7
:1020300039F6309751F51092E3021092E202B09314
:10204000E102A093E002BCCFD383C28340815181DF
:10205000840F951FC817D90761F44E5F5F4F8881C1
:102060009981480F591F518340838A819B819383B3
:1020700082832115310509F0B0CFF093E302E0939C
:10208000E2029ECFFD01DC01C0CF13821282D7CFC6
:10209000B0E0A0E0EEE4F0E10C9417118C010097A1
:1020A00051F4CB010E94230F8C01C801CDB7DEB7DC
:1020B000E0E10C943311FC01E60FF71F9C01225064
:1020C0003109E217F30708F49DC0D901CD91DC91E5
:1020D0001197C617D70798F0C530D10530F3CE0158
:1020E00004978617970708F3C61BD70B2297C1934F
:1020F000D1936D937C93CF010E94BF0FD6CF5B012C
:10210000AC1ABD0A4C018C0E9D1EA091E202B0914A
:10211000E302512C412CF12CE12C109731F58091E8
:10212000E0029091E1028815990509F05CC046161D
:10213000570608F058C08091000190910101009766
:1021400041F48DB79EB74091040150910501841B65
:10215000950BE817F90708F055C0F093E102E093FA
:10216000E002F90171836083A0CF8D919C9111975A
:1021700012966C90129713967C901397A815B90538
:1021800059F56C0142E0C40ED11CCA14DB0420F1E5
:10219000AC014A195B09DA011296159780F0628248
:1021A000738251834083D9016D937C93E114F104D0
:1021B00071F0D7011396FC93EE93129776CF229687
:1021C0008C0F9D1FF90191838083F301EFCFF09372
:1021D000E302E093E20269CF4816590608F42C01A5
:1021E0007D01D3019ACFCB010E94230F7C01009780
:1021F00049F0AE01B8010E940511C8010E94BF0F4D
:10220000870153CF10E000E050CFFB01DC0102C09A
:1022100001900D9241505040D8F70895FB01DC0128
:1022200001900D920020E1F708952F923F924F9276
:102230005F926F927F928F929F92AF92BF92CF9256
:10224000DF92EF92FF920F931F93CF93DF93CDB75F
:10225000DEB7CA1BDB0B0FB6F894DEBF0FBECDBFD7
:1022600009942A88398848885F846E847D848C84A8
:102270009B84AA84B984C884DF80EE80FD800C81B1
:102280001B81AA81B981CE0FD11D0FB6F894DEBF94
:102290000FBECDBFED01089511E0C5E1D1E004C04E
:1022A000FE010E94090F2196C631D107C9F7F894A3
:0222B000FFCF5E
:1022B2000000E4028000010148656C6C6F20776FBA
:1022C200726C642100000000005508F50C3108B161
:1022D20008CA083408B20800000000C70BF50C5CFD
:0C22E2000BA70B2E0B480B3A0B0D0A004B
:00000001FF
