:100000000C94E8000C9410010C9410010C94300F27
:100010000C94300F0C94300F0C9410010C940A0ABD
:100020000C9410010C9410010C94DB0A0C94100138
:100030000C9410010C94980A0C94540A0C9410011E
:100040000C9469140C9410010C9468110C949A117E
:100050000C9410010C9410010C9410010C941001DC
:100060000C9410010C9410010C9410010C94300F9E
:100070000C9410010C9410010C9410010C941001BC
:100080000C9410010C9410010C9410010C941001AC
:100090000C9410010C9410010C9410010C9410019C
:1000A0000C9410010C9410010C9410010C9410018C
:1000B0000C941001312E316100000D0A004175646D
:1000C0006920436F6E636572742049204D756C74AE
:1000D000696D6564696120616E642050686F6E654A
:1000E0002047617465776179205665722E00524908
:1000F0004E470D0A0050524556494F55530D0A00C0
:100100004E4558540D0A005343414E0D0A00504CC1
:1001100041590D0A0052414E444F4D0D0A00000056
:1001200000415558206D6F64650D0A0055534220FB
:100130006469736B206D6F64650D0A00426C7565B0
:10014000746F6F7468206D6F64650D0A00000000A5
:10015000000000000A0D0E0900030200000405085B
:10016000000000000000000000000000000000018E
:10017000020408102040800102040810200102043B
:100180000810204080400102040804040404040410
:100190000404020202020202030303030303020235
:1001A0000305050505000000002300260029002C9A
:1001B0000000000000250028002B002E0000000099
:1001C00000240027002A002D0000A807CA11BA0742
:1001D00011241FBECFEFD8E0DEBFCDBF12E0A0E0FC
:1001E000B1E0ECEAF1E302C005900D92A63CB10744
:1001F000D9F724E0A6ECB2E001C01D92A138B20705
:10020000E1F710E0C7EED0E004C02197FE010E94A4
:100210003416C53ED107C9F70E945A140C94C91868
:100220000C9400008EEC92E00C946412CF93DF9358
:10023000EC01FB01248135810E940514CE01DF9180
:10024000CF910895EF92FF921F93CF93DF93EC012C
:100250007B01142F81E0888393E099838A838B83C9
:100260001C828D8388E08E8318861F821C861B86E5
:100270001D866CE172E0CE010E960E94D3126CE1F5
:1002800072E0CE0144960E94D3126CE172E0CE017E
:100290004A960E94D3126CE172E0CE0180960E94D1
:1002A000D312F8A6EFA21EA3DF91CF911F91FF906A
:1002B000EF900895CF93DF93EC018FA198A50E9452
:1002C0002E10CE0180960E946412CE014A960E94A2
:1002D0006412CE0144960E946412CE010E96DF9104
:1002E000CF910C946412CF93DF93EC01BA01FA0121
:1002F000248135812250310944E050E00E940514E8
:10030000CE01DF91CF910895EF92FF920F931F934B
:10031000CF93DF93CDB7DEB72C970FB6F894DEBF3F
:100320000FBECDBF8C017B0170E060E0C7010E9471
:10033000F31345E050E068E071E00E945718892B04
:1003400061F481E0F8018483128213826CE172E02F
:10035000C7010E945B1381E0B8C070E060E0C70194
:100360000E94F31345E050E06EE071E00E945718E0
:10037000892B29F481E0F80184838283E6CF70E041
:1003800060E0C7010E94F31345E050E064E171E0D2
:100390000E945718892B19F4F8011482D6CF70E007
:1003A00060E0C7010E94F31345E050E06AE171E0AC
:1003B0000E945718892B39F4F80114821082138295
:1003C00083E08183C3CF70E060E0C7010E94F31334
:1003D00045E050E060E271E00E945718892B29F453
:1003E000F801148282E08183B0CF70E060E0C70141
:1003F0000E94F31345E050E066E271E00E94571856
:10040000892B21F4F801148211829FCF70E060E003
:10041000C7010E94F31345E050E06CE271E00E94D6
:100420005718892B29F4F801148282E08083C7CF02
:1004300070E060E0C7010E94F31345E050E062E322
:1004400071E00E945718892B31F4F801148283E07F
:1004500080831382B6CF70E060E0C7010E94F3137F
:1004600045E050E068E371E00E945718892B21F4C1
:10047000F801148281E0B7CF70E060E0C7010E940C
:10048000F31345E050E06EE371E00E945718892BAA
:1004900039F4F801148283E081831282108255CFEF
:1004A00070E060E0C7010E94F31343E050E064E4B1
:1004B00071E00E945718892BA9F4F80113826CE1AE
:1004C00072E0C7010E945B1380E02C960FB6F8948F
:1004D000DEBF0FBECDBFDF91CF911F910F91FF9077
:1004E000EF90089570E060E0C7010E94F31346E0CA
:1004F00050E068E471E00E945718892BB1F446E09F
:1005000050E0B701CE0101960E941601CE0101967E
:100510000E944B14F80174876387CE0101960E94F4
:10052000641284E0F801848311C070E060E0C701C8
:100530000E94F31345E050E06FE471E00E94571809
:10054000892B31F484E0F8018483128281E012C0A7
:1005500070E060E0C7010E94F31345E050E065E5FC
:1005600071E00E945718892B39F484E0F8018483E4
:1005700081E082838083E9CE70E060E0C7010E9461
:10058000F31345E050E06BE571E00E945718892BAA
:1005900041F270E060E0C7010E94F31342E050E0D6
:1005A00061E671E00E945718892B19F4F801148252
:1005B000CDCF70E060E0C7010E94F31342E050E04D
:1005C00064E671E00E945718892B19F4F80114822F
:1005D00065CF70E060E0C7010E94F31343E050E094
:1005E00067E671E00E945718892B01F5F801148223
:1005F0001082B701CE0107960E944613AE01495FF3
:100600005F4FB801CE0101960E947301BE016F5F7A
:100610007F4FC8010E960E944F13CE0101960E9493
:100620006412CE0107960E9464120DC070E060E073
:10063000C7010E94F31342E050E06BE671E00E94B4
:100640005718892B11F4F80180CE70E060E0C701E3
:100650000E94F31343E050E06EE671E00E945718E9
:10066000892B21F270E060E0C7010E94F31344E09F
:1006700050E062E771E00E945718892B89F444E04A
:1006800050E0B701CE0101960E941601CE010196FD
:100690000E944B14F80170876783CE01019697C1C1
:1006A00070E060E0C7010E94F3134AE050E067E7A2
:1006B00071E00E945718892B79F44AE050E0B701A5
:1006C000CE0101960E941601CE0101960E944B14A4
:1006D000F80172876187E1CF70E060E0C7010E9496
:1006E000F31342E050E062E871E00E945718892B52
:1006F00009F42CCE70E060E0C7010E94F31342E0E1
:1007000050E065E871E00E945718892B09F49BCFEF
:1007100070E060E0C7010E94F31348E050E068E831
:1007200071E00E945718892B19F4F80115820ECE3A
:1007300070E060E0C7010E94F31347E050E061E918
:1007400071E00E945718892B81F370E060E0C701C7
:100750000E94F31348E050E069E971E00E945718E5
:10076000892B49F170E060E0C7010E94F31347E074
:1007700050E062EA71E00E945718892BE1F070E0C6
:1007800060E0C7010E94F31347E050E06AEA71E0BD
:100790000E945718892B99F070E060E0C7010E9411
:1007A000F31347E050E062EB71E00E945718892B89
:1007B00041F483E001C081E0F8018583C7CD82E088
:1007C000FBCF70E060E0C7010E94F31345E050E00A
:1007D0006AEB71E00E945718892B29F483E0F80135
:1007E00084831282B3CD70E060E0C7010E94F313EE
:1007F00045E050E060EC71E00E945718892B31F41D
:1008000083E0F801848381E08283A0CD70E060E022
:10081000C7010E94F31345E050E066EC71E00E94CE
:100820005718892B21F5F801138281E0808393E02A
:10083000918382836CE172E0C8010E960E945B1383
:100840006CE172E0C80144960E945B136CE172E0B7
:10085000C8014A960E945B136CE172E0C801809661
:100860000E945B13F8011486138615866FCD70E025
:1008700060E0C7010E94F31345E050E06CEC71E0CA
:100880000E945718892B21F481E0F8018383CECF91
:1008900070E060E0C7010E94F31345E050E062EDB4
:1008A00071E00E945718892B31F482E0F8018483AB
:1008B00081E0808396CF70E060E0C7010E94F3136F
:1008C00045E050E068ED71E00E945718892B31F443
:1008D00082E0F801848381E0808396CF70E060E05D
:1008E000C7010E94F31343E050E06EED71E00E94F7
:1008F0005718892B71F443E050E0B701CE010196FF
:100900000E941601CE0101960E944B14F8016683E5
:10091000C4CE70E060E0C7010E94F31343E050E0F2
:1009200062EE71E00E945718892B79F443E050E0A1
:10093000B701CE0101960E941601BE016F5F7F4F85
:10094000C80144960E944F13A8CE70E060E0C70132
:100950000E94F31345E050E066EE71E00E945718E4
:10096000892B69F445E050E0B701CE0101960E9461
:100970001601BE016F5F7F4FC8018096E3CF70E024
:1009800060E0C7010E94F31344E050E06CEE71E0B8
:100990000E945718892BF1F4B701CE0107960E94E7
:1009A000461344E050E0BE01695F7F4FCE010196DF
:1009B0000E941601BE016F5F7F4FC8014A960E94D8
:1009C0004F13CE0101960E946412CE0107960E9439
:1009D0006412BCCC70E060E0C7010E94F31342E0F7
:1009E00050E061EF71E00E945718892B19F4F8016B
:1009F0001082ACCC70E060E0C7010E94F31342E0CB
:100A000050E064EF71E00E945718892B21F481E0D7
:100A1000F80180839BCC70E060E0C7010E94F31373
:100A200042E050E067EF71E00E945718892B11F403
:100A3000F801D7CE70E060E0C7010E94F31342E0F6
:100A400050E06AEF71E00E945718892B19F481E099
:100A5000F801DACE70E060E0C7010E94F31342E0D3
:100A600050E066E971E00E945718892B81F270E02E
:100A700060E0C7010E94F31342E050E067EA71E0D2
:100A80000E945718892B09F4B2CF70E060E0C701CB
:100A90000E94F31342E050E06FEA71E00E945718A1
:100AA000892B19F482E0F8018CCC70E060E0C7017A
:100AB0000E94F31342E050E06DEF71E00E9457187E
:100AC000892B11F481E0EFCF70E060E0C7010E9454
:100AD000F31342E050E060E072E00E945718892B67
:100AE00019F4F801118232CC70E060E0C7010E9475
:100AF000F31343E050E063E072E00E945718892B43
:100B000071F443E050E0B701CE0101960E94160156
:100B1000CE0101960E944B14F8016587BECD70E0AE
:100B200060E0C7010E94F3134EE050E067E072E01E
:100B30000E945718892B09F48ACF08CC0F931F9372
:100B4000CF93DF9300D000D000D0CDB7DEB78C01BB
:100B50008091C60281110DC06CE172E08EEC92E0D2
:100B60000E94D31281E08093C60282E191E00E944C
:100B70005614D80197968D919C91DC01ED91FC91D2
:100B80000084F185E02D0995181619060CF045C072
:100B9000F80187A190A5DC01ED91FC910284F38519
:100BA000E02D09958A3081F56CE172E08EEC92E0DF
:100BB0000E94D613882381F0C8010E949E05182F39
:100BC000812F26960FB6F894DEBF0FBECDBFDF9102
:100BD000CF911F910F9108956EEC72E0CE010196B6
:100BE0000E944613BE016F5F7F4FC8010E948401BF
:100BF000182FCE0101960E9464126CE172E08EEC17
:100C000092E00E945B13DCCF8D3009F4B2CF682FE5
:100C10008EEC92E00E949613ACCF10E0D1CF0F93F0
:100C20001F93CF93DF938C01C4EFD1E0C8010E94E2
:100C30009E0581110AC0209761F0219761E070E064
:100C400080E090E00E94D814F1CF81E0CD2B09F430
:100C500080E0DF91CF911F910F910895EF92FF9265
:100C60000F931F93CF93DF93CDB7DEB72C970FB6BB
:100C7000F894DEBF0FBECDBF8C017B010E949E05A4
:100C80006DE172E0CE0101960E94D312B701CE0150
:100C900001960E94A9136AE172E00E94BC13BC0194
:100CA000CE0107960E944613CE0101960E9464125F
:100CB000BE01695F7F4FF80187A190A50E943312A2
:100CC000C8010E940F06182FCE0107960E946412D9
:100CD000812F2C960FB6F894DEBF0FBECDBFDF91EB
:100CE000CF911F910F91FF90EF9008950F931F9355
:100CF000CF93DF9300D000D000D0CDB7DEB78C010A
:100D000062E272E0CE0101960E94D312BE016F5FD3
:100D10007F4FC8010E942E06182FCE0101960E9417
:100D20006412812F26960FB6F894DEBF0FBECDBF9A
:100D3000DF91CF911F910F9108950F931F93CF9340
:100D4000DF9300D000D000D0CDB7DEB78C016DEBC3
:100D500071E0CE0101960E94D312BE016F5F7F4FFA
:100D6000C8010E942E06182FCE0101960E9464121F
:100D7000812F26960FB6F894DEBF0FBECDBFDF9150
:100D8000CF911F910F9108950F931F93CF93DF93EE
:100D900000D000D000D0CDB7DEB78C0165E272E0A4
:100DA000CE0101960E94D312BE016F5F7F4FC80132
:100DB0000E942E06182FCE0101960E946412812FE8
:100DC00026960FB6F894DEBF0FBECDBFDF91CF9150
:100DD0001F910F9108950F931F93CF93DF9300D02E
:100DE00000D000D0CDB7DEB78C0168E272E0CE0152
:100DF00001960E94D312BE016F5F7F4FC8010E940F
:100E00002E06182FCE0101960E946412812F26967D
:100E10000FB6F894DEBF0FBECDBFDF91CF911F910B
:100E20000F9108950F931F93CF93DF9300D000D0BD
:100E300000D0CDB7DEB78C016BE272E0CE01019637
:100E40000E94D312BE016F5F7F4FC8010E942E0621
:100E5000182FCE0101960E946412812F26960FB69C
:100E6000F894DEBF0FBECDBFDF91CF911F910F91E0
:100E700008950F931F93CF93DF9300D000D000D03D
:100E8000CDB7DEB78C016FE272E0CE0101960E9411
:100E9000D312BE016F5F7F4FC8010E942E06182F2C
:100EA000CE0101960E946412812F26960FB6F89407
:100EB000DEBF0FBECDBFDF91CF911F910F9108957F
:100EC0000F931F93CF93DF9300D000D000D0CDB706
:100ED000DEB78C0163E372E0CE0101960E94D3126B
:100EE000BE016F5F7F4FC8010E942E06182FCE01F2
:100EF00001960E946412812F26960FB6F894DEBFE9
:100F00000FBECDBFDF91CF911F910F9108950F9329
:100F10001F93CF93DF93EC018C010E5F1F4F6CE1A9
:100F200072E0C8010E94D3126CE172E0CE01089613
:100F30000E94D312188219826CE172E0C8010E94EB
:100F40005B1385E08F87DF91CF911F910F910895FB
:100F500020E044E063E08DE093E00E94031042E073
:100F60006DE073E084EE92E00E94220184ED92E055
:100F70000C9487078CED92E00E94641286ED92E05B
:100F80000E94641284EE92E00E945A018DE093E088
:100F90000C94A80F26E040E855E260E070E086ED92
:100FA00093E00E94101167E372E086ED93E00E94E7
:100FB0004C120E948E0964E472E086ED93E00E9478
:100FC0004C1264E572E086ED93E00E944C126AE6F2
:100FD00072E086ED93E00E944C126DE772E086EDC0
:100FE00093E00C944C120C94800B80918C039091A4
:100FF0007D03891789F0E82FF0E0E45CFC4F9081D5
:1010000090938B038F5F883121F080938C0381E074
:10101000089510928C03FBCF80E0089581E08093C7
:10102000860382E080937C0381ED8093790388EED0
:1010300080937B03089520917503E22FF0E0EE0F7B
:10104000FF1FEC5AFC4F918380832F5F2C3019F0E7
:10105000209375030895109275030895CF93C82FB8
:101060008695869586958E7190E087549F4F0E9455
:101070001B08CC0FCE718C2F90E087549F4FCF91DF
:101080000C941B0880918D0380938C030E94F507BC
:10109000813021F480918B030E942E080E94F50775
:1010A000813021F480918B030E942E080E94F50765
:1010B000813021F480918B030E942E080E94F50755
:1010C000813021F480918B030E942E088AEB90E0FE
:1010D0000E941B0880918C0380938D0308958CEEF1
:1010E0008093770310928F0310929003089590914C
:1010F0003203E92FF0E0E459FC4F80839F5F983082
:1011000019F0909332030895109232038091B10048
:1011100084608093B100089589E90E94770889E985
:101120000E94770889E50E94770889E40C94770883
:10113000809107010E947708809106010E9477083C
:10114000809190030E94770880918F030E94770816
:1011500080918803813041F480E29091870391303F
:1011600009F480610C94770880E0F7CF90917A03BE
:10117000911102C00C9477089F5F90937A0380626C
:10118000F9CF83EC0E94B60880917B038F5F809338
:101190007B03811109C081E08093860385E0809301
:1011A0007C0386EF80937B0308958CEE8093770316
:1011B0008BE80E94B6080E94980880E70E94770892
:1011C00083E80C94B608809179030E947708809197
:1011D0007903863D51F481ED809379030E948C0858
:1011E00080E00E9477080C94C1088F5FF5CF83ECF4
:1011F0000E94B60880917B038F5F80937B038111EF
:1012000006C081E08093860389E080937C03089583
:10121000809107018F70806D0E9477080E948C0872
:1012200080E00E9477080C94F708E0917C03EB3093
:1012300008F073C0F0E0E15EF64F0C9434164109FB
:101240003809430953094C09550965095E096709BD
:1012500083092A098CEE809377038BE40E94B608F9
:101260000E94980880E20E94770883E40C94B608F4
:1012700080917B038F5F80937B03811102C00E946A
:101280000E080C94D5088CEE809377038BEC0E94AB
:10129000B60880917B0380FF0C94E3080E949808B5
:1012A00080E10E9477080C94C1088CEE809377034C
:1012B0008BEC0E94B60880917B0380FF0C94080998
:1012C0000E94980881E50E9477080C94F7088CEE3C
:1012D000809377038BEC0E94B6080E94980881E502
:1012E0000E94770883EC0E94B60880917B038F5F91
:1012F00080937B03882389F081E08093860389E0D3
:1013000080937C0308958BEC0E94B6080E94980895
:1013100080E30E94770883ECA9CF0895CF93DF93F1
:101320006CE872E086ED93E00E944C12F894CEE6F1
:10133000D0E01882259A239A2098289A109280004B
:10134000E1E8F0E080E88083808182608083B59A64
:10135000EFE6F0E08081806280838FEA8093B300C3
:1013600082E08093B00084E08093B100E0E7F0E099
:1013700080818260808310927D0310928D0388EFBC
:1013800080937F0310927503109274031092890367
:1013900010928803109287031092860310928303A1
:1013A0001092820310927A0381E48093070181E016
:1013B0008093060186EF809378030E946F08109255
:1013C000860310927C038DEB90E00E941B0884EB57
:1013D00090E00E941B088AEB90E00E941B088EEEB2
:1013E00090E00E941B088CE987BD14BC84B5826024
:1013F00084BD85B5856085BD8881826088830E94B3
:10140000150978946BE972E086ED93E0DF91CF9156
:101410000C944C121F920F920FB60F9211242F931F
:101420008F939F93EF93FF938091B1008B7F809375
:10143000B100E0913303E830A0F5F0E0E459FC4F4F
:10144000908188EF8093910325E080919103882318
:10145000A1F02D9A822F8A95F1F797FD0CC02B9A57
:10146000990F2D98822F8A95F1F7809191038F5FC4
:1014700080939103EACF2B98F3CF809133038F5F52
:10148000809333038091B10084608093B100FF9119
:10149000EF919F918F912F910F900FBE0F901F9002
:1014A000189510923303F3CF1F920F920FB60F923D
:1014B00011248F939F9380913B038F5F80933B0315
:1014C000909139039F5F90933903909137039F5F09
:1014D00090933703909135039F5F90933503853048
:1014E00029F410923B0381E080933A038091390301
:1014F0008A3029F41092390381E080933803809177
:101500003703823329F41092370381E08093360346
:1015100080913503893129F41092350381E080935D
:1015200034039F918F910F900FBE0F901F901895CD
:101530001F920F920FB60F9211242F938F939F93A8
:10154000EF93FF9380916F008E7F80936F001092D6
:10155000890390917F03993F0CF181E0809382038E
:1015600080917D03E82FF0E0E45CFC4F992329F0A3
:101570002081220F20839F5FF9CF98EF90937F0304
:101580008F5F8831A9F080937D0390917D038091D6
:101590008D03981303C081E080938303FF91EF9143
:1015A0009F918F912F910F900FBE0F901F901895C4
:1015B00010927D03EACF1F920F920FB60F92112463
:1015C0002F933F934F938F939F93EF93FF9380912C
:1015D00086009091870090938103809380031092FE
:1015E000850010928400189918C0B09A80916F00FD
:1015F000816080936F00809181008064809381007E
:10160000B59AFF91EF919F918F914F913F912F91BB
:101610000F900FBE0F901F90189581E08093890363
:10162000909181009F7B90938100B59A90916F007B
:1016300090FFE7CF8093890390916F009E7F9093F6
:101640006F002091800330918103213049E13407FC
:1016500058F190EE90937E0390917F03993F8CF226
:101660008093820380917D03E82FF0E0E45CFC4FDF
:10167000992329F02081220F20839F5FF9CF98EFD3
:1016800090937F038F5F883161F080937D03909109
:101690007D0380918D039813B4CF81E08093830301
:1016A000B0CF10927D03F3CF213082E0380708F4E9
:1016B000A8CF90917D03E92FF0E0E45CFC4F80819E
:1016C000880F213C394088F4808380917E038F5FAE
:1016D00080937E03811102C01092890380917F0361
:1016E0008F5F29F080937F038CCF8160EDCF88EFEF
:1016F00080937F039F5F9831A1F290937D03C7CFC2
:101700000F931F93CF9380913A03813081F410920D
:101710003A030E941509809176038F5F89F18093C7
:101720007603809177038F5FB1F180937703809187
:101730008303813031F41092830382E591E00E94AB
:101740001B0880918203813031F41092820383E57B
:1017500091E00E941B0880918D0380938C030E946E
:10176000F507882309F49CC080918B03833509F425
:1017700056C00E942E0880918C0380938D03EFCF7A
:101780008CE9809376031092870380918E038F7E7D
:1017900080938E03C6CF8CEE80937703809178037D
:1017A0008F5F29F18093780380918F0391E0980FE8
:1017B000292F2F702A3059F190938F0380918F0336
:1017C000803609F0B4CF10928F038091900391E09E
:1017D000980F292F2F702A30F1F090939003809169
:1017E0009003803A09F0A3CF10929003A0CF86EF28
:1017F000809378038DEB90E00E941B0884EB90E0CF
:101800000E941B088AEB90E00E941B08CDCF895FE5
:1018100080938F03D3CF895F80939003E0CF0E94A2
:10182000F5078823E9F180918B038C3221F083E561
:101830000E942E0899CF0E94F507882389F1809194
:101840008B0380938A030E94F507882349F18091D6
:101850008A0320918B03280F3327331F2F3F310535
:1018600009F025C2982F937009F021C29CEF909344
:101870007A0390918C0390938D03883509F444C1C9
:1018800008F094C0843109F41AC1D0F5883009F405
:1018900019C120F5813009F42AC1833009F460C1EF
:1018A000E091740380917503E81709F40EC2F0E02B
:1018B000EE0FFF1FEC5AFC4F00811181F801C4911B
:1018C000CC2309F4F7C16C2F86ED93E00E944112FE
:1018D000CA3009F4EFC10F5F1F4FF0CF8C3009F40D
:1018E0006CC18031E9F61092860310927C0381E589
:1018F00091E00E941B0884EE92E00E947606D0CF11
:10190000803309F4C7C130F5883109F4FDC08C3249
:1019100039F681E08093850385E480930701809107
:101920002C0380932E0380932F03809330038093A6
:10193000310380912D038F5F80932D03863011F446
:1019400010922D0380912D03882309F4A9CF8FE1F4
:1019500091E0D7C0883309F4E9C08C3409F0A0CFF6
:1019600081E08093850383E48093070180912C03B9
:1019700080932D0380932E03809330038093310353
:1019800080912F038F5F80932F03863011F4109284
:101990002F0380912F03882321F081E291E00E94A0
:1019A0001B0884EE92E00E9439077ACF883A09F446
:1019B000DDC008F045C0883709F4D8C070F580361E
:1019C00009F471C0883609F06BCF809186038130AD
:1019D00031F488E080937C0384EF80937B030E9442
:1019E0006F088091060191E0980F909306019F7017
:1019F0009A3019F4895F8093060180910601803A3C
:101A000019F481E08093060180E091E00E941B08B8
:101A100084EE92E00E94C40643CF8C3809F4F3C0F0
:101A2000803A09F03DCF8CE980937603809187035B
:101A3000811199C081E08093870387E091E061C0C4
:101A4000883D09F473C038F58C3A09F402C18C3C26
:101A500009F026CF81E08093850384E48093070119
:101A600080912C0380932D0380932F038093300368
:101A70008093310380912E038F5F80932E038630F5
:101A800011F410922E0380912E03882309F408CFBD
:101A900080E291E036C0843EA9F0883F09F495CFFA
:101AA000803E09F0FDCE81E080938403909188030D
:101AB000911153C08093880385E191E022C0109278
:101AC0007A03EECE1092880380918603811102C0C2
:101AD0000E940E0880918403811104C080E591E08A
:101AE0000E941B0884EE92E00E949D06D9CE809150
:101AF0008603813011F40E940E080E946F088FE463
:101B000091E00E941B08CCCE0E946F088EE491E009
:101B10000E941B08809107018150809307018F70FC
:101B200009F0BECE86E480930701BACE0E946F080A
:101B30008091850381110EC08DE491E00E941B0805
:101B4000809107018F5F80930701873408F4A8CE46
:101B500081E4E9CF10928503A3CE10928803ACCF25
:101B60008EE091E0CECF1092870367CF80918603FD
:101B7000813031F488E080937C0384EF80937B0391
:101B80000E946F0880910601982F9F7019F486506B
:101B90008093060180910601815080930601811196
:101BA00003C089E98093060185EF90E00E941B083D
:101BB00084EE92E00E94EB0673CE81E08093850371
:101BC00081E48093070180912C0380932D038093FF
:101BD0002E0380932F0380933003809131038F5F16
:101BE00080933103863011F41092310380913103D8
:101BF000882321F08CE391E00E941B0884EE92E0A0
:101C00000E9412074DCE81E08093850382E4809389
:101C1000070180912C0380932D0380932E038093E2
:101C20002F0380933003809131038F5F80933103C2
:101C3000863011F41092310380913103882321F012
:101C40008CE291E00E941B0884EE92E00E94600703
:101C500027CE81E08093850386E4809307018091FD
:101C60002D0380932E0380932F0380933003809362
:101C7000310380912C038F5F80932C03863011F405
:101C800010922D0380912D03882309F409CE8EE153
:101C900091E037CF80918603813031F41092860332
:101CA0008AE080937C03FCCD0E940E08F9CD0E944F
:101CB0004208F6CD809174038F5F809374038C305B
:101CC00009F0EECD10927403EBCDCF911F910F91DF
:101CD000089590E080E008952091D4033091D503D9
:101CE00028173907B9F490919203809193039817BC
:101CF00089F0E0919203F0E0EC56FC4F8081209156
:101D0000920330E02F5F3F4F2F73332720939203CE
:101D100090E008958FEF9FEF0895EF92FF920F9359
:101D20001F93CF93DF93DC015C96ED90FC905D9761
:101D3000E114F10479F481E090E013969C938E9382
:101D4000129790E080E0DF91CF911F910F91FF906B
:101D5000EF9008955196ED91FC91529750968C9189
:101D60005097982F90950FB75E962C915E97122FF3
:101D7000127021FD6095F8942081112319F1282B10
:101D80002083E7012197F1F728E0462F50E03081CA
:101D900060FF1AC0382B3083E7012197F1F7BA01B1
:101DA00075956795215089F7112381F080818923EA
:101DB00080830FBF5C968D919C910197F1F781E034
:101DC00090E0C1CF2923DCCF3923E5CF9081892B47
:101DD000EFCF08952091D4033091D5032817390708
:101DE00071F49091920380919303981741F0E091E0
:101DF0009203F0E0EC56FC4F808190E008958FEF65
:101E00009FEF08952091D4033091D5032817390707
:101E100071F4809193032091920390E0805C9F4F36
:101E2000821B910960E470E00E94FE15089590E025
:101E300080E00895E091D403F091D503E817F90705
:101E400069F4A389B4899C918589809589238C93B1
:101E50001092D5031092D40381E0089580E0089594
:101E60001F920F920FB60F9211242F933F934F930F
:101E70005F936F937F938F939F93AF93BF93EF93F2
:101E8000FF93E091D403F091D503309749F0A685F4
:101E9000B7858585968D91FF14C09C918923A1F407
:101EA000FF91EF91BF91AF919F918F917F916F9132
:101EB0005F914F913F912F910F900FBE0F901F9008
:101EC00018959C91892361F7A389B4899C91858990
:101ED000809589238C93868997890197F1F7608D86
:101EE000718DA685B785558538E020E0CB01019737
:101EF000F1F7822F90E095958795282F4C914523F7
:101F000009F02068315091F7868D81FD20958091F0
:101F1000930390E001968F739927309192033817BD
:101F200099F0A0919303B0E0AC56BC4F2C938093F2
:101F30009303828D938D0197F1F7A389B4898C91D6
:101F40009589892B8C93ACCF868D8160868FF1CF5C
:101F500025EA32E0FC01318320830C941A0F1F9391
:101F6000CF93DF93EC01162F6E8D6695617081E043
:101F70006827812F0E94CF1561E0812F0E94931561
:101F8000812F110F990BFC01E159FE4FE491E88B71
:101F9000FC01E657FE4FE491F0E0EE0FFF1FEF5417
:101FA000FE4F859194919A8B898BDF91CF911F91F0
:101FB00008951F93CF93DF93EC01162F60E0812FDC
:101FC0000E9493158E8D81FD04C061E0812F0E94D7
:101FD000CF151C87812F110F990BFC01E159FE4F82
:101FE000E491ED87FC01E657FE4FE491F0E0EE0F3F
:101FF000FF1FEB55FE4F859194919F878E87DF9150
:10200000CF911F9108951F93CF93DF93EC01162F6B
:102010001B821A8288EE93E0A0E0B0E08C839D835F
:10202000AE83BF8385EA92E0998388831F8A1E8AE4
:10203000198E188E1B8E1A8E1D8E1C8E8E8D8E7F85
:1020400020FB81F98E8F642FCE010E94AF0F612F8C
:10205000CE01DF91CF911F910C94D90F0C941A0FE0
:10206000FC01918D228D892F90E0805C9F4F821B17
:1020700091098F7399270895FC01918D828D98178E
:1020800031F0828DE80FF11D858D90E008958FEF7E
:102090009FEF0895FC01918D828D981761F0A28DBC
:1020A000AE0FBF2FB11D5D968C91928D9F5F9F7378
:1020B000928F90E008958FEF9FEF0895FC01538D6C
:1020C000448D252F30E0842F90E0821B930B541712
:1020D00010F0CF9608950197089580EC91E1892B37
:1020E00049F080E090E0892B29F00E94C011811115
:1020F0000E94000080E090E0892B49F080E090E0B1
:10210000892B29F00E94000081110C940000089591
:10211000FC01A48DA80FB92FB11DA35ABF4F2C915C
:10212000848D90E001968F739927848FA689B78953
:102130002C93A089B1898C9180648C93938D848D2C
:10214000981306C00288F389E02D80818F7D8083FB
:102150000895CF93DF93EC01888D8823B9F0AA8985
:10216000BB89E889F9898C9185FD03C0808186FD52
:102170000DC00FB607FCF7CF8C9185FFF2CF8081A1
:1021800085FFEDCFCE010E948810E9CFDF91CF917E
:102190000895EF92FF920F931F93CF93DF93EC017B
:1021A00081E0888F9B8D8C8D981316C0E889F98902
:1021B000808185FF11C0EE89FF896083E889F989F4
:1021C00080818064808381E090E0DF91CF911F91D6
:1021D0000F91FF90EF900895F62E0B8D10E00F5F9A
:1021E0001F4F0F731127E02E8C8D8E110CC00FB670
:1021F00007FCFACFE889F989808185FFF5CFCE0108
:102200000E948810F1CFEB8DEC0FFD2FF11DE35AEA
:10221000FF4FF0820B8FEA89FB8980818062D2CFE9
:10222000CF92DF92EF92FF921F93CF93DF93EC0157
:102230006A017B01122FE889F98982E08083C11449
:1022400081EED806E104F104A1F060E079E08DE3CD
:1022500090E0A70196010E94121621503109410910
:1022600051095695479537952795211580E13807EF
:1022700098F0E889F989108260E874E88EE190E0CE
:10228000A70196010E9412162150310941095109F6
:102290005695479537952795EC85FD853083EE85D6
:1022A000FF852083188EEC89FD891083EA89FB89DC
:1022B000808188698083EA89FB8980818F7D808322
:1022C000DF91CF911F91FF90EF90DF90CF90089515
:1022D0001F920F920FB60F9211242F938F939F93FB
:1022E000EF93FF93E091E603F091E7038081E091A3
:1022F000EC03F091ED0382FD1BC090818091EF0310
:102300008F5F8F732091F003821741F0E091EF030C
:10231000F0E0EA52FC4F958F8093EF03FF91EF912D
:102320009F918F912F910F900FBE0F901F90189536
:102330008081F4CF1F920F920FB60F9211242F932A
:102340003F934F935F936F937F938F939F93AF933D
:10235000BF93EF93FF9386ED93E00E948810FF9167
:10236000EF91BF91AF919F918F917F916F915F910D
:102370004F913F912F910F900FBE0F901F90189586
:1023800086ED93E00E94301021E0892B09F420E0D3
:10239000822F0895E6EDF3E01382128288EE93E037
:1023A000A0E0B0E084839583A683B78387EB92E0B7
:1023B0009183808385EC90E09587848784EC90E01E
:1023C0009787868780EC90E0918B808B81EC90E002
:1023D000938B828B82EC90E0958B848B86EC90E0E3
:1023E000978B868B118E128E138E148E0895AF925A
:1023F000BF92CF92DF92EF92FF920F931F93CF93F2
:10240000DF936C017B018B01040F151FEB015E0153
:10241000AE18BF08C017D10759F06991D601ED91E8
:10242000FC910190F081E02DC6010995892B79F787
:10243000C501DF91CF911F910F91FF90EF90DF9039
:10244000CF90BF90AF900895FB0101900020E9F775
:102450003197AF01461B570BDC01ED91FC910280D7
:10246000F381E02D0994DB0114964D915C91159751
:102470006D917C91DC01ED91FC910280F381E02D66
:102480000994DC01ED91FC910190F081E02D09941B
:102490006AE172E00C9424120F931F93CF93DF93A1
:1024A0008C01D0E0C0E06115710519F00E94241282
:1024B000EC01C8010E9448128C0F9D1FDF91CF9143
:1024C0001F910F9108950895FC01808191810C94D2
:1024D000EA16CF93DF93EC0188819981009711F080
:1024E0000E94EA16198218821D821C821B821A829F
:1024F000DF91CF9108950F931F93CF93DF93EC015A
:102500008B016F5F7F4F888199810E9473170097BD
:1025100051F0998388831B830A8381E0DF91CF91F7
:102520001F910F91089580E0F9CFCF93DF93EC01D5
:1025300088819981892B49F08A819B818617970729
:1025400020F081E0DF91CF910895CE010E947B12AF
:102550008823C1F38C819D81892B99F7E881F981CA
:102560001082EFCFEF92FF920F931F93CF93DF93E1
:10257000EC017B018A01BA010E94951281110BC006
:10258000CE010E946912CE01DF91CF911F910F9170
:10259000FF90EF9008951D830C83B7018881998186
:1025A0000E947618F0CFFC011182108213821282F1
:1025B000158214826115710551F0FB010190002014
:1025C000E9F73197AF01461B570B0C94B2120895EF
:1025D000FB0101900020E9F73197AF01461B570B33
:1025E0000C94B2120F931F93CF93DF938C01EB01E6
:1025F000FC0180819181009701F1688179816115E9
:102600007105C9F023E632E1232BA9F04281538101
:102610002C813D814217530770F00E9476188C81FF
:102620009D81F801958384831D821C82DF91CF9167
:102630001F910F9108950E94EA1688819981F801EF
:10264000918380838A819B81938382838C819D8106
:1026500095838483198218821B821A82E5CFCF93D7
:10266000DF93EC01FB018617970749F060817181C8
:102670006115710541F0448155810E94B212CE016D
:10268000DF91CF9108950E946912F9CFFC01118268
:10269000108213821282158214820C942F13CF930E
:1026A000DF93EC018617970711F00E94F212CE011A
:1026B000DF91CF910895CF93DF93EC016115710500
:1026C00031F00E94E812CE01DF91CF9108950E946F
:1026D0006912F9CFEF92FF920F931F93CF93DF937D
:1026E0006115710541F480E0DF91CF911F910F9149
:1026F000FF90EF90089541155105B1F07B01EC0179
:102700000C811D81040F151FB8010E9495128823AA
:1027100051F3288139818C819D81B701820F931FEC
:102720000E9476181D830C8381E0DECFCF93DF9368
:1027300000D0CDB7DEB769831A8241E050E0BE0118
:102740006F5F7F4F0E946A130F900F90DF91CF91C0
:102750000895CF93DF93EC01FB01448155816081A3
:1027600071810E946A13811103C0CE010E94691217
:10277000CE01DF91CF910895CF93DF93EC016115E6
:10278000710539F4CE010E946912CE01DF91CF911B
:102790000895FB0101900020E9F73197AF01461B36
:1027A000570B0E946A13882369F3EFCFFC01248141
:1027B0003581232B31F421E0FB01672B49F4822F73
:1027C0000895808191816115710539F421E0FC0142
:1027D00080818823A1F320E0F2CF0E946D1821E0D0
:1027E000892B69F3F8CFFC012481358162177307C7
:1027F00020F480819181009729F41092730483E77B
:1028000094E00895860F971F0895AF92BF92CF92DC
:10281000DF92EF92FF920F931F93CF93DF935C01B0
:102820006B017A0189012417350720F48F2D790176
:10283000042F182F6CE172E0C5010E94D312D6015B
:102840001496CD91DC91EC16FD06C8F40C171D070B
:1028500008F4E801D601ED91FC911197EC0FFD1FF2
:10286000108110826D917C916E0D7F1DC5010E94BB
:102870005B13F60180819181C80FD91F1883C501B0
:10288000DF91CF911F910F91FF90EF90DF90CF904C
:10289000BF90AF900895FC0180819181009711F065
:1028A0000C94301860E070E0CB01089590E080E077
:1028B000089508950E9411150E9459140E94CA0794
:1028C000CDE6D0E10E94F3072097E1F30E946D105E
:1028D000F9CF1F920F920FB60F9211242F933F93AF
:1028E0008F939F93AF93BF938091750490917604DB
:1028F000A0917704B09178043091740423E0230F01
:102900002D3758F50196A11DB11D209374048093B5
:10291000750490937604A0937704B0937804809123
:10292000790490917A04A0917B04B0917C04019683
:10293000A11DB11D8093790490937A04A0937B0428
:10294000B0937C04BF91AF919F918F913F912F9154
:102950000F900FBE0F901F90189526E8230F029638
:10296000A11DB11DD2CF3FB7F89480917904909109
:102970007A04A0917B04B0917C0426B5A89B05C085
:102980002F3F19F00196A11DB11D3FBFBA2FA92FEE
:10299000982F8827BC01CD01620F711D811D911DEB
:1029A00042E0660F771F881F991F4A95D1F7089557
:1029B0008F929F92AF92BF92CF92DF92EF92FF924F
:1029C0006B017C010E94B3144B015C01C114D10462
:1029D000E104F104E9F00E94FD150E94B3146819A6
:1029E00079098A099B09683E73408105910570F356
:1029F00021E0C21AD108E108F10888EE880E83E0D0
:102A0000981EA11CB11CC114D104E104F10429F7E2
:102A1000FF90EF90DF90CF90BF90AF909F908F90FE
:102A20000895789484B5836084BD85B5836085BD41
:102A3000EEE6F0E0808181608083E1E8F0E082E012
:102A40008083808181608083E0E8F0E08081816024
:102A50008083E1EBF0E0808184608083E0EBF0E054
:102A6000808181608083E1E9F0E080818360808300
:102A7000E0E9F0E0808181608083E1EAF0E080813C
:102A800083608083E0EAF0E080818160808387E872
:102A900080937A001092C100089582508D3008F022
:102AA0003EC0E82FF0E0E95AFA4E0C9434168C152B
:102AB000901564156A158F158F156E157415781598
:102AC0007E158F1582158815809180008F778093F1
:102AD00080000895809180008F7DF9CF8091B000B3
:102AE0008F778093B00008958091B0008F7DF9CFEB
:102AF000809190008F77809390000895809190004E
:102B00008F7DF9CF8091A0008F778093A0000895EA
:102B10008091A0008F7DF9CF84B58F7784BD089513
:102B200084B58F7DFBCFCF93DF9390E0FC01E1591B
:102B3000FE4F249186579E4FFC0184918823C9F053
:102B400090E0880F991FFC01E354FE4FA591B491CA
:102B5000FC01EF54FE4FC591D49161110DC09FB798
:102B6000F8948C91209582238C9388812823288344
:102B70009FBFDF91CF910895623051F49FB7F894D1
:102B80003C91822F809583238C93E8812E2BEFCF6D
:102B90008FB7F894EC912E2B2C938FBFEACF1F9315
:102BA000CF93DF93282F30E0F901EC5AFE4F849148
:102BB000F901E159FE4FD491F901E657FE4FC49156
:102BC000CC23A9F0162F81110E944D15EC2FF0E0B7
:102BD000EE0FFF1FEF54FE4FA591B4918FB7F894FD
:102BE000EC91111108C0D095DE23DC938FBFDF91EB
:102BF000CF911F910895DE2BF8CF089597FB072EF4
:102C000016F4009407D077FD09D00E943A1607FC0D
:102C100005D03EF4909581959F4F089570956195EC
:102C20007F4F0895A1E21A2EAA1BBB1BFD010DC008
:102C3000AA1FBB1FEE1FFF1FA217B307E407F5076C
:102C400020F0A21BB30BE40BF50B661F771F881F48
:102C5000991F1A9469F760957095809590959B01DE
:102C6000AC01BD01CF010895EE0FFF1F0590F49157
:102C7000E02D0994AA1BBB1B51E107C0AA1FBB1F73
:102C8000A617B70710F0A61BB70B881F991F5A95F8
:102C9000A9F780959095BC01CD0108950F931F93DE
:102CA000CF93DF938230910510F482E090E0E091C1
:102CB0007F04F091800430E020E0B0E0A0E03097A5
:102CC00099F42115310509F44AC0281B390B243029
:102CD0003105D8F58A819B816115710589F1FB0168
:102CE00093838283FE0111C040815181028113814F
:102CF00048175907E0F04817590799F4109761F001
:102D000012960C93129713961C933296CF01DF9173
:102D1000CF911F910F91089500937F041093800429
:102D2000F4CF2115310551F04217530738F0A901AE
:102D3000DB019A01BD01DF01F801C1CFEF01F9CF3D
:102D40009093800480937F04CDCFFE01E20FF31FA8
:102D5000819391932250310939832883D7CF2091D1
:102D60007D0430917E04232B41F4209102013091A7
:102D7000030130937E0420937D0420910001309163
:102D800001012115310541F42DB73EB740910401F1
:102D900050910501241B350BE0917D04F0917E04D8
:102DA000E217F307A0F42E1B3F0B2817390778F022
:102DB000AC014E5F5F4F2417350748F04E0F5F1F81
:102DC00050937E0440937D04819391939FCFF0E0D4
:102DD000E0E09CCFCF93DF930097E9F0FC013297BE
:102DE00013821282A0917F04B0918004ED0130E043
:102DF00020E01097A1F420813181820F931F209150
:102E00007D0430917E042817390709F061C0F093E2
:102E10007E04E0937D04DF91CF910895EA01CE17FF
:102E2000DF07E8F54A815B819E0141155105B1F745
:102E3000E901FB83EA8349915991C40FD51FEC172F
:102E4000FD0761F4808191810296840F951FE9014D
:102E500099838883828193819B838A83F0E0E0E079
:102E600012968D919C9113970097B9F52D913C91F5
:102E70001197CD010296820F931F20917D0430910E
:102E80007E042817390739F6309751F510928004DF
:102E900010927F04B0937E04A0937D04BCCFD383B3
:102EA000C28340815181840F951FC817D90761F4EF
:102EB0004E5F5F4F88819981480F591F518340832E
:102EC0008A819B81938382832115310509F0B0CFDC
:102ED000F0938004E0937F049ECFFD01DC01C0CF1E
:102EE00013821282D7CFB0E0A0E0E9E7F7E10C94BB
:102EF00094188C01009751F4CB010E944E168C015E
:102F0000C801CDB7DEB7E0E10C94B018FC01E60FC4
:102F1000F71F9C0122503109E217F30708F49DC006
:102F2000D901CD91DC911197C617D70798F0C5301C
:102F3000D10530F3CE0104978617970708F3C61B17
:102F4000D70B2297C193D1936D937C93CF010E94AD
:102F5000EA16D6CF5B01AC1ABD0A4C018C0E9D1E41
:102F6000A0917F04B0918004512C412CF12CE12CD4
:102F7000109731F580917D0490917E048815990514
:102F800009F05CC04616570608F058C08091000151
:102F900090910101009741F48DB79EB740910401D3
:102FA00050910501841B950BE817F90708F055C0EF
:102FB000F0937E04E0937D04F90171836083A0CFD8
:102FC0008D919C91119712966C90129713967C900C
:102FD0001397A815B90559F56C0142E0C40ED11C30
:102FE000CA14DB0420F1AC014A195B09DA0112961C
:102FF000159780F06282738251834083D9016D936B
:103000007C93E114F10471F0D7011396FC93EE93D5
:10301000129776CF22968C0F9D1FF90191838083A2
:10302000F301EFCFF0938004E0937F0469CF48165B
:10303000590608F42C017D01D3019ACFCB010E94DF
:103040004E167C01009749F0AE01B8010E94641849
:10305000C8010E94EA16870153CF10E000E050CF6C
:103060001F93FC0199278827BC01E8941191103225
:10307000E9F3193010F01E30C8F31B3251F01D3245
:1030800049F4689406C00E947D18610F711D811D6E
:10309000911D119110531A30B0F33EF49095809524
:1030A000709561957F4F8F4F9F4F1F910895FB0142
:1030B000DC0104C08D910190801921F441505040F1
:1030C000C8F7881B990B0895FB01DC0102C0019031
:1030D0000D9241505040D8F70895FB01DC018D91CD
:1030E000019080190110D9F3990B0895FB01DC01BF
:1030F00001900D920020E1F70895592F482F372FA6
:10310000262F660F771F881F991F660F771F881F4E
:10311000991F620F731F841F951F660F771F881FEB
:10312000991F08952F923F924F925F926F927F92D4
:103130008F929F92AF92BF92CF92DF92EF92FF92C7
:103140000F931F93CF93DF93CDB7DEB7CA1BDB0B73
:103150000FB6F894DEBF0FBECDBF09942A88398818
:1031600048885F846E847D848C849B84AA84B9841F
:10317000C884DF80EE80FD800C811B81AA81B9812B
:10318000CE0FD11D0FB6F894DEBF0FBECDBFED013F
:10319000089510E0C7EED0E004C0FE010E9434168E
:0C31A0002196C83ED107C9F7F894FFCF74
:1031AC00000081048000010141585F5041004158EA
:1031BC005F50550042545F41430042545F434E0000
:1031CC0042545F45430042545F49430042545F57A9
:1031DC00500042545F57430042545F4F43004254E7
:1031EC005F50410045525200464D5F46513D0046EE
:1031FC004D5F504100464D5F505500464D5F534367
:10320C000049410049490049522D00495200505291
:10321C002D004D4D4D50006D757369635F6D756E6E
:10322C003D004F4B004F4E00504C41595F414C4CB0
:10323C0000504C41595F4D3000504C41595F4F4E3E
:10324C004500504C41595F4D3100504C41595F4D38
:10325C003200434F4D5F534D520053445F50410079
:10326C0053445F50550053595F504F0053595F50B2
:10327C00460055445F50410055445F505500564F31
:10328C004C0041443A0020504E3A20004E413A2026
:10329C00004331004330004D42004D41004D33009E
:1032AC004D34004D464D004D55534943504C5946F5
:1032BC00494E4953480041542B000D0A00434F4DD1
:1032CC002B00505000504E005056004D4254004DB3
:1032DC004158004D55440048656C6C6F20776F72F7
:1032EC006C64210046696E69736820696E6974208C
:1032FC004344430046696E69736820696E697420A3
:10330C00426C7565746F6F74680046696E6973689A
:10331C0020696E69742072656D6F74650046696E04
:10332C00697368207365747570282900496E697417
:10333C0069616C697A6174696F6E00526561647958
:10334C0000000000008D0EF711690EE90E020F6CE3
:10335C000EEA0E00000000C910F7115E10A9103023
:06336C00104A103C1000A5
:00000001FF
