:100000000C9411010C9439010C9439010C94F108F1
:100010000C94F1080C94F1080C9439010C94000430
:100020000C9439010C9439010C94B1040C943901ED
:100030000C9439010C946E040C944A040C9439010C
:100040000C94A80D0C9439010C94380B0C946A0B89
:100050000C9439010C9439010C9439010C94390138
:100060000C9439010C9439010C9439010C94F10869
:100070000C9439010C9439010C9439010C94390118
:100080000C9439010C9439010C9439010C94390108
:100090000C9439010C9439010C9439010C943901F8
:1000A0000C9439010C9439010C9439010C943901E8
:1000B0000C943901312E30610030003100320033B0
:1000C0000034003500360037003800390041004266
:1000D0000043004400450046005F000D0A004175E2
:1000E000646920436F6E636572742049204D756C9E
:1000F00074696D6564696120476174657761792011
:100100005665722E0052494E470D0A005052455610
:10011000494F55530D0A004E4558540D0A0053439C
:10012000414E0D0A00504C41590D0A0052414E44B7
:100130004F4D0D0A004C495354360D0A004C49539B
:1001400054350D0A004C495354340D0A004C4953A0
:1001500054330D0A004C495354320D0A004C495394
:1001600054310D0A004E58545F4C4953540D0A0047
:100170005052565F4C4953540D0A004D494E51554B
:100180004952590D0A004D454E41424C450D0A0059
:100190004D44495341424C450D0A006F76657266E5
:1001A0006C6F770D0A00646174616572720D0A00EC
:1001B000090C0D0800020100000304070000000004
:1001C0000000000000000000010204081020408030
:1001D0000102040810200102040810200408010292
:1001E00004040404040404040202020202020303DD
:1001F0000303030305050505000000002300260096
:1002000029002C0000000000250028002B002E00F3
:1002100000000000240027002A002D00AD019A0BE9
:10022000BF0111241FBECFEFD8E0DEBFCDBF11E06C
:10023000A0E0B1E0EAEAF2E202C005900D92AC3330
:10024000B107D9F722E0ACE3B1E001C01D92A43EB2
:10025000B207E1F711E0C0E1D1E004C02197FE014F
:100260000E94190FCE30D107C9F70E94990D0C9446
:1002700048110C940000EF92FF921F93CF93DF93ED
:10028000EC017B01142F81E0888393E099838A83BA
:100290008B831C828D8388E08E8318861F821C8648
:1002A0001B861D866BE371E0CE010E960E946A0DDF
:1002B0006BE371E0CE0144960E946A0D6BE371E03E
:1002C000CE014A960E946A0D6BE371E0CE018096E2
:1002D0000E946A0DF8A6EFA21EA3DF91CF911F9195
:1002E000FF90EF900895CF93DF93EC018FA198A535
:1002F0000E94ED09CE0180960E94F80CCE014A962C
:100300000E94F80CCE0144960E94F80CCE010E9685
:10031000DF91CF910C94F80C0F931F93CF93DF9341
:10032000EC018C010E5F1F4F6BE371E0C8010E946E
:100330006A0D6BE371E0CE0108960E946A0D188287
:1003400019826BE371E0C8010E94890D85E08F87F7
:10035000DF91CF911F910F91089520E044E063E079
:1003600085E791E00E94C20942E065E771E08CE414
:1003700091E00E943B018CE391E00C948C0184E4B9
:1003800091E00E94F80C8EE391E00E94F80C8CE45E
:1003900091E00E94730185E791E00C94690926E0E1
:1003A00040E855E260E070E08AE392E00E94D60AFD
:1003B00068E071E08AE392E00E940E0C0C948F03D7
:1003C00060919C0170919D014AE050E08AE392E0C7
:1003D0000E94C00C60919F017091A0014AE050E022
:1003E0008AE392E00E94C00C0C9456058091F001C3
:1003F0009091E101891789F0E82FF0E0E056FE4F77
:1004000090819093EF018F5F883121F08093F0010C
:1004100081E008951092F001FBCF80E0089581E023
:100420008093EA0182E08093E00181ED8093DD0119
:1004300088EE8093DF0108952091D901E22FF0E04A
:10044000EE0FFF1FE854FE4F918380832F5F2C3007
:1004500019F02093D90108951092D9010895CF93EE
:10046000C82F8695869586958E7190E087549F4F0C
:100470000E941C02CC0FCE718C2F90E087549F4FAE
:10048000CF910C941C028091F1018093F0010E94A5
:10049000F601813021F48091EF010E942F020E9429
:1004A000F601813021F48091EF010E942F020E9419
:1004B000F601813021F48091EF010E942F020E9409
:1004C000F601813021F48091EF010E942F028BED23
:1004D00090E00E941C028091F0018093F101089548
:1004E0008CEE8093DB011092F3011092F4010895D9
:1004F00090919A01E92FF0E0E053FE4F80839F5FD7
:10050000983019F090939A01089510929A01809171
:10051000B10084608093B100089589E90E94780257
:1005200089E90E94780289E50E94780289E40C94A6
:100530007802809107010E947802809106010E9452
:1005400078028091F4010E9478028091F3010E9468
:1005500078028091EC01813041F480E29091EB01CE
:10056000913009F480610C94780280E0F7CF90918B
:10057000DE01911102C00C9478029F5F9093DE011E
:100580008062F9CF83EC0E94B7028091DF018F5F18
:100590008093DF01811109C081E08093EA0185E049
:1005A0008093E00186EF8093DF0108958CEE8093C5
:1005B000DB018BE80E94B7020E94990280E70E944B
:1005C000780283E80C94B7028091DD010E947802E2
:1005D0008091DD01863D51F481ED8093DD010E9423
:1005E0008D0280E00E9478020C94C2028F5FF5CFEA
:1005F00083EC0E94B7028091DF018F5F8093DF015F
:10060000811106C081E08093EA0189E08093E001D6
:100610000895809107018F70806D0E9478020E947A
:100620008D0280E00E9478020C94F802E091E001D3
:10063000EB3008F073C0F0E0E05EFC4F0C94190F53
:1006400042033903440354034D03560366035F0317
:10065000680384032B038CEE8093DB018BE40E9400
:10066000B7020E94990280E20E94780283E40C940F
:10067000B7028091DF018F5F8093DF01811102C09B
:100680000E940F020C94D6028CEE8093DB018BEC5F
:100690000E94B7028091DF0180FF0C94E4020E9467
:1006A000990280E10E9478020C94C2028CEE809341
:1006B000DB018BEC0E94B7028091DF0180FF0C947C
:1006C00009030E94990281E50E9478020C94F802C5
:1006D0008CEE8093DB018BEC0E94B7020E949902A2
:1006E00081E50E94780283EC0E94B7028091DF01CD
:1006F0008F5F8093DF01882389F081E08093EA0196
:1007000089E08093E00108958BEC0E94B7020E947B
:10071000990280E30E94780283ECA9CF0895CF93D9
:10072000DF93F894CEE6D0E01882259A239A209899
:10073000289A10928000E1E8F0E080E880838081D0
:1007400082608083B59AEFE6F0E0808180628083EA
:100750008FEA8093B30082E08093B00084E08093BE
:10076000B100E0E7F0E08081826080831092E101D7
:100770001092F10188EF8093E3011092D901109259
:10078000D8011092ED011092EC011092EB01109241
:10079000EA011092E7011092E6011092DE0181E475
:1007A0008093070181E08093060186EF8093DC014E
:1007B0000E9470021092EA011092E0018EED90E02A
:1007C0000E941C0284EB90E00E941C028BED90E0E2
:1007D0000E941C0285E091E00E941C028CE987BD0A
:1007E00014BC84B5826084BD85B5856085BD888173
:1007F000826088830E9416037894DF91CF910895D8
:100800001F920F920FB60F9211242F938F939F93E5
:10081000EF93FF938091B1008B7F8093B100E091C3
:100820009B01E830A0F5F0E0E053FE4F908188EFA7
:100830008093F50125E08091F5018823A1F02D9AA0
:10084000822F8A95F1F797FD0CC02B9A990F2D985E
:10085000822F8A95F1F78091F5018F5F8093F501E2
:10086000EACF2B98F3CF80919B018F5F80939B0100
:100870008091B10084608093B100FF91EF919F91CE
:100880008F912F910F900FBE0F901F90189510927F
:100890009B01F3CF1F920F920FB60F9211248F93EB
:1008A0009F9380919F018F5F853049F080939F01D6
:1008B0009F918F910F900FBE0F901F9018951092DF
:1008C0009F0181E080939E0180919C0190919D0108
:1008D000019690939D0180939C01EACF1F920F9205
:1008E0000FB60F9211242F938F939F93EF93FF9343
:1008F00080916F008E7F80936F001092ED01909138
:10090000E301993F0CF181E08093E6018091E101E0
:10091000E82FF0E0E056FE4F992329F02081220FC6
:1009200020839F5FF9CF98EF9093E3018F5F883129
:10093000A9F08093E1019091E1018091F101981378
:1009400003C081E08093E701FF91EF919F918F9128
:100950002F910F900FBE0F901F9018951092E101EC
:10096000EACF1F920F920FB60F9211242F933F934D
:100970004F938F939F93EF93FF9380918600909175
:1009800087009093E5018093E40110928500109216
:100990008400189918C0B09A80916F00816080938C
:1009A0006F0080918100806480938100B59AFF91EF
:1009B000EF919F918F914F913F912F910F900FBE8B
:1009C0000F901F90189581E08093ED019091810028
:1009D0009F7B90938100B59A90916F0090FFE7CF35
:1009E0008093ED0190916F009E7F90936F00209116
:1009F000E4013091E501213049E1340758F190EEEE
:100A00009093E2019091E301993F8CF28093E6018B
:100A10008091E101E82FF0E0E056FE4F992329F0A4
:100A20002081220F20839F5FF9CF98EF9093E301FD
:100A30008F5F883161F08093E1019091E1018091B5
:100A4000F1019813B4CF81E08093E701B0CF109209
:100A5000E101F3CF213082E0380708F4A8CF90916C
:100A6000E101E92FF0E0E056FE4F8081880F213C44
:100A7000394088F480838091E2018F5F8093E201A6
:100A8000811102C01092ED018091E3018F5F29F086
:100A90008093E3018CCF8160EDCF88EF8093E301F9
:100AA0009F5F9831A1F29093E101C7CF0F931F93FD
:100AB000CF934AE050E060919E018AE392E00E9469
:100AC000E60C80919E01813081F410929E010E947B
:100AD00016038091DA018F5F89F18093DA018091AA
:100AE000DB018F5FB1F18093DB018091E701813001
:100AF00031F41092E7018BE991E00E941C02809191
:100B0000E601813031F41092E60186EA91E00E941C
:100B10001C028091F1018093F0010E94F60188236C
:100B200009F48BC18091EF01833509F456C00E940E
:100B30002F028091F0018093F101EFCF8CE9809337
:100B4000DA011092EB018091F2018F7E8093F20125
:100B5000C6CF8CEE8093DB018091DC018F5F29F1A1
:100B60008093DC018091F30191E0980F292F2F7081
:100B70002A3059F19093F3018091F301803609F006
:100B8000B4CF1092F3018091F40191E0980F292FD6
:100B90002F702A30F1F09093F4018091F401803AA3
:100BA00009F0A3CF1092F401A0CF86EF8093DC016F
:100BB0008EED90E00E941C0284EB90E00E941C02EB
:100BC0008BED90E00E941C02CDCF895F8093F301F2
:100BD000D3CF895F8093F401E0CF0E94F601882390
:100BE00009F42BC18091EF018C3221F083E50E9442
:100BF0002F0298CF0E94F601882309F41EC180912C
:100C0000EF018093EE010E94F601882309F415C1DB
:100C10008091EE012091EF01280F3327331F2F3FE2
:100C2000310509F007C2982F937009F003C29CEFB9
:100C30009093DE019091F0019093F101883509F4D1
:100C400036C108F076C0843109F4F5C008F5883063
:100C500009F411C188F4813009F41EC1833009F40C
:100C600052C189ED90E00E941C028091EE010E9429
:100C70002F028BED90E00DC18C3009F46BC18031F7
:100C800081F71092EA011092E00180E991E001C140
:100C9000803309F4C2C130F5883109F408C18C32BF
:100CA00001F781E08093E90185E480930701809159
:100CB000940180939601809397018093980180938B
:100CC0009901809195018F5F80939501863011F491
:100CD0001092950180919501882309F4AEC08DE3AF
:100CE00091E0D7C0883309F4F4C08C3409F0B9CF4F
:100CF00081E08093E90183E480930701809194016E
:100D00008093950180939601809398018093990137
:100D1000809197018F5F80939701863011F4109234
:100D2000970180919701882309F487C08DE491E0B1
:100D3000B0C0883A09F4EDC008F03FC0883709F424
:100D4000E8C040F5803609F46AC0883609F089CFDA
:100D50008091EA01813031F488E08093E00184EFF2
:100D60008093DF010E9470028091060191E0980F4C
:100D7000909306019F709A3019F4895F8093060161
:100D800080910601803A19F481E08093060187E1A1
:100D900091E07FC08C3809F4FEC0803A09F061CF41
:100DA0008CE98093DA018091EB018111AFC081E081
:100DB0008093EB018EE191E06CC0883D09F489C01D
:100DC00030F58C3A09F408C18C3C09F04ACF81E037
:100DD0008093E90184E480930701809194018093DA
:100DE0009501809397018093980180939901809158
:100DF00096018F5F80939601863011F410929601D0
:100E0000809196018823C9F085E491E042C0843E38
:100E100091F1883F09F49CCF803E09F022CF81E018
:100E20008093E8019091EC0191116AC08093EC01EC
:100E30008CE291E02EC01092DE01E091D801809109
:100E4000D901E81709F404C1F0E0EE0FFF1FE854E0
:100E5000FE4F00811181F801C491CC2309F4EDC04B
:100E60006C2F8AE392E00E94030CCA3009F4E5C0BB
:100E70000F5F1F4FF0CF1092EC018091EA018111BA
:100E800002C00E940F028091E8018111D6CF86E84E
:100E900091E00E941C02D1CF8091EA01813011F4CF
:100EA0000E940F020E9470028BE791E0F2CF0E9435
:100EB000700280E791E00E941C028091070181503E
:100EC000809307018F7009F0B8CF86E48093070103
:100ED000B4CF0E9470028091E90181110EC085E6B5
:100EE00091E00E941C02809107018F5F80930701AF
:100EF000873408F4A2CF81E4E9CF1092E9019DCFB5
:100F00001092EC0195CF85E291E0C3CF1092EB01F6
:100F100051CF8091EA01813031F488E08093E00183
:100F200084EF8093DF010E94700280910601982F68
:100F30009F7019F4865080930601809106018150BC
:100F400080930601811103C089E9809306018CE03A
:100F500091E09FCF81E08093E90181E480930701D4
:100F600080919401809395018093960180939701DD
:100F700080939801809199018F5F809399018630C9
:100F800011F41092990180919901882309F455CFA9
:100F90008DE591E07ECF81E08093E90182E480934A
:100FA000070180919401809395018093960180932D
:100FB000970180939801809199018F5F80939901A7
:100FC000863011F41092990180919901882309F4D7
:100FD00034CF85E591E05DCF81E08093E90186E43F
:100FE00080930701809195018093960180939701EA
:100FF0008093980180939901809194018F5F8093F1
:101000009401863011F41092950180919501882306
:1010100009F413CF85E391E03CCF8091EA01813060
:1010200031F41092EA018AE08093E00106CF0E9439
:101030000F0203CF0E94430200CF8091D8018F5F3F
:101040008093D8018C3009F0F8CE1092D801F5CEFB
:10105000CF911F910F91089590E080E00895209125
:1010600038023091390228173907B9F49091F60106
:101070008091F701981789F0E091F601F0E0E850CF
:10108000FE4F80812091F60130E02F5F3F4F2F739C
:1010900033272093F60190E008958FEF9FEF089596
:1010A000EF92FF920F931F93CF93DF93DC015C9637
:1010B000ED90FC905D97E114F10479F481E090E00B
:1010C00013969C938E93129790E080E0DF91CF91DE
:1010D0001F910F91FF90EF9008955196ED91FC9123
:1010E000529750968C915097982F90950FB75E9687
:1010F0002C915E97122F127021FD6095F89420813B
:10110000112319F1282B2083E7012197F1F728E01B
:10111000462F50E0308160FF1AC0382B3083E70142
:101120002197F1F7BA0175956795215089F7112339
:1011300081F08081892380830FBF5C968D919C9183
:101140000197F1F781E090E0C1CF2923DCCF39236B
:10115000E5CF9081892BEFCF08952091380230910F
:1011600039022817390771F49091F6018091F7013F
:10117000981741F0E091F601F0E0E850FE4F8081D1
:1011800090E008958FEF9FEF0895209138023091FD
:1011900039022817390761F48091F7012091F6018F
:1011A00090E0805C9F4F821B91098F73992708956F
:1011B00090E080E00895E0913802F0913902E8175C
:1011C000F90769F4A389B4899C918589809589235D
:1011D0008C93109239021092380281E0089580E0D9
:1011E00008951F920F920FB60F9211242F933F93E1
:1011F0004F935F936F937F938F939F93AF93BF931F
:10120000EF93FF93E0913802F0913902309749F063
:10121000A685B7858585968D91FF14C09C918923FD
:10122000A1F4FF91EF91BF91AF919F918F917F9129
:101230006F915F914F913F912F910F900FBE0F9043
:101240001F9018959C91892361F7A389B4899C917B
:101250008589809589238C93868997890197F1F7F1
:10126000608D718DA685B785558538E020E0CB016E
:101270000197F1F7822F90E095958795282F4C9153
:10128000452309F02068315091F7868D81FD209526
:101290008091F70190E001968F7399273091F601C4
:1012A000381799F0A091F701B0E0A850BE4F2C93E9
:1012B0008093F701828D938D0197F1F7A389B4890B
:1012C0008C919589892B8C93ACCF868D8160868F8C
:1012D000F1CF29E131E0FC01318320830C94DB085C
:1012E0001F93CF93DF93EC01162F6E8D669561707F
:1012F00081E06827812F0E94C90E61E0812F0E9442
:101300008D0E812F90E0FC01E853FE4FE491E88BB5
:10131000FC01E052FE4FE491F0E0EE0FFF1FEC5FA6
:10132000FD4F859194919A8B898BDF91CF911F917D
:1013300008951F93CF93DF93EC01162F60E0812F68
:101340000E948D0E8E8D81FD04C061E0812F0E9470
:10135000C90E1C87812F90E0FC01E853FE4FE491F9
:10136000ED87FC01E052FE4FE491F0E0EE0FFF1F2D
:10137000E850FE4F859194919F878E87DF91CF91A2
:101380001F9108951F93CF93DF93EC01162F1B82BB
:101390001A8288EE93E0A0E0B0E08C839D83AE8358
:1013A000BF8389E191E0998388831F8A1E8A198E01
:1013B000188E1B8E1A8E1D8E1C8E8E8D8E7F20FB9E
:1013C00081F98E8F642FCE010E947009612FCE01AA
:1013D000DF91CF911F910C9499090C94DB08FC01CB
:1013E000918D228D892F90E0805C9F4F821B910907
:1013F0008F7399270895FC01918D828D981731F094
:10140000828DE80FF11D858D90E008958FEF9FEF9D
:101410000895FC01918D828D981761F0A28DAE0F19
:10142000BF2FB11D5D968C91928D9F5F9F73928FA0
:1014300090E008958FEF9FEF0895FC01538D448D48
:10144000252F30E0842F90E0821B930B541710F06F
:10145000CF9608950197089580E99BE0892B49F084
:1014600080E090E0892B29F00E94900B81110E946E
:10147000000080E090E0892B49F080E090E0892B2B
:1014800029F00E94000081110C9400000895FC01D5
:10149000A48DA80FB92FB11DA35ABF4F2C91848DD5
:1014A00090E001968F739927848FA689B7892C9332
:1014B000A089B1898C91837080648C93938D848D85
:1014C000981306C00288F389E02D80818F7D808388
:1014D0000895CF93DF93EC01888D8823B9F0AA8912
:1014E000BB89E889F9898C9185FD03C0808186FDDF
:1014F0000DC00FB607FCF7CF8C9185FFF2CF80812E
:1015000085FFEDCFCE010E94470AE9CFDF91CF9151
:101510000895EF92FF920F931F93CF93DF93EC0107
:1015200081E0888F9B8D8C8D98131AC0E889F9898A
:10153000808185FF15C09FB7F894EE89FF8960838D
:10154000E889F98980818370806480839FBF81E00E
:1015500090E0DF91CF911F910F91FF90EF90089550
:10156000F62E0B8D10E00F5F1F4F0F731127E02E2B
:101570008C8D8E110CC00FB607FCFACFE889F98963
:10158000808185FFF5CFCE010E94470AF1CFEB8D18
:10159000EC0FFD2FF11DE35AFF4FF0829FB7F89437
:1015A0000B8FEA89FB8980818062CFCFCF92DF9257
:1015B000EF92FF921F93CF93DF93EC016A017B01BF
:1015C000122FE889F98982E08083C11481EED80660
:1015D000E104F104A1F060E079E08DE390E0A7017F
:1015E00096010E94F70E2150310941095109569583
:1015F000479537952795211580E1380798F0E889B8
:10160000F989108260E874E88EE190E0A701960104
:101610000E94F70E2150310941095109569547950D
:1016200037952795EC85FD853083EE85FF852083F2
:10163000188EEC89FD891083EA89FB89808180619D
:101640008083EA89FB89808188608083EA89FB89BD
:10165000808180688083EA89FB8980818F7D808397
:10166000DF91CF911F91FF90EF90DF90CF90089581
:101670001F920F920FB60F9211242F938F939F9367
:10168000EF93FF93E0914A02F0914B028081E09149
:101690005002F091510282FD1BC090818091530253
:1016A0008F5F8F7320915402821741F0E0915302B3
:1016B000F0E0E65CFD4F958F80935302FF91EF9130
:1016C0009F918F912F910F900FBE0F901F901895A3
:1016D0008081F4CF1F920F920FB60F9211242F9397
:1016E0003F934F935F936F937F938F939F93AF93AA
:1016F000BF93EF93FF938AE392E00E94470AFF9122
:10170000EF91BF91AF919F918F917F916F915F9179
:101710004F913F912F910F900FBE0F901F901895F2
:101720008AE392E00E94EF0921E0892B09F420E08E
:10173000822F0895EAE3F2E01382128288EE93E0AA
:10174000A0E0B0E084839583A683B7838BE291E029
:101750009183808385EC90E09587848784EC90E08A
:101760009787868780EC90E0918B808B81EC90E06E
:10177000938B828B82EC90E0958B848B86EC90E04F
:10178000978B868B118E128E138E148E0895AF92C6
:10179000BF92CF92DF92EF92FF920F931F93CF935E
:1017A000DF936C017B018B01040F151FEB015E01C0
:1017B000AE18BF08C017D10759F06991D601ED9155
:1017C000FC910190F081E02DC6010995892B79F7F4
:1017D000C501DF91CF911F910F91FF90EF90DF90A6
:1017E000CF90BF90AF900895FB0101900020E9F7E2
:1017F0003197AF01461B570BDC01ED91FC91028044
:10180000F381E02D0994DC01ED91FC910190F081D0
:10181000E02D099469E371E00C94F40B0F931F938E
:10182000CF93DF938C01D0E0C0E06115710519F012
:101830000E94F40BEC01C8010E940A0C8C0F9D1F42
:10184000DF91CF911F910F9108958F929F92AF9248
:10185000BF92EF92FF920F931F93CF93DF93CDB779
:10186000DEB7A1970FB6F894DEBF0FBECDBF7C01E7
:10187000FA01CB0119A2223008F42AE08E010F5D93
:101880001F4F822E912CB12CA12CBF01A5019401D8
:101890000E94F70EF901CA016A300CF5605DD801AB
:1018A0006E938D01232B242B252B79F790E080E07C
:1018B000109721F0BD01C7010E94F40BA1960FB64D
:1018C000F894DEBF0FBECDBFDF91CF911F910F9176
:1018D000FF90EF90BF90AF909F908F900895695CBC
:1018E000DECFCF92DF92EF92FF920F931F93CF93B1
:1018F000DF932115310581F4DC01ED91FC9101901C
:10190000F081E02D642FDF91CF911F910F91FF9017
:10191000EF90DF90CF9009942A30310501F52AE04D
:1019200077FF1DC06A017B01EC016DE20E94030C90
:101930008C0144275527BA014C195D096E097F09AE
:101940002AE0CE010E94250C800F911FDF91CF91DC
:101950001F910F91FF90EF90DF90CF900895DF914E
:10196000CF911F910F91FF90EF90DF90CF900C944B
:10197000250C9A01AB01770F660B770B0C94710C59
:101980000F931F93CF93DF93EC010E94B90C8C014E
:10199000CE010E940A0C800F911FDF91CF911F9101
:1019A0000F9108952115310541F4DC01ED91FC9171
:1019B0000190F081E02D642F09940C94250C9A017C
:1019C000462F50E070E060E00C94D20C0F931F9310
:1019D000CF93DF93EC010E94DF0C8C01CE010E94BB
:1019E0000A0C800F911FDF91CF911F910F910895E5
:1019F000FC0180819181009711F00C94BB0F089538
:101A0000CF93DF93EC0188819981009711F00E94B8
:101A1000BB0F198218821D821C821B821A82DF91E1
:101A2000CF9108950F931F93CF93DF93EC018B0118
:101A30006F5F7F4F888199810E944410009751F019
:101A4000998388831B830A8381E0DF91CF911F9163
:101A50000F91089580E0F9CFCF93DF93EC01888157
:101A60009981892B49F08A819B818617970720F0FD
:101A700081E0DF91CF910895CE010E94120D88235D
:101A8000C1F38C819D81892B99F7E881F9811082BE
:101A9000EFCFEF92FF920F931F93CF93DF93EC0161
:101AA0007B018A01BA010E942C0D81110BC0CE016D
:101AB0000E94000DCE01DF91CF911F910F91FF90F9
:101AC000EF9008951D830C83B701888199810E944E
:101AD0000A11F0CFFC01118210821382128215824A
:101AE00014826115710551F0FB0101900020E9F7A6
:101AF0003197AF01461B570B0C94490D0895FB011C
:101B000001900020E9F73197AF01461B570B0C9469
:101B1000490DCF93DF93EC016115710531F00E94FF
:101B20007F0DCE01DF91CF9108950E94000DF9CF76
:101B300008950E94F20D0E94980D0E94CF01CCE200
:101B4000DAE00E94E0012097E1F30E942C0AF9CF2D
:101B50001F920F920FB60F9211242F933F938F93E2
:101B60009F93AF93BF938091D8029091D902A09197
:101B7000DA02B091DB023091D70223E0230F2D3738
:101B800058F50196A11DB11D2093D7028093D8026C
:101B90009093D902A093DA02B093DB028091DC0229
:101BA0009091DD02A091DE02B091DF020196A11DAD
:101BB000B11D8093DC029093DD02A093DE02B0930E
:101BC000DF02BF91AF919F918F913F912F910F9025
:101BD0000FBE0F901F90189526E8230F0296A11DA7
:101BE000B11DD2CF789484B5826084BD84B5816004
:101BF00084BD85B5826085BD85B5816085BDEEE615
:101C0000F0E0808181608083E1E8F0E010828081F3
:101C100082608083808181608083E0E8F0E0808161
:101C200081608083E1EBF0E0808184608083E0EB81
:101C3000F0E0808181608083E1E9F0E08081826072
:101C40008083808181608083E0E9F0E08081816031
:101C50008083E1EAF0E0808182608083808181601E
:101C60008083E0EAF0E0808181608083EAE7F0E051
:101C700080818460808380818260808380818160B4
:101C800080838081806880831092C1000895815094
:101C90008D3008F03DC0E82FF0E0EF5AF14F0C9482
:101CA000190F680E6C0E5E0E640E880E880E6F0E95
:101CB000750E790E7F0E880E830E890E809180003E
:101CC0008F77809380000895809180008F7DF9CF79
:101CD00084B58F7784BD089584B58F7DFBCF8091C7
:101CE000B0008F778093B00008958091B0008F7D11
:101CF000F9CF809190008F77809390000895809124
:101D000090008F7DF9CF8091A0008F778093A00005
:101D100008958091A0008F7DF9CFCF93DF9390E05D
:101D2000FC01E853FE4F249180529E4FFC018491A8
:101D30008823C9F090E0880F991FFC01E05FFD4FF8
:101D4000A591B491FC01EC5FFD4FC591D491611157
:101D50000DC09FB7F8948C91209582238C93888135
:101D6000282328839FBFDF91CF910895623051F4DB
:101D70009FB7F8943C91822F809583238C93E881C0
:101D80002E2BEFCF8FB7F894EC912E2B2C938FBF87
:101D9000EACF1F93CF93DF93282F30E0F901E0556E
:101DA000FE4F8491F901E853FE4FD491F901E052BE
:101DB000FE4FC491CC23A9F0162F81110E94470E2B
:101DC000EC2FF0E0EE0FFF1FEC5FFD4FA591B491FB
:101DD0008FB7F894EC91111108C0D095DE23DC93F5
:101DE0008FBFDF91CF911F910895DE2BF8CFA1E235
:101DF0001A2EAA1BBB1BFD010DC0AA1FBB1FEE1F85
:101E0000FF1FA217B307E407F50720F0A21BB30BCF
:101E1000E40BF50B661F771F881F991F1A9469F74B
:101E200060957095809590959B01AC01BD01CF01A7
:101E30000895EE0FFF1F0590F491E02D09940F9384
:101E40001F93CF93DF938230910510F482E090E0EE
:101E5000E091E202F091E30230E020E0B0E0A0E0A7
:101E6000309799F42115310509F44AC0281B390B24
:101E700024303105D8F58A819B816115710589F17E
:101E8000FB0193838283FE0111C040815181028155
:101E9000138148175907E0F04817590799F410972C
:101EA00061F012960C93129713961C933296CF0101
:101EB000DF91CF911F910F9108950093E20210934B
:101EC000E302F4CF2115310551F04217530738F0E2
:101ED000A901DB019A01BD01DF01F801C1CFEF01CA
:101EE000F9CF9093E3028093E202CDCFFE01E20F9F
:101EF000F31F819391932250310939832883D7CFDF
:101F00002091E0023091E102232B41F42091020163
:101F1000309103013093E1022093E002209100010F
:101F2000309101012115310541F42DB73EB74091A3
:101F3000040150910501241B350BE091E002F09162
:101F4000E102E217F307A0F42E1B3F0B2817390715
:101F500078F0AC014E5F5F4F2417350748F04E0F05
:101F60005F1F5093E1024093E002819391939FCFD2
:101F7000F0E0E0E09CCFCF93DF930097E9F0FC0125
:101F8000329713821282A091E202B091E302ED0136
:101F900030E020E01097A1F420813181820F931F5F
:101FA0002091E0023091E1022817390709F061C061
:101FB000F093E102E093E002DF91CF910895EA010E
:101FC000CE17DF07E8F54A815B819E014115510577
:101FD000B1F7E901FB83EA8349915991C40FD51FF9
:101FE000EC17FD0761F4808191810296840F951FA3
:101FF000E90199838883828193819B838A83F0E0BE
:10200000E0E012968D919C9113970097B9F52D9170
:102010003C911197CD010296820F931F2091E0020F
:102020003091E1022817390739F6309751F51092AF
:10203000E3021092E202B093E102A093E002BCCF6F
:10204000D383C28340815181840F951FC817D9075C
:1020500061F44E5F5F4F88819981480F591F51830A
:1020600040838A819B81938382832115310509F006
:10207000B0CFF093E302E093E2029ECFFD01DC01DA
:10208000C0CF13821282D7CFB0E0A0E0EAE4F0E143
:102090000C9413118C01009751F4CB010E941F0F77
:1020A0008C01C801CDB7DEB7E0E10C942F11FC0123
:1020B000E60FF71F9C0122503109E217F30708F4DD
:1020C0009DC0D901CD91DC911197C617D70798F023
:1020D000C530D10530F3CE0104978617970708F372
:1020E000C61BD70B2297C193D1936D937C93CF01DD
:1020F0000E94BB0FD6CF5B01AC1ABD0A4C018C0EFF
:102100009D1EA091E202B091E302512C412CF12CD2
:10211000E12C109731F58091E0029091E102881551
:10212000990509F05CC04616570608F058C0809122
:10213000000190910101009741F48DB79EB7409145
:10214000040150910501841B950BE817F90708F06D
:1021500055C0F093E102E093E002F90171836083DE
:10216000A0CF8D919C91119712966C901297139617
:102170007C901397A815B90559F56C0142E0C40E7F
:10218000D11CCA14DB0420F1AC014A195B09DA0145
:102190001296159780F06282738251834083D90131
:1021A0006D937C93E114F10471F0D7011396FC93C5
:1021B000EE93129776CF22968C0F9D1FF901918393
:1021C0008083F301EFCFF093E302E093E20269CF63
:1021D0004816590608F42C017D01D3019ACFCB0192
:1021E0000E941F0F7C01009749F0AE01B8010E94C8
:1021F0000111C8010E94BB0F870153CF10E000E01E
:1022000050CFFB01DC0102C001900D9241505040C3
:10221000D8F70895FB01DC0101900D920020E1F751
:1022200008952F923F924F925F926F927F928F927A
:102230009F92AF92BF92CF92DF92EF92FF920F9355
:102240001F93CF93DF93CDB7DEB7CA1BDB0B0FB65F
:10225000F894DEBF0FBECDBF09942A88398848881C
:102260005F846E847D848C849B84AA84B984C884B2
:10227000DF80EE80FD800C811B81AA81B981CE0FA9
:10228000D11D0FB6F894DEBF0FBECDBFED0108958E
:1022900011E0C0E1D1E004C0FE010E94190F2196B7
:0A22A000C131D107C9F7F894FFCF50
:1022AA000000E4028000010148656C6C6F20776FC2
:1022BA00726C642100000000005008C70B2C08ACA7
:1022CA0008C5082F08AD0800000000890AC70B1DC1
:0C22DA000A690AEF09090AFB090D0A0055
:00000001FF
