:100000000C94AB000C9467060C9440060C948E067E
:100010000C948E060C948E060C94D3000C941A0843
:100020000C94D3000C94D3000C9406070C94D300CA
:100030000C94D3000C94A3070C94E4070C94D30005
:100040000C94F6050C94D3000C94C4050C949E05F6
:100050000C94D3000C94D3000C94D3000C94D300D4
:100060000C94D3000C94D30052494E470D0A005F04
:1000700000000000434F4D2B4D41580D0A00434FE7
:100080004D2B4D55440D0A00434F4D2B4D42540D01
:100090000A00434F4D2B50560D0A00434F4D2B5035
:1000A0004E0D0A0000434F4D2B50410D0A00434FA7
:1000B0004D5F534D520A0000000000000000312E39
:1000C0003061004175646920436F6E63657274200E
:1000D00049204D756C74696D6564696120616E6459
:1000E0002050686F6E65204761746577617920568E
:1000F00065722E000D0A00000000000800020100D9
:1001000000030407000000000000000000000000E1
:1001100023002600290000000000240027002A00F8
:1001200000000000250028002B000404040404043F
:100130000404020202020202030303030303010296
:100140000408102040800102040810200102040865
:1001500010209008640811241FBECFEFD8E0DEBF46
:10016000CDBF24E0A6E7B2E001C01D92A030B207E7
:10017000E1F712E0A0E0B1E0E6E1F3E202C00590B1
:100180000D92A637B107D9F710E0CAEAD0E004C053
:100190002197FE010E94690FC93AD107C9F70E9451
:1001A00090090C947E110C940000AF92BF92CF92F4
:1001B000DF92EF92FF920F931F93CF93DF936C0127
:1001C0007B018B01040F151FEB015E01AE18BF0808
:1001D000C017D10759F06991D601ED91FC910190BA
:1001E000F081E02DC6010995892B79F7C501DF91D2
:1001F000CF911F910F91FF90EF90DF90CF90BF9024
:10020000AF900895FC01538D448D252F30E0842F4D
:1002100090E0821B930B541710F0CF96089501972E
:100220000895FC01918D828D981761F0A28DAE0F1B
:10023000BF2FB11D5D968C91928D9F5F9F73928FA2
:1002400090E008958FEF9FEF0895FC01918D828DCE
:10025000981731F0828DE80FF11D858D90E008959B
:100260008FEF9FEF0895FC01918D228D892F90E0F3
:10027000805C9F4F821B91098F7399270895FC0121
:10028000A48DA80FB92FB11DA35ABF4F2C91848DF7
:1002900090E001968F739927848FA689B7892C9354
:1002A000A089B1898C91837080648C93938D848DA7
:1002B000981306C00288F389E02D80818F7D8083AA
:1002C0000895EF92FF920F931F93CF93DF93EC016A
:1002D00081E0888F9B8D8C8D98131AC0E889F989ED
:1002E000808185FF15C09FB7F894EE89FF896083F0
:1002F000E889F98980818370806480839FBF81E071
:1003000090E0DF91CF911F910F91FF90EF900895B2
:10031000F62E0B8D10E00F5F1F4F0F731127E02E8D
:100320008C8D8E110CC00FB607FCFACFE889F989C5
:10033000808185FFF5CFCE010E943F01F1CFEB8D8B
:10034000EC0FFD2FF11DE35AFF4FF0829FB7F89499
:100350000B8FEA89FB8980818062CFCFCF93DF93B7
:10036000EC01888D8823B9F0AA89BB89E889F989CD
:100370008C9185FD03C0808186FD0DC00FB607FC02
:10038000F7CF8C9185FFF2CF808185FFEDCFCE0135
:100390000E943F01E9CFDF91CF91089590E0FC01E9
:1003A000E850FF4F2491FC01E25CFE4F3491FC01C8
:1003B000E65DFE4FE491EE23C9F0222339F02330AD
:1003C00001F1A8F4213019F1223029F1F0E0EE0F0B
:1003D000FF1FE05EFE4FA591B4918FB7F894EC91AA
:1003E000611126C030953E233C938FBF089527307E
:1003F000A9F02830C9F0243049F7809180008F7D22
:1004000003C0809180008F7780938000DFCF84B518
:100410008F7784BDDBCF84B58F7DFBCF8091B0001B
:100420008F778093B000D2CF8091B0008F7DF9CFCD
:100430003E2BDACF3FB7F8948091220390912303AB
:10044000A0912403B091250326B5A89B05C02F3F9A
:1004500019F00196A11DB11D3FBFBA2FA92F982FEA
:100460008827BC01CD01620F711D811D911D42E0E5
:10047000660F771F881F991F4A95D1F708958F92AD
:100480009F92AF92BF92CF92DF92EF92FF920E9423
:100490001A024B015C0188ECC82ED12CE12CF12C06
:1004A0000E941A02681979098A099B09683E7340FB
:1004B00081059105A8F321E0C21AD108E108F108ED
:1004C00088EE880E83E0981EA11CB11CC114D104D3
:1004D000E104F10429F7FF90EF90DF90CF90BF90F7
:1004E000AF909F908F90089508952091CF03309101
:1004F000D0032817390771F490911C0380911B03D6
:10050000981741F0E0911C03F0E0E552FD4F808127
:1005100090E008958FEF9FEF08950895EF92FF9276
:100520000F931F93CF93DF93DC015C96ED90FC90CB
:100530005D97E114F10479F481E090E013969C93C7
:100540008E93129790E080E0DF91CF911F910F91F1
:10055000FF90EF9008955196ED91FC91529750962F
:100560008C915097982F90950FB75E962C915E972F
:10057000122F127021FD6095F8942081112319F13A
:10058000282B2083E7012197F1F728E0462F50E040
:10059000308160FF1AC0382B3083E7012197F1F7D3
:1005A000BA0175956795215089F7112381F08081F3
:1005B000892380830FBF5C968D919C910197F1F701
:1005C00081E090E0C1CF2923DCCF3923E5CF9081B2
:1005D000892BEFCF2091CF033091D0032817390713
:1005E00071F480911B0320911C0390E0805C9F4F6D
:1005F000821B910960E470E00E94550F089590E01D
:1006000080E008952091CF033091D0032817390757
:10061000B9F490911C0380911B03981789F0E09125
:100620001C03F0E0E552FD4F808120911C0330E077
:100630002F5F3F4F2F73332720931C0390E00895C3
:100640008FEF9FEF089590E080E008958CEE809307
:10065000D8021092D5021092D40208952091D302AC
:10066000E22FF0E0EE0FFF1FE554FD4F91838083F2
:100670002F5F2C3019F02093D30208951092D302EB
:100680000895CF93C82F8695869586958E7190E0B4
:1006900089509F4F0E942E03CC0FCE718C2F90E07B
:1006A00089509F4FCF910C942E039091BA02E92F5D
:1006B000F0E0EE54FD4F80839F5F983019F09093E7
:1006C000BA0208951092BA028091B10084608093BA
:1006D000B10008959091B102911102C00C9455039C
:1006E0009F5F9093B1028062F9CF83EC0E946A030E
:1006F0008091D9028F5F8093D902811109C081E076
:100700008093D70285E08093DA0286EF8093D90246
:10071000089583EC0E946A038091D9028F5F8093D1
:10072000D902811106C081E08093D70289E08093CD
:10073000DA02089589E90E94550389E90E94550368
:1007400089E50E94550389E40C94550380910201C8
:100750008F70806D0E9455030E949A0380E00E9472
:1007600055030C948903CF93C091D6028C2F0E941D
:100770005503C63D59F481ED8093D6020E949A0339
:1007800080E00E945503CF910C947503CF5FC09316
:10079000D602F4CF809102010E945503809101019D
:1007A0000E9455038091D4020E9455038091D50286
:1007B0000E9455038091B002813041F480E2909113
:1007C000AF02913009F480610C94550380E0F7CFBB
:1007D0008CEE8093D8028BE80E946A030E94CA03C1
:1007E00080E70E94550383E80C946A0381E08093BC
:1007F000D70282E08093DA0281ED8093D60288EE00
:100800008093D9020895E091DA02EB3008F073C0CA
:10081000F0E0E35FFB4F0C94690F2F0426043104D2
:1008200041043A04430453044C045504710418046D
:100830008CEE8093D8028BE40E946A030E94CA0364
:1008400080E20E94550383E40C946A038091D902EC
:100850008F5F8093D902811102C00E94F6030C942D
:10086000E8038CEE8093D8028BEC0E946A0380919F
:10087000D90280FF0C94B3030E94CA0380E10E9456
:1008800055030C9475038CEE8093D8028BEC0E9478
:100890006A038091D90280FF0C94A6030E94CA03C8
:1008A00081E50E9455030C9489038CEE8093D80255
:1008B0008BEC0E946A030E94CA0381E50E945503E3
:1008C00083EC0E946A038091D9028F5F8093D902E2
:1008D000882389F081E08093D70289E08093DA024F
:1008E00008958BEC0E946A030E94CA0380E30E9471
:1008F000550383ECA9CF08958091AE029091AD028B
:10090000891789F0E82FF0E0EB56FD4F9081909326
:1009100094028F5F883121F08093AE0281E00895C8
:100920001092AE02FBCF80E00895809193028093F5
:10093000AE020E947C04813021F4809194020E94D6
:1009400041030E947C04813021F4809194020E9432
:1009500041030E947C04813021F4809194020E9422
:1009600041030E947C04813021F4809194020E9412
:10097000410384EF90E00E942E038091AE028093A9
:10098000930208952091F4033091F503232B39F459
:1009900021E0FC018081882361F020E00AC0BC01D5
:1009A0008091F0039091F1030E946E1121E0892B58
:1009B000A1F7822F0895FC0180819181009711F0A9
:1009C0000C941F1008950F931F93CF93DF93EC01A6
:1009D00088819981009759F02A813B812617370732
:1009E00030F081E0DF91CF911F910F9108958B013D
:1009F0006F5F7F4F0E94A810009759F099838883FA
:100A00001B830A832C813D81232B59F7FC01108223
:100A1000E8CF80E0E7CFEF92FF920F931F93CF9341
:100A2000DF93EC017B018A01BA010E94E304288173
:100A30003981811114C02115310519F0C9010E94B5
:100A40001F10198218821D821C821B821A82CE01FD
:100A5000DF91CF911F910F91FF90EF9008951D832B
:100A60000C83B701C9010E947711F1CFFC011182FB
:100A700010821382128215821482FB0101900020E1
:100A8000E9F73197AF01461B570B0C940B05FB019F
:100A900001900020E9F73197AF01461B570BDC01AD
:100AA000ED91FC910280F381E02D0994CF93DF93C7
:100AB000BC0186E293E00E944705EC016AE571E023
:100AC00086E293E00E9447058C0F9D1FDF91CF9136
:100AD000089581E391E00E94560581E080938402AD
:100AE0000895FC01448155816081718181ED93E01D
:100AF0000E94D5006AE571E081ED93E00C94470512
:100B0000CF93DF9300D000D000D0CDB7DEB76EE436
:100B100071E0CE0101960E943605CE0101960E9439
:100B20007105CE0101960E94DB0426960FB6F8945B
:100B3000DEBF0FBECDBFDF91CF9108951F920F9200
:100B40000FB60F9211242F933F934F935F936F93A0
:100B50007F938F939F93AF93BF93EF93FF9386E21F
:100B600093E00E943F01FF91EF91BF91AF919F9160
:100B70008F917F916F915F914F913F912F910F9046
:100B80000FBE0F901F9018951F920F920FB60F92E5
:100B900011242F938F939F93EF93FF93E09136034C
:100BA000F09137038081E0913C03F0913D0382FD99
:100BB0001BC0908180913F038F5F8F732091400312
:100BC000821741F0E0913F03F0E0EA5DFC4F958F22
:100BD00080933F03FF91EF919F918F912F910F9001
:100BE0000FBE0F901F9018958081F4CF1F920F9227
:100BF0000FB60F9211242F933F938F939F93AF9330
:100C0000BF9380911E0390911F03A0912003B09188
:100C1000210330911D0323E0230F2D3758F5019652
:100C2000A11DB11D20931D0380931E0390931F03EC
:100C3000A0932003B093210380912203909123037A
:100C4000A0912403B09125030196A11DB11D8093AD
:100C5000220390932303A0932403B0932503BF9111
:100C6000AF919F918F913F912F910F900FBE0F9059
:100C70001F90189526E8230F0296A11DB11DD2CF13
:100C80001F920F920FB60F9211242F933F934F9301
:100C90005F936F937F938F939F93AF93BF93EF93E4
:100CA000FF93E0910501F09106010995FF91EF9105
:100CB000BF91AF919F918F917F916F915F914F9174
:100CC0003F912F910F900FBE0F901F9018951F927C
:100CD0000F920FB60F9211242F933F934F935F9370
:100CE0006F937F938F939F93AF93BF93EF93FF93F4
:100CF000E0910301F09104010995FF91EF91BF91FB
:100D0000AF919F918F917F916F915F914F913F91A3
:100D10002F910F900FBE0F901F9018951F920F925A
:100D20000FB60F9211242F933F934F935F936F93BE
:100D30007F938F939F93AF93BF93EF93FF93E09134
:100D4000CF03F091D003309749F0A685B78585850C
:100D5000968D91FF14C09C918923A1F4FF91EF918E
:100D6000BF91AF919F918F917F916F915F914F91C3
:100D70003F912F910F900FBE0F901F9018959C914F
:100D8000892361F7A389B4899C91858980958923FA
:100D90008C93868997890197F1F7608D718DA6856F
:100DA000B785558538E020E0CB010197F1F7822F18
:100DB00090E095958795282F4C91452309F0206860
:100DC000315091F7868D81FD209580911B0390E035
:100DD00001968F73992730911C03381799F0A091D1
:100DE0001B03B0E0A552BD4F2C9380931B03828D53
:100DF000938D0197F1F7A389B4898C919589892BFB
:100E00008C93ACCF868D8160868FF1CF1F920F922D
:100E10000FB60F9211242F933F934F938F939F936D
:100E2000EF93FF93809186009091870090939202B8
:100E3000809391021092850010928400189918C036
:100E4000B09A80916F00816080936F0080918100E3
:100E5000806480938100B59AFF91EF919F918F916B
:100E60004F913F912F910F900FBE0F901F901895AB
:100E7000809181008F7B80938100B59A80916F0073
:100E800080FFEACF80916F008E7F80936F0020916A
:100E9000910230919202213049E1340760F180EEF5
:100EA0008093900290918F02993FB4F281E08093F9
:100EB0008E028091AD02E82FF0E0EB56FD4F9923B2
:100EC00029F02081220F20839F5FF9CF98EF909324
:100ED0008F028F5F883161F08093AD029091AD02F7
:100EE000809193029813B8CF81E080938D02B4CFA4
:100EF0001092AD02F3CF213082E0380708F4ACCF76
:100F00009091AD02E92FF0E0EB56FD4F8081880F04
:100F1000213C394068F48083809190028F5F8093F8
:100F2000900280918F028F5F29F080938F0294CF7F
:100F30008160F1CF88EF80938F029F5F9831C1F27B
:100F40009093AD02CBCF1F920F920FB60F92112448
:100F50002F938F939F93EF93FF9380916F008E7FDA
:100F600080936F0090918F02993F0CF181E0809304
:100F70008E028091AD02E82FF0E0EB56FD4F9923F1
:100F800029F02081220F20839F5FF9CF98EF909363
:100F90008F028F5F8831A9F08093AD029091AD02EE
:100FA00080919302981303C081E080938D02FF919A
:100FB000EF919F918F912F910F900FBE0F901F90E7
:100FC00018951092AD02EACF1F920F920FB60F92B2
:100FD00011248F939F9380918C028F5F80938C025A
:100FE00090918B029F5F90938B0290918A029F5FFA
:100FF00090938A02853029F410928C0281E08093CC
:10100000890280918B028A3029F410928B0281E050
:101010008093880280918A02843629F410928A0291
:1010200081E0809387029F918F910F900FBE0F9068
:101030001F9018951F920F920FB60F9211242F93A5
:101040008F939F93EF93FF938091B1008B7F809359
:10105000B100E0918602E830A0F5F0E0EE54FD4FDB
:10106000908188EF8093850225E080918502882316
:10107000A1F02D9A822F8A95F1F797FD0CC02B9A3B
:10108000990F2D98822F8A95F1F7809185028F5FB5
:1010900080938502EACF2B98F3CF809186028F5FF1
:1010A000809386028091B10084608093B100FF91AB
:1010B000EF919F918F912F910F900FBE0F901F90E6
:1010C000189510928602F3CF89EC93E00E94DB041E
:1010D00083EC93E00E94DB0486EF93E00E94DB0444
:1010E00080EF93E00E94DB0483E291E09093D203CF
:1010F0008093D1038091CF039091D003815D934081
:1011000071F4E091E403F091E50390818091E603AE
:101110008095892380831092D0031092CF03089585
:101120000F931F93CF93DF931092290310922803FC
:1011300088EE93E0A0E0B0E080932A0390932B0325
:10114000A0932C03B0932D0321E131E030932703CA
:101150002093260325EC30E03093330320933203B1
:1011600024EC30E0309335032093340320EC30E05E
:10117000309337032093360321EC30E0309339036A
:101180002093380322EC30E030933B0320933A0362
:1011900026EC30E030933D0320933C0310923F0354
:1011A0001092400310924103109242031092D40314
:1011B0001092D3038093D5039093D603A093D703C3
:1011C000B093D80383E291E09093D2038093D1034C
:1011D0001092E8031092E7031092EA031092E903D9
:1011E0001092EC031092EB031092EE031092ED03B9
:1011F0006091EF036E7F6D7F6093EF036695617082
:1012000081E0682784E00E94CE0142E451E0FA01C7
:1012100064918EE291E0FC012491222399F030E068
:10122000220F331FF901EA5EFE4FA591B491F90137
:10123000E05EFE4F259134912FB7F8943C91632BDB
:101240006C932FBFFA0144914093E103FC01849118
:10125000E82FF0E0EE0FFF1FE05EFE4F85919491C6
:101260009093E3038093E20301E411E0F8012491F9
:10127000CDE2D1E0FE0184918823C9F090E0880F8F
:10128000991FFC01EA5EFE4FA591B491FC01E05E5E
:10129000FE4F459154913FB7F8949C91822F8095D1
:1012A00098239C93FA019081892380833FBF80918A
:1012B000EF0381FD04C061E083E00E94CE0183E082
:1012C0008093DD03F80104910093DE03FE01C491D5
:1012D000EC2FF0E0EE0FFF1FE45FFE4F859194913D
:1012E0009093E0038093DF036CE571E080EF93E07F
:1012F0000E9436056CE571E086EF93E00E943605AA
:101300006CE571E083EC93E00E94360566E571E0E0
:1013100089EC93E0DF91CF911F910F910C943605EA
:10132000CF93DF9300D000D000D0CDB7DEB7E091EF
:101330003603F091370312E01083E0913203F0910D
:1013400033031082E0913403F09135038FEC8083F6
:1013500010923E03E0913A03F0913B0386E08083D4
:10136000E0913803F0913903808180618083E091BE
:101370003803F0913903808188608083E0913803DD
:10138000F0913903808180688083E0913803F09187
:10139000390380818F7D80838DE591E00E94560521
:1013A000F89410926E00259A239A2098289A109209
:1013B000800080E88093810080918100826080932A
:1013C0008100B59A80916F00806280936F008FEAF0
:1013D0008093B3001093B00084E08093B1008091BB
:1013E00070008260809370001092AD0210929302A0
:1013F00088EF80938F021092D30210928002109295
:10140000B0021092AF021092D70210928D02109289
:101410008E021092B10281E48093020181E08093F8
:10142000010186EF809381020E9426031092DA0266
:1014300083EC90E00E942E038EEB90E00E942E033E
:1014400084EF90E00E942E0388E690E00E942E0335
:101450008CE987BD14BC84B5826084BD85B5856088
:1014600085BD80916E00826080936E000E940304AF
:1014700078948CE691E00E94560589E695E0909379
:101480000401809303018091690083608093690067
:10149000E89A1092EC031092EB031092EA03109278
:1014A000E9031092E8031092E7038DE991E090932D
:1014B000EE038093ED039091DD03963108F047C071
:1014C0002DEB30E03093E8032093E7032BE931E084
:1014D0003093EA032093E9032CE231E03093EC03EC
:1014E0002093EB032091680084E0983048F031E0CD
:1014F0009E3008F430E081E001C0880F3A95EAF7A9
:10150000822B809368002DE630E0983050F02BE677
:1015100030E09E3030F02CE630E0963110F030E0D4
:1015200020E03093E5032093E403292F30E0983046
:1015300008F0C0C081E001C0880F9A95EAF7809357
:10154000E6038091ED039091EE030197F1F780910E
:10155000EB039091EC03892B49F1E091CF03F091DB
:10156000D00383E0E13DF80709F1309739F0A38912
:10157000B4899C918589809589238C938091EF0310
:101580008E7F8093EF0310921B0310921C0381ED5A
:1015900093E09093D0038093CF03E091E403F09124
:1015A000E50380819091E603892B80830E943F02AE
:1015B00062E771E0CE0101960E943605CE010196E8
:1015C0000E947105CE0101960E94DB040E943F0239
:1015D0006DE771E0CE0101960E943605CE010196BD
:1015E0000E947105CE0101960E94DB0411E093E098
:1015F000A92E24E0922E32E0832E4CEE742E56EF6C
:10160000652E6CEF562E76E4D72EE1E4CE2EF9E966
:101610004F2EA8E0BA2E80918802813081F46BE8C9
:1016200071E0CE0101960E943605CE0101960E941E
:101630007105CE0101960E94DB041092880281EDB3
:1016400093E00E94EA02181619060CF040C081EDE2
:1016500093E00E94EA02892BD1F181ED93E00E9490
:101660000203082F89831A82E090F403F090F503B7
:10167000EFEFEE1AFE0AB70180EF93E00E94E30459
:10168000882399F02091F0033091F1038091F403C5
:101690009091F503BE016F5F7F4F820F931F0E94F1
:1016A0007711F092F503E092F4030A3081F610937B
:1016B0007602CDCF9E3040F42850310981E001C040
:1016C000880F2A95EAF73BCF2E503109F7CF80914A
:1016D0007602882309F473C32091F4033091F50353
:1016E0008091FA039091FB032817390709F00BC387
:1016F0008091F0039091F1036091F6037091F703EC
:10170000009709F4F0C26115710539F4232B09F42F
:1017100056C3FC01808190E0F3C20E946E11F0C2BA
:101720008091F6039091F703009711F00E941F102B
:101730001092F7031092F6031092FB031092FA0333
:101740001092F9031092F80330C3FCE9F09383027E
:101750001092AF02809182028F7E809382023EC3FC
:101760007092D802809181028F5F29F1809381026B
:101770008091D50291E0980F292F2F702A3051F1D6
:101780009093D5028091D502803609F02EC3109235
:10179000D5028091D40291E0980F292F2F702A3022
:1017A000E9F09093D4028091D402803A09F01DC3ED
:1017B0001092D4021AC36092810283EC90E00E94DE
:1017C0002E038EEB90E00E942E0384EF90E00E94A7
:1017D0002E03CECF895F8093D502D4CF895F8093CB
:1017E000D402E1CF0E947C04882309F42DC18091AA
:1017F00094028C3221F083E50E94410313C30E94BE
:101800007C04882309F420C10091940200937F0294
:101810000E947C04882309F417C180919402800FF0
:101820009927991F8F3F910509F01EC2802F837061
:1018300009F01AC25092B1028091AE0280939302D5
:10184000083509F44EC108F07CC0043109F4FAC02F
:1018500030F5083009F419C190F4013009F434C1AD
:1018600085EA90E0033009F439C18FE690E00E94E8
:101870002E03802F0E94410384EF90E02FC10C3093
:1018800009F481C1003189F71092D7021092DA026F
:1018900089EB90E00E942E0360E272E008C1003301
:1018A00009F4D5C128F5083109F41BC10C32E9F659
:1018B00010937D0285E48093020180917C028093E5
:1018C0007A028093790280937802809377028091E4
:1018D0007B028F5F80937B02863011F410927B0233
:1018E00080917B02882309F4AFC082E790E0F6C0C4
:1018F000083309F407C10C3409F0B7CF10937D0207
:1019000083E48093020180917C0280937B02809328
:101910007A028093780280937702809179028F5FB8
:1019200080937902863011F41092790280917902C5
:10193000882321F084E790E00E942E036FE472E098
:10194000B6C0083A09F4FCC008F040C0083709F4F2
:10195000F7C050F5003609F46AC0083609F085CFA3
:101960008091D702813029F4B092DA0284EF80931B
:10197000D9020E9426038091010191E0980F909373
:1019800001019F709A3019F4895F80930101809161
:101990000101803A11F4109301018BE990E00E945B
:1019A0002E0369E272E083C00C3809F40EC1003ADC
:1019B00009F05BCF8CE9809383028091AF028111A3
:1019C000BCC01093AF0284EA90E088C0083D09F4DF
:1019D00099C028F50C3A09F41BC10C3C09F045CF1D
:1019E00010937D0284E48093020180917C028093B5
:1019F0007B028093790280937802809377028091B2
:101A00007A028F5F80937A02863011F410927A0204
:101A100080917A028823C1F083E790E05FC0043EA2
:101A2000A1F1083F09F49CCF003E09F01ECF1093AE
:101A30007E028091B00281117DC01093B0028EEAC7
:101A400090E04CC01092B102309080028091D3029D
:101A5000381609F416C1E32DF0E0EE0FFF1FE55430
:101A6000FD4FE080F180F7012490222009F4FFC0AF
:101A7000622D86E293E00E946101FAE02F1609F4DC
:101A8000F6C08FEFE81AF80AEECF1092B0028091FC
:101A9000D702811102C00E94F60380917E0281115B
:101AA00004C08BEB90E00E942E0367E172E0CE0150
:101AB00001960E943605CE0101960E947105CE0165
:101AC00001960E94DB04C0CF8091D702813011F4CF
:101AD0000E94F6030E9426038AEB90E00E942E03E8
:101AE000B3CF0E94260388EB90E00E942E038091E2
:101AF00002018150809302018F7009F0A5CFD0922E
:101B00000201A2CF0E94260380917D0281110FC0A5
:101B100087EB90E00E942E03809102018F5F8093FB
:101B20000201873408F490CFC09202018DCF109249
:101B30007D028ACF1092B00282CF1092AF0243CFC3
:101B40008091D702813029F4B092DA0284EF809339
:101B5000D9020E94260380910101982F9F7019F4E9
:101B60008650809301018091010181508093010191
:101B7000811102C04092010182E990E00E942E038F
:101B800062E372E094CF10937D02C09202018091D3
:101B90007C0280937B0280937A0280937902809307
:101BA0007802809177028F5F80937702863011F4FC
:101BB0001092770280917702882321F088E890E0E4
:101BC0000E942E036BE372E072CF10937D0282E4D9
:101BD0008093020180917C0280937B0280937A0241
:101BE0008093790280937802809177028F5F80934F
:101BF0007702863011F41092770280917702882361
:101C000021F08EE790E00E942E0365E472E04FCF52
:101C100010937D02D092020180917B0280937A0220
:101C200080937902809378028093770280917C027E
:101C30008F5F80937C02863011F410927B0280913A
:101C40007B02882309F400CF81E790E047CF8091A1
:101C5000D702813031F41092D7028AE08093DA0201
:101C6000F3CE0E94F603F0CE0E949504EDCE81E003
:101C7000830D809380028C3009F0E6CE10928002B2
:101C8000E3CE80918402882381F089E592E00E946E
:101C900056058091000166E672E08330B9F082302B
:101CA00079F40E9480051092840280910001825094
:101CB00061E0833008F060E085E00E94CE01ABCCAB
:101CC000843079F3813079F76EE672E0CE010196C7
:101CD0000E943605CE0101960E947105CE01019643
:101CE0000E94DB04E0CF6115710509F468C0232B65
:101CF00009F465C0FB01808190E09195819591097F
:101D0000892B09F45CC063E971E086E293E00E94EC
:101D100047058DEA91E00E94C204882331F082EBEE
:101D200091E00E945605809200018EEB91E00E94A6
:101D3000C204882331F083EC91E00E945605909212
:101D4000000181ED91E00E94C204882331F086ED0C
:101D500091E00E945605A092000184EE91E00E945D
:101D6000C204882331F089EE91E00E945605109359
:101D7000000189EF91E00E94C204882331F08EEFC8
:101D800091E00E945605109200016091F00370915D
:101D9000F1036115710509F4C3CC4091F40350912E
:101DA000F50386EF93E00E940B051092760250E057
:101DB00040E06CE571E080EF93E00E940B058091BC
:101DC0008902813091F4109289020E94030480916B
:101DD00083028F5F09F4B9CC809383028091D8028B
:101DE0008F5F09F4BDCC8093D80280918D02813041
:101DF00031F410928D028DEB90E00E942E038091C1
:101E00008E02813031F410928E028CEB90E00E94B1
:101E10002E03809193028093AE020E947C0488235B
:101E200009F412CE80919402833509F4DBCC0E9430
:101E300041038091AE0280939302EFCF2F923F92A5
:101E40004F925F926F927F928F929F92AF92BF92CA
:101E5000CF92DF92EF92FF920F931F93CF93DF9376
:101E6000CDB7DEB7CA1BDB0B0FB6F894DEBF0FBED3
:101E7000CDBF09942A88398848885F846E847D8420
:101E80008C849B84AA84B984C884DF80EE80FD8022
:101E90000C811B81AA81B981CE0FD11D0FB6F89498
:101EA000DEBF0FBECDBFED01089597FB072E16F4E0
:101EB000009407D077FD09D00E946F0F07FC05D072
:101EC0003EF4909581959F4F0895709561957F4F51
:101ED0000895EE0FFF1F0590F491E02D0994AA1BC1
:101EE000BB1B51E107C0AA1FBB1FA617B70710F005
:101EF000A61BB70B881F991F5A95A9F78095909537
:101F0000BC01CD0108950F931F93CF93DF938230CF
:101F1000910510F482E090E0E091FE03F091FF0360
:101F200030E020E0B0E0A0E0309799F421153105D1
:101F300009F44AC0281B390B24303105D8F58A81B1
:101F40009B816115710589F1FB0193838283FE01F9
:101F500011C0408151810281138148175907E0F077
:101F60004817590799F4109761F012960C9312973D
:101F700013961C933296CF01DF91CF911F910F9151
:101F800008950093FE031093FF03F4CF211531054C
:101F900051F04217530738F0A901DB019A01BD0146
:101FA000DF01F801C1CFEF01F9CF9093FF038093D8
:101FB000FE03CDCFFE01E20FF31F819391932250D8
:101FC000310939832883D7CF2091FC033091FD0359
:101FD000232B41F42091090130910A013093FD0334
:101FE0002093FC0320910701309108012115310550
:101FF00041F42DB73EB740910B0150910C01241BC9
:10200000350BE091FC03F091FD03E217F307A0F418
:102010002E1B3F0B2817390778F0AC014E5F5F4F3E
:102020002417350748F04E0F5F1F5093FD03409370
:10203000FC03819391939FCFF0E0E0E09CCFCF939E
:10204000DF930097E9F0FC01329713821282A0918E
:10205000FE03B091FF03ED0130E020E01097A1F402
:1020600020813181820F931F2091FC033091FD0369
:102070002817390709F061C0F093FD03E093FC03D2
:10208000DF91CF910895EA01CE17DF07E8F54A8185
:102090005B819E0141155105B1F7E901FB83EA839C
:1020A00049915991C40FD51FEC17FD0761F4808148
:1020B00091810296840F951FE9019983888382811B
:1020C00093819B838A83F0E0E0E012968D919C914E
:1020D00013970097B9F52D913C911197CD01029678
:1020E000820F931F2091FC033091FD0328173907BD
:1020F00039F6309751F51092FF031092FE03B0931A
:10210000FD03A093FC03BCCFD383C28340815181E4
:10211000840F951FC817D90761F44E5F5F4F888100
:102120009981480F591F518340838A819B819383F2
:1021300082832115310509F0B0CFF093FF03E093BE
:10214000FE039ECFFD01DC01C0CF13821282D7CFE8
:10215000B0E0A0E0EEEAF0E10C94200F8C010097D3
:1021600051F4CB010E94830F8C01C801CDB7DEB7BB
:10217000E0E10C943C0FFC01E60FF71F9C0122509C
:102180003109E217F30708F49DC0D901CD91DC9124
:102190001197C617D70798F0C530D10530F3CE0197
:1021A00004978617970708F3C61BD70B2297C1938E
:1021B000D1936D937C93CF010E941F10D6CF5B010A
:1021C000AC1ABD0A4C018C0E9D1EA091FE03B0916D
:1021D000FF03512C412CF12CE12C109731F580910B
:1021E000FC039091FD038815990509F05CC0461623
:1021F000570608F058C08091070190910801009798
:1022000041F48DB79EB740910B0150910C01841B96
:10221000950BE817F90708F055C0F093FD03E0931C
:10222000FC03F90171836083A0CF8D919C9111977C
:1022300012966C90129713967C901397A815B90577
:1022400059F56C0142E0C40ED11CCA14DB0420F124
:10225000AC014A195B09DA011296159780F0628287
:10226000738251834083D9016D937C93E114F1040F
:1022700071F0D7011396FC93EE93129776CF2296C6
:102280008C0F9D1FF90191838083F301EFCFF093B1
:10229000FF03E093FE0369CF4816590608F42C01AA
:1022A0007D01D3019ACFCB010E94830F7C0100975F
:1022B00049F0AE01B8010E946511C8010E941F10CB
:1022C000870153CF10E000E050CFFB01DC0102C0DA
:1022D00001900D9241505040D8F70895FB01DC0168
:1022E0008D91019080190110D9F3990B0895FB018C
:1022F000DC0101900D920020E1F7089510E0CAEA98
:10230000D0E004C0FE010E94690F2196CB3AD107AC
:06231000C9F7F894FFCFAD
:102316000101017402740200000004800000000044
:10232600006101D5000201AE013301110125010052
:102336000000008E02D50023038D02EA0202037517
:102346000252656365697665642066726F6D2073F7
:1023560074656572696E6720776865656C004254BE
:102366002B43450D0A00307843300D0A00496E694B
:102376007469616C697A6174696F6E005265616433
:102386007900434F4D2B564F4C390D0A00434F4DA4
:102396002B544F4E454F46460D0A0041542B4D597E
:1023A6000D0A0052656365697665642066726F6D15
:1023B600206274206D6F64756C653A20004D340D93
:1023C6000A004163746976652063616C6C004D3365
:1023D6000D0A004F7574676F696E672063616C6CD8
:1023E600004D320D0A00496E636F6D696E6720639A
:1023F600616C6C004D310D0A00436F6E6E6563743F
:1024060065642C2069646C65004D300D0A004E6FC2
:1024160020636F6E65637465642C20706172696EEB
:1024260067206D6F646500434F4D2B50410D0A00C8
:10243600434F4D2B50550D0A00434F4D2B504E0D1B
:102446000A00434F4D2B50560D0A00434F4D2B4D5E
:1024560042540D0A00434F4D2B4D55440D0A00437F
:102466004F4D2B4D41580D0A0050686F6E65206226
:102476007574746F6E0042542B43410D0A0042542A
:062486002B43520D0A0079
:00000001FF
