:020000040000FA
:100000000C9406010C942E010C942E010C94A40C5B
:100010000C94A40C0C94A40C0C942E010C945C076E
:100020000C942E010C942E010C940F080C942E01AC
:100030000C942E010C94CC070C94A6070C942E0162
:100040000C949D120C942E010C94510F0C94830F60
:100050000C942E010C942E010C942E010C942E0164
:100060000C942E010C942E010C942E010C94A40CD3
:100070000C942E010C942E010C942E010C942E0144
:100080000C942E010C942E010C942E010C942E0134
:100090000C942E010C942E010C942E010C942E0124
:1000A0000C942E010C942E010C942E010C942E0114
:1000B0000C942E0143616C6C20696E2070726F6726
:1000C000726573730A004F7574676F696E6720639A
:1000D000616C6C0A00496E636F6D696E67206361C5
:1000E0006C6C0A00436F6E6E65637465640A00444D
:1000F0006973636F6E6E65637465640A00312E30D8
:100100006100005F000D0A004175646920436F6E55
:10011000636572742049204D756C74696D656469FE
:100120006120616E642050686F6E65204761746560
:10013000776179205665722E0052494E470D0A00AC
:10014000434F4D2B50560D0A00434F4D2B504E0D33
:100150000A0000434F4D2B50410D0A00434F4D5FA5
:10016000534D520A00000000434F4D2B4D41580D96
:100170000A00434F4D2B4D55440D0A00434F4D2B64
:100180004D42540D0A00000000000000000A0D0E50
:100190000900030200000405080000000000000040
:1001A0000000000000000000010204081020408050
:1001B00001020408102001020408102040804001C0
:1001C00002040804040404040404040202020202F7
:1001D00002030303030303020203050505050000F0
:1001E00000002300260029002C000000000025004C
:1001F00028002B002E0000000000240027002A0009
:100200002D009A016204A90F9E019D0411241FBEB6
:10021000CFEFD8E0DEBFCDBF12E0A0E0B1E0E2E872
:10022000FDE202C005900D92A033B107D9F723E09B
:10023000A0E3B2E001C01D92AD3DB207E1F711E0CD
:10024000C4E0D1E004C02197FE010E944B14C130EC
:10025000D107C9F70E9429050C94B4160C9400002C
:100260000F931F93CF93DF93EC018C010E5F1F4F11
:1002700063E871E0C8010E94701163E871E0CE018B
:1002800008960E9470111882198263E871E0C80113
:100290000E94D01185E08F87DF91CF911F910F9140
:1002A0000895CF93DF93EC0161E08F850E948B135B
:1002B00060E08F850E94C71368E071E082E393E0FD
:1002C000DF91CF910C943D100F931F93CF93DF9349
:1002D000FC0120812223D1F0EC018C010E5F1F4F25
:1002E00065E271E0C8010E946E128823A1F081E0EE
:1002F00089831E8662E371E082E393E00E943D10F1
:1003000063E871E0C8010E94D0111882DF91CF919B
:100310001F910F91089565E471E0C8010E946E126B
:10032000882331F081E089838E8766E571E0E4CF30
:100330001982E6CF80E392E00C94300188E392E0EA
:100340000E94011182E392E00C940111EF92FF925E
:100350000F931F93CF93DF938C0182E393E00E946E
:10036000340E18161906F4F4E8012296EE24E394EC
:1003700082E393E00E94340E892BA1F082E393E0A4
:100380000E944E0EF82E682FCE010E942E128AE097
:10039000F812EECFF801E082BE0182E393E00E9402
:1003A0002B10E6CFDF91CF911F910F91FF90EF902F
:1003B0000895CF93DF93EC010E94A601CE010E9425
:1003C000640189818823C9F08E85811109C06091FB
:1003D000410270E04AE050E082E393E00E94EF10B7
:1003E0008E85882341F080914102811116C080E4FE
:1003F00092E00E94E30219821E868F85909141024D
:1004000061E0933008F060E0DF91CF910C94C71366
:1004100080E492E00E940403EECF9FEF980F9230A9
:10042000B8F3833041F780E492E00E942503E3CFE4
:100430008DE692E00C941210EF92FF920F931F93AF
:10044000CF93DF9300D000D000D0CDB7DEB78C01C2
:100450007B0170E060E0C7010E948B1242E050E037
:100460006DE671E00E945716892BB9F46FEE70E0CB
:10047000CE0101960E94F911BE016F5F7F4F82E3AA
:1004800093E00E941210CE0101960E94011181E0BA
:10049000F801808383E0818341C070E060E0C701A0
:1004A0000E948B1242E050E060E771E00E94571614
:1004B000892BA1F464EE70E0CE0101960E94F9113F
:1004C000BE016F5F7F4F82E393E00E941210CE0166
:1004D00001960E940111F8011082DCCF70E060E00B
:1004E000C7010E948B1242E050E063E771E00E9476
:1004F0005716892B31F565ED70E0CE0101960E940B
:10050000F911BE016F5F7F4F82E393E00E941210EA
:10051000CE0101960E940111F801118263E871E099
:10052000C7010E94D01181E026960FB6F894DEBF75
:100530000FBECDBFDF91CF911F910F91FF90EF9034
:10054000089570E060E0C7010E948B1242E050E025
:1005500066E771E00E945716892BA1F466EC70E003
:10056000CE0101960E94F911BE016F5F7F4F82E3B9
:1005700093E00E941210CE0101960E94011181E0C9
:10058000F80189CF70E060E0C7010E948B1242E061
:1005900050E069E771E00E945716892B09F0BECF41
:1005A00064EB70E0CE0101960E94F911BE016F5F0D
:1005B0007F4F82E393E00E941210CE0101960E94C9
:1005C000011182E0DDCFCF93DF9300D000D000D0C7
:1005D000CDB7DEB76CE771E0CE0101960E947011D5
:1005E000BE016F5F7F4F8DE692E00E941210CE0138
:1005F00001960E94011126960FB6F894DEBF0FBE39
:10060000CDBFDF91CF910895CF93DF9300D000D07D
:1006100000D0CDB7DEB764E871E0CE0101960E944C
:100620007011BE016F5F7F4F8DE692E00E94121045
:10063000CE0101960E94011126960FB6F894DEBFF6
:100640000FBECDBFDF91CF910895CF93DF9300D040
:1006500000D000D0CDB7DEB76CE871E0CE010196D6
:100660000E947011BE016F5F7F4F8DE692E00E9485
:100670001210CE0101960E94011126960FB6F89431
:10068000DEBF0FBECDBFDF91CF910895CF93DF9333
:1006900000D000D000D0CDB7DEB764E971E0CE0164
:1006A00001960E947011BE016F5F7F4F8DE692E050
:1006B0000E941210CE0101960E94011126960FB6DB
:1006C000F894DEBF0FBECDBFDF91CF910895CF93D9
:1006D000DF9300D000D000D0CDB7DEB76DE971E078
:1006E000CE0101960E947011BE016F5F7F4F8DE6B3
:1006F00092E00E941210CE0101960E9401112696EE
:100700000FB6F894DEBF0FBECDBFDF91CF91089535
:10071000CF93DF9300D000D000D0CDB7DEB766EA2C
:1007200071E0CE0101960E947011BE016F5F7F4F94
:100730008DE692E00E941210CE0101960E940111F6
:1007400026960FB6F894DEBF0FBECDBFDF91CF91D6
:100750000895CF93DF9300D000D000D0CDB7DEB79F
:100760006FEA71E0CE0101960E947011BE016F5FC9
:100770007F4F8DE692E00E941210CE0101960E94FA
:10078000011126960FB6F894DEBF0FBECDBFDF91E4
:10079000CF9108950F931F93CF93DF93CDB7DEB71B
:1007A0002C970FB6F894DEBF0FBECDBF8B0168EB60
:1007B00071E0CE0107960E947011B801CE01079634
:1007C0000E94411261E871E00E945412BC01CE0106
:1007D00001960E94C711BE016F5F7F4F8DE692E0C8
:1007E0000E941210CE0101960E940111CE010796BF
:1007F0000E9401112C960FB6F894DEBF0FBECDBF3C
:10080000DF91CF911F910F910895CF93DF9300D087
:1008100000D000D0CDB7DEB768EC71E0CE01019614
:100820000E947011BE016F5F7F4F8DE692E00E94C3
:100830001210CE0101960E94011126960FB6F8946F
:10084000DEBF0FBECDBFDF91CF9108950F931F93F1
:10085000CF93DF9300D000D000D0CDB7DEB78C01AE
:1008600040E855E260E070E08DE692E00E94A20D63
:1008700064E670E080E090E00E940C13C8010E94E2
:10088000050464E670E080E090E00E940C1366EDE1
:1008900071E0CE0101960E947011BE016F5F7F4F23
:1008A000C8010E94CA03CE0101960E94011126963A
:1008B0000FB6F894DEBF0FBECDBFDF91CF911F9171
:1008C0000F910895CF93DF9320E044E063E08DE63D
:1008D00092E00E94770DC0E4D2E081E0888393E04B
:1008E00099838A831B828C838D8388E08E8318860C
:1008F0001F821C861B861D8663E871E08EE492E0F1
:100900000E9470111C8A63E871E085E592E00E9404
:10091000701163E871E08BE592E00E94701163E86A
:1009200071E081E692E00E94701163E871E087E671
:1009300092E0DF91CF910C94701187E692E00E94D3
:10094000011181E692E00E9401118BE592E00E9484
:10095000011185E592E00E9401118EE492E00E946F
:1009600001118DE692E00C941C0DCF92DF92EF9274
:10097000FF920F931F93CF93DF9300D000D000D04E
:10098000CDB7DEB78C0180919402813099F460EC90
:1009900071E0CE0101960E947011BE016F5F7F4F22
:1009A0008DE692E00E941210CE0101960E94011184
:1009B000109294028DE692E00E944D0C18161906D2
:1009C000DCF468018EE0C80ED11CEE24E3948DE6C1
:1009D00092E00E944D0C892B79F08DE692E00E9406
:1009E000B70BF82E682FC6010E942E12EAE0FE1205
:1009F000EECFF801E48AEBCFF80184898823D1F0A7
:100A00007801FEE0EF0EF11CB701CE0101960E94C5
:100A1000C711BE016F5F7F4FC8010E941C02CE014B
:100A200001960E940111F801148A63E871E0C70180
:100A30000E94D01126960FB6F894DEBF0FBECDBF30
:100A4000DF91CF911F910F91FF90EF90DF90CF90AA
:100A5000089526E040E855E260E070E082E393E02C
:100A60000E94F90E0E94E00680E392E00E9451018C
:100A700080E492E00E94260480E492E00E94B504A3
:100A80000E94B40880E392E00E94D901F5CF8091E2
:100A9000E8029091D902891789F0E82FF0E0E85632
:100AA000FD4F90819093E7028F5F883121F0809312
:100AB000E80281E008951092E802FBCF80E00895FB
:100AC00081E08093E20282E08093D80281ED8093FE
:100AD000D50288EE8093D70208952091D102E22FAB
:100AE000F0E0EE0FFF1FE055FD4F918380832F5FF5
:100AF0002C3019F02093D10208951092D10208955C
:100B0000CF93C82F8695869586958E7190E08E5FDF
:100B10009E4F0E946D05CC0FCE718C2F90E08E5FA2
:100B20009E4FCF910C946D058091E9028093E8026D
:100B30000E944705813021F48091E7020E948005E0
:100B40000E944705813021F48091E7020E948005D0
:100B50000E944705813021F48091E7020E948005C0
:100B60000E944705813021F48091E7020E948005B0
:100B700085E091E00E946D058091E8028093E90292
:100B800008958CEE8093D3021092EB021092EC0247
:100B9000089590919202E92FF0E0E853FD4F808391
:100BA0009F5F983019F090939202089510929202EC
:100BB0008091B10084608093B100089589E90E941A
:100BC000C90589E90E94C90589E50E94C90589E42A
:100BD0000C94C905809107010E94C9058091060106
:100BE0000E94C9058091EC020E94C9058091EB0228
:100BF0000E94C9058091E402813041F480E2909125
:100C0000E302913009F480610C94C90580E0F7CFCC
:100C10009091D602911102C00C94C9059F5F9093E8
:100C2000D6028062F9CF83EC0E9408068091D70239
:100C30008F5F8093D702811109C081E08093E20227
:100C400085E08093D80286EF8093D70208958CEEDA
:100C50008093D3028BE80E9408060E94EA0580E791
:100C60000E94C90583E80C9408068091D5020E9471
:100C7000C9058091D502863D51F481ED8093D5025E
:100C80000E94DE0580E00E94C9050C9413068F5F68
:100C9000F5CF83EC0E9408068091D7028F5F809386
:100CA000D702811106C081E08093E20289E080933F
:100CB000D8020895809107018F70806D0E94C90548
:100CC0000E94DE0580E00E94C9050C944906E0916F
:100CD000D802EB3008F073C0F0E0EF58F94F0C94F5
:100CE0004B1493068A069506A5069E06A706B70628
:100CF000B006B906D5067C068CEE8093D3028BE451
:100D00000E9408060E94EA0580E20E94C90583E469
:100D10000C9408068091D7028F5F8093D7028111CF
:100D200002C00E9460050C9427068CEE8093D302CB
:100D30008BEC0E9408068091D70280FF0C94350648
:100D40000E94EA0580E10E94C9050C9413068CEE0E
:100D50008093D3028BEC0E9408068091D70280FF1B
:100D60000C945A060E94EA0581E50E94C9050C947C
:100D700049068CEE8093D3028BEC0E9408060E94F9
:100D8000EA0581E50E94C90583EC0E94080680916E
:100D9000D7028F5F8093D702882389F081E0809308
:100DA000E20289E08093D80208958BEC0E94080645
:100DB0000E94EA0580E30E94C90583ECA9CF08954B
:100DC000CF93DF9368ED71E082E393E00E943D10E2
:100DD000F894CEE6D0E01882259A239A2098289A93
:100DE00010928000E1E8F0E080E8808380818260FA
:100DF0008083B59AEFE6F0E08081806280838FEA9D
:100E00008093B30082E08093B00084E08093B100CF
:100E1000E0E7F0E08081826080831092D902109236
:100E2000E90288EF8093DB021092D1021092D00287
:100E30001092E5021092E4021092E3021092E20294
:100E40001092DF021092DE021092D60281E48093AB
:100E5000070181E08093060186EF8093D4020E940F
:100E6000C1051092E2021092D80288E091E00E943F
:100E70006D058DEF90E00E946D0585E091E00E9488
:100E80006D0589E391E00E946D058CE987BD14BC76
:100E900084B5826084BD85B5856085BD88818260AA
:100EA00088830E946706789467EE71E082E393E09E
:100EB000DF91CF910C943D101F920F920FB60F92BD
:100EC00011242F938F939F93EF93FF938091B10001
:100ED0008B7F8093B100E0919302E830A0F5F0E0C1
:100EE000E853FD4F908188EF8093ED0225E08091DB
:100EF000ED028823A1F02D9A822F8A95F1F797FDB4
:100F00000CC02B9A990F2D98822F8A95F1F780911A
:100F1000ED028F5F8093ED02EACF2B98F3CF8091A3
:100F200093028F5F809393028091B10084608093DD
:100F3000B100FF91EF919F918F912F910F900FBE74
:100F40000F901F90189510929302F3CF1F920F925B
:100F50000FB60F9211248F939F93909197029F5FEA
:100F600090939702809195028F5F809395029530C0
:100F700029F41092970291E090939602893129F416
:100F80001092950281E0809394029F918F910F902F
:100F90000FBE0F901F9018951F920F920FB60F92D1
:100FA00011242F938F939F93EF93FF9380916F0062
:100FB0008E7F80936F001092E5029091DB02993F43
:100FC0000CF181E08093DE028091D902E82FF0E0FD
:100FD000E856FD4F992329F02081220F20839F5F3F
:100FE000F9CF98EF9093DB028F5F8831A9F080935F
:100FF000D9029091D9028091E902981303C081E04F
:101000008093DF02FF91EF919F918F912F910F902D
:101010000FBE0F901F9018951092D902EACF1F9221
:101020000F920FB60F9211242F933F934F938F93EC
:101030009F93EF93FF938091860090918700909308
:10104000DD028093DC0210928500109284001899D2
:1010500018C0B09A80916F00816080936F0080917A
:101060008100806480938100B59AFF91EF919F91F8
:101070008F914F913F912F910F900FBE0F901F9026
:10108000189581E08093E502909181009F7B909379
:101090008100B59A90916F0090FFE7CF8093E502B1
:1010A00090916F009E7F90936F002091DC023091B1
:1010B000DD02213049E1340758F190EE9093DA02D5
:1010C0009091DB02993F8CF28093DE028091D902ED
:1010D000E82FF0E0E856FD4F992329F02081220FF8
:1010E00020839F5FF9CF98EF9093DB028F5F883169
:1010F00061F08093D9029091D9028091E90298130E
:10110000B4CF81E08093DF02B0CF1092D902F3CF49
:10111000213082E0380708F4A8CF9091D902E92F56
:10112000F0E0E856FD4F8081880F213C394088F47B
:1011300080838091DA028F5F8093DA02811102C08E
:101140001092E5028091DB028F5F29F08093DB0231
:101150008CCF8160EDCF88EF8093DB029F5F983169
:10116000A1F29093D902C7CFEF92FF921F93CF9332
:10117000DF9300D000D000D0CDB7DEB780919602CB
:10118000813081F4109296020E9467068091D2020B
:101190008F5F89F18093D2028091D3028F5FB1F18A
:1011A0008093D3028091DF02813031F41092DF020C
:1011B0008BE891E00E946D058091DE02813031F470
:1011C0001092DE028CE891E00E946D058091E902A8
:1011D0008093E8020E944705882309F48CC180911E
:1011E000E702833509F448C00E9480058091E80237
:1011F0008093E902EFCF8CE98093D2021092E30250
:101200008091EA028F7E8093EA02C6CF8CEE8093B3
:10121000D3028091D4028F5F29F18093D402809110
:10122000EB0291E0980F292F2F702A30E9F090936C
:10123000EB028091EB02803609F0B4CF1092EB0202
:101240008091EC0291E0980F292F2F702A3081F0C5
:101250009093EC028091EC02803A09F0A3CF1092B7
:10126000EC02A0CF86EFD9CF895F8093EB02E1CF6C
:10127000895F8093EC02EECF0E944705882309F432
:101280003AC18091E7028C3221F083E50E9480050B
:10129000A6CF0E944705882309F42DC18091E7025B
:1012A0008093E6020E944705882309F424C18091B7
:1012B000E6022091E702280F3327331F2F3F310525
:1012C00009F038C2982F937009F034C29CEF9093C4
:1012D000D6029091E8029093E902883509F44CC156
:1012E00008F07FC0843109F404C138F5883009F46E
:1012F00021C188F4813009F432C1833009F468C116
:1013000083E091E00E946D058091E6020E948005D5
:1013100085E091E02EC18C3009F487C1803181F7DE
:101320001092E2021092D8028AE891E00E946D05C4
:1013300080E492E00E946703DEC0803309F4EDC1CF
:1013400030F5883109F418C18C32D1F681E08093F0
:10135000E10285E48093070180918C0280938E02E4
:1013600080938F02809390028093910280918D02EE
:101370008F5F80938D02863011F410928D028091E0
:101380008D02882309F4B7C086E691E0F2C0883365
:1013900009F404C18C3409F0B3CF81E08093E102F9
:1013A00083E48093070180918C0280938D02809367
:1013B0008E02809390028093910280918F028F5FC2
:1013C00080938F02863011F410928F0280918F02E9
:1013D000882321F088E691E00E946D0561E072E0CB
:1013E00047C1883A09F4FAC008F045C0883709F4C3
:1013F000F5C070F5803609F470C0883609F080CFEA
:101400008091E202813031F488E08093D80284EF49
:101410008093D7020E94C1058091060191E0980F48
:10142000909306019F709A3019F4895F80930601AA
:1014300080910601803A19F481E08093060189E4E5
:1014400091E00E946D0580E492E00E94880353C001
:101450008C3809F41DC1803A09F052CF8CE9809391
:10146000D2028091E3028111B6C081E08093E30251
:1014700082E591E07EC0883D09F490C030F58C3A59
:1014800009F42AC18C3C09F03BCF81E08093E10252
:1014900084E48093070180918C0280938D02809375
:1014A0008F02809390028093910280918E028F5FD1
:1014B00080938E02863011F410928E0280918E02FB
:1014C0008823C9F087E691E054C0843E99F1883FB3
:1014D00009F496CF803E09F013CF81E08093E002BB
:1014E0009091E402911171C08093E4028CE591E047
:1014F00040C01092D602E091D0028091D102E8174C
:1015000009F426C1F0E0EE0FFF1FE055FD4FE0802B
:10151000F180F7011491112309F40FC1612F82E3C7
:1015200093E00E9420101A3009F407C1FFEFEF1A70
:10153000FF0AEFCF1092E4028091E202811102C013
:101540000E9460058091E002811104C089E891E069
:101550000E946D0580E492E00E944603CCCF80910A
:10156000E202813011F40E9460050E94C10588E802
:1015700091E00E946D05BFCF0E94C10587E891E010
:101580000E946D05809107018150809307018F7043
:1015900009F0B1CF86E480930701ADCF0E94C10569
:1015A0008091E10281110EC086E891E00E946D05F4
:1015B000809107018F5F80930701873408F49BCFE8
:1015C00081E4E9CF1092E10296CF1092E4028ECF2F
:1015D00083E591E0CECF1092E3024ACF8091E20200
:1015E000813031F488E08093D80284EF8093D70271
:1015F0000E94C10580910601982F9F7019F48650B2
:10160000809306018091060181508093060181112B
:1016100003C089E98093060180E491E00E946D0592
:1016200080E492E00E94A90366CF81E08093E1020A
:1016300081E48093070180918C0280938D028093D6
:101640008E0280938F0280939002809191028F5F2F
:1016500080939102863011F4109291028091910250
:10166000882321F08CE791E00E946D056DEE71E01A
:10167000CE0101960E947011BE016F5F7F4F80E422
:1016800092E00E941802CE0101960E94011133CF10
:1016900081E08093E10282E48093070180918C02D3
:1016A00080938D0280938E0280938F0280939002AC
:1016B000809191028F5F80939102863011F4109295
:1016C000910280919102882321F082E791E00E94AB
:1016D0006D0567EF71E0CCCF81E08093E10286E495
:1016E0008093070180918D0280938E0280938F02F8
:1016F000809390028093910280918C028F5F8093FF
:101700008C02863011F410928D0280918D02882314
:1017100009F4F1CE85E691E02CCF8091E202813090
:1017200031F41092E2028AE08093D802E4CE0E9463
:101730006005E1CE0E949405DECE8091D0028F5FDD
:101740008093D0028C3009F0D6CE1092D002D3CE46
:1017500026960FB6F894DEBF0FBECDBFDF91CF91B6
:101760001F91FF90EF90089590E080E00895209100
:1017700030033091310328173907B9F49091EE0204
:101780008091EF02981789F0E091EE02F0E0E051CD
:10179000FD4F80812091EE0230E02F5F3F4F2F738D
:1017A00033272093EE0290E008958FEF9FEF089586
:1017B000EF92FF920F931F93CF93DF93DC015C9620
:1017C000ED90FC905D97E114F10479F481E090E0F4
:1017D00013969C938E93129790E080E0DF91CF91C7
:1017E0001F910F91FF90EF9008955196ED91FC910C
:1017F000529750968C915097982F90950FB75E9670
:101800002C915E97122F127021FD6095F894208123
:10181000112319F1282B2083E7012197F1F728E004
:10182000462F50E0308160FF1AC0382B3083E7012B
:101830002197F1F7BA0175956795215089F7112322
:1018400081F08081892380830FBF5C968D919C916C
:101850000197F1F781E090E0C1CF2923DCCF392354
:10186000E5CF9081892BEFCF0895209130033091FF
:1018700031032817390771F49091EE028091EF023D
:10188000981741F0E091EE02F0E0E051FD4F8081C9
:1018900090E008958FEF9FEF0895209130033091ED
:1018A00031032817390771F48091EF022091EE027D
:1018B00090E0805C9F4F821B910960E470E00E9481
:1018C000F613089590E080E00895E0913003F091E0
:1018D0003103E817F90769F4A389B4899C918589D4
:1018E000809589238C93109231031092300381E00C
:1018F000089580E00895CF93DF93EC018A8D9B8D4E
:10190000892B01F180913003909131038C179D0751
:10191000C9F0009711F00E94650C8E8D8E7F8E8F1E
:101920001092EF021092EE02D0933103C093300375
:10193000EB89FC8980819D89892B808381E0DF91FF
:10194000CF91089580E0FBCF1F920F920FB60F92B8
:1019500011242F933F934F935F936F937F938F93B4
:101960009F93AF93BF93EF93FF93E0913003F09178
:101970003103309749F0A685B7858585968D91FF0F
:1019800014C09C918923A1F4FF91EF91BF91AF9175
:101990009F918F917F916F915F914F913F912F9187
:1019A0000F900FBE0F901F9018959C91892361F79F
:1019B000A389B4899C918589809589238C93868994
:1019C00097890197F1F7608D718DA685B78555854B
:1019D00038E020E0CB010197F1F7822F90E0959558
:1019E0008795282F4C91452309F02068315091F7B5
:1019F000868D81FD20958091EF0290E001968F7396
:101A000099273091EE02381799F0A091EF02B0E0DB
:101A1000A051BD4F2C938093EF02828D938D01973F
:101A2000F1F7A389B4898C919589892B8C93ACCFDC
:101A3000868D8160868FF1CF2FE032E0FC0131830B
:101A400020830C94650C1F93CF93DF93EC01162F2A
:101A50006E8D6695617081E06827812F0E94C713A3
:101A600061E0812F0E948B13812F110F990BFC01D4
:101A7000E855FE4FE491E88BFC01ED53FE4FE491F5
:101A8000F0E0EE0FFF1FE651FE4F859194919A8B87
:101A9000898BDF91CF911F9108951F93CF93DF938F
:101AA000EC01162F60E0812F0E948B138E8D81FD3B
:101AB00004C061E0812F0E94C7131C87812F110F82
:101AC000990BFC01E855FE4FE491ED87FC01ED53C5
:101AD000FE4FE491F0E0EE0FFF1FE252FE4F8591C2
:101AE00094919F878E87DF91CF911F9108951F93C7
:101AF000CF93DF93EC01162F1B821A8288EE93E0BE
:101B0000A0E0B0E08C839D83AE83BF838FE092E042
:101B1000998388831F8A1E8A198E188E1B8E1A8EAF
:101B20001D8E1C8E8E8D8E7F20FB81F98E8F642FF3
:101B3000CE010E94230D612FCE01DF91CF911F9125
:101B40000C944D0DCF93DF93EC019A01AB011B8EEA
:101B50001A8E198E188E1F8A1E8A60E079E08DE336
:101B600090E00E942C14F901C9010397243031053B
:101B700010F481E090E09D8F8C8F6C856B3108F0C4
:101B800061C0C901969587958431910558F14397B5
:101B90009F8B8E8BC9010597369710F481E090E0FA
:101BA000998F888FC901880F991F280F391F369583
:101BB0002795369527952D303105B8F02C503109F1
:101BC0003B8F2A8F9091680084E0683094F06E30EB
:101BD0007CF08CEE860F823058F082E067314CF05A
:101BE00088E007C081E090E0D3CF21E030E0E8CF8B
:101BF00081E0892B809368009C852DE630E0983049
:101C00009CF09E307CF08CEE890F823058F02CE6F0
:101C100030E097314CF023E730E09B312CF030E09E
:101C200020E002C02BE630E03C8B2B8B98307CF41C
:101C300081E001C0880F9A95EAF78D8B8C8D9D8D80
:101C40000197F1F7CE01DF91CF910C947B0C9E3080
:101C500014F49850EDCF963114F49E50E9CF80E4FF
:101C6000963159F39751E4CFFC01918D228D892F44
:101C700090E0805C9F4F821B91098F739927089594
:101C8000FC01918D828D981731F0828DE80FF11D46
:101C9000858D90E008958FEF9FEF0895FC01918D61
:101CA000828D981761F0A28DAE0FBF2FB11D5D968A
:101CB0008C91928D9F5F9F73928F90E008958FEF2C
:101CC0009FEF0895FC01538D448D252F30E0842F24
:101CD00090E0821B930B541710F0CF960895019754
:101CE0000895FC01A48DA80FB92FB11DA35ABF4FB1
:101CF0002C91848D90E001968F739927848FA6890B
:101D0000B7892C93A089B1898C9180648C93938D31
:101D1000848D981306C00288F389E02D80818F7D21
:101D200080830895CF93DF93EC01888D8823B9F0E9
:101D3000AA89BB89E889F9898C9185FD03C08081D6
:101D400086FD0DC00FB607FCF7CF8C9185FFF2CF53
:101D5000808185FFEDCFCE010E94710EE9CFDF912A
:101D6000CF910895EF92FF920F931F93CF93DF933C
:101D7000EC0181E0888F9B8D8C8D981316C0E889CB
:101D8000F989808185FF11C0EE89FF896083E88928
:101D9000F98980818064808381E090E0DF91CF9138
:101DA0001F910F91FF90EF900895F62E0B8D10E08C
:101DB0000F5F1F4F0F731127E02E8C8D8E110CC0FB
:101DC0000FB607FCFACFE889F989808185FFF5CF46
:101DD000CE010E94710EF1CFEB8DEC0FFD2FF11DA6
:101DE000E35AFF4FF0820B8FEA89FB898081806282
:101DF000D2CFCF92DF92EF92FF921F93CF93DF93D8
:101E0000EC016A017B01122FE889F98982E0808365
:101E1000C11481EED806E104F104A1F060E079E09C
:101E20008DE390E0A70196010E940A142150310928
:101E3000410951095695479537952795211580E118
:101E4000380798F0E889F989108260E874E88EE133
:101E500090E0A70196010E940A142150310941091E
:101E600051095695479537952795EC85FD85308323
:101E7000EE85FF852083188EEC89FD891083EA8921
:101E8000FB89808188698083EA89FB8980818F7DD5
:101E90008083DF91CF911F91FF90EF90DF90CF90E3
:101EA00008951F920F920FB60F9211242F938F93C4
:101EB0009F93EF93FF93E0914203F091430380815E
:101EC000E0914803F091490382FD1BC0908180910D
:101ED0004B038F5F8F7320914C03821741F0E09189
:101EE0004B03F0E0EE5CFC4F958F80934B03FF912A
:101EF000EF919F918F912F910F900FBE0F901F9098
:101F000018958081F4CF1F920F920FB60F92112473
:101F10002F933F934F935F936F937F938F939F93F1
:101F2000AF93BF93EF93FF9382E393E00E94710E10
:101F3000FF91EF91BF91AF919F918F917F916F91A1
:101F40005F914F913F912F910F900FBE0F901F9077
:101F50001895E2E3F3E01382128288EE93E0A0E0AA
:101F6000B0E084839583A683B78381E292E0918376
:101F7000808385EC90E09587848784EC90E0978758
:101F8000868780EC90E0918B808B81EC90E0938B46
:101F9000828B82EC90E0958B848B86EC90E0978B23
:101FA000868B118E128E138E148E0895AF92BF926F
:101FB000CF92DF92EF92FF920F931F93CF93DF9315
:101FC0006C017B018B01040F151FEB015E01AE1844
:101FD000BF08C017D10759F06991D601ED91FC9166
:101FE0000190F081E02DC6010995892B79F7C50193
:101FF000DF91CF911F910F91FF90EF90DF90CF90E5
:10200000BF90AF900895FB0101900020E9F7319750
:10201000AF01461B570BDC01ED91FC910280F3816F
:10202000E02D0994DB0114964D915C9115976D910B
:102030007C91DC01ED91FC910280F381E02D09940B
:10204000DC01ED91FC910190F081E02D099461E8B3
:1020500071E00C9403100F931F93CF93DF93EC0167
:102060000E9412108C01CE010E942710800F911F38
:10207000DF91CF911F910F9108950F931F93CF93ED
:10208000DF938C01D0E0C0E06115710519F00E946A
:102090000310EC01C8010E9427108C0F9D1FDF91D7
:1020A000CF911F910F9108958F929F92AF92BF92FF
:1020B000EF92FF920F931F93CF93DF93CDB7DEB7CD
:1020C000A1970FB6F894DEBF0FBECDBF7C01FA0119
:1020D000CB0119A2223008F42AE08E010F5D1F4FB8
:1020E000822E912CB12CA12CBF01A50194010E943C
:1020F0000A14F901CA016A300CF5605DD8016E93CB
:102100008D01232B242B252B79F790E080E010976D
:1021100021F0BD01C7010E940310A1960FB6F894EB
:10212000DEBF0FBECDBFDF91CF911F910F91FF900A
:10213000EF90BF90AF909F908F900895695CDECF35
:10214000CF92DF92EF92FF920F931F93CF93DF9383
:102150002115310581F4DC01ED91FC910190F081B4
:10216000E02D642FDF91CF911F910F91FF90EF90A1
:10217000DF90CF9009942A30310501F52AE077FFEE
:102180001DC06A017B01EC016DE20E9420108C01F0
:1021900044275527BA014C195D096E097F092AE0C9
:1021A000CE010E945410800F911FDF91CF911F919B
:1021B0000F91FF90EF90DF90CF900895DF91CF9136
:1021C0001F910F91FF90EF90DF90CF900C945410DF
:1021D0009A01AB01770F660B770B0C94A0100F934D
:1021E0001F93CF93DF93EC010E94E8108C01CE0186
:1021F0000E942710800F911FDF91CF911F910F91A7
:102200000895FC01808191810C940115CF93DF9397
:10221000EC0188819981009711F00E9401151982C3
:1022200018821D821C821B821A82DF91CF91089531
:102230000F931F93CF93DF93EC018B016F5F7F4F61
:10224000888199810E948A15009751F0998388832B
:102250001B830A8381E0DF91CF911F910F91089535
:1022600080E0F9CFCF93DF93EC0188819981892BAE
:1022700049F08A819B818617970720F081E0DF91E2
:10228000CF910895CE010E9418118823C1F38C814B
:102290009D81892B99F7E881F9811082EFCFEF9228
:1022A000FF920F931F93CF93DF93EC017B018A0181
:1022B000BA010E94321181110BC0CE010E94061199
:1022C000CE01DF91CF911F910F91FF90EF90089574
:1022D0001D830C83B701888199810E947616F0CF07
:1022E000FC01118210821382128215821482611500
:1022F000710551F0FB0101900020E9F73197AF0122
:10230000461B570B0C944F110895FB0101900020C0
:10231000E9F73197AF01461B570B0C944F11EF9221
:10232000FF920F931F93CF93DF93EC017B018A0100
:10233000BA010E94321181110BC0CE010E94061118
:10234000CE01DF91CF911F910F91FF90EF900895F3
:102350001D830C83B701888199810E944716F0CFB5
:10236000CF93DF93EC01FB018617970749F060815B
:1023700071816115710541F0448155810E944F11B1
:10238000CE01DF91CF9108950E940611F9CFFC0193
:102390001182108213821282158214820C94B01161
:1023A000CF93DF93EC016115710531F00E94851127
:1023B000CE01DF91CF9108950E940611F9CF0F93BE
:1023C0001F93CF93DF93EC018B016115710571F0C1
:1023D000CB010E944E16AC01B801CE010E948F11B4
:1023E000CE01DF91CF911F910F9108950E940611A8
:1023F000F7CFFC011182108213821282158214829F
:102400000C94DF11EF92FF920F931F93CF93DF9302
:102410006115710541F480E0DF91CF911F910F911B
:10242000FF90EF90089541155105B1F07B01EC014B
:102430000C811D81040F151FB8010E9432118823E1
:1024400051F3288139818C819D81B701820F931FBF
:102450000E9476161D830C8381E0DECFCF93DF933D
:1024600000D0CDB7DEB769831A8241E050E0BE01EB
:102470006F5F7F4F0E9402120F900F90DF91CF91FC
:102480000895CF93DF93EC01FB0144815581608176
:1024900071810E940212811103C0CE010E940611B7
:1024A000CE01DF91CF910895CF93DF93EC016115B9
:1024B000710539F4CE010E940611CE01DF91CF9152
:1024C0000895FB0101900020E9F73197AF01461B09
:1024D000570B0E940212882369F3EFCFFC0124817D
:1024E0003581232B31F421E0FB01672B49F4822F46
:1024F0000895808191816115710539F421E0FC0115
:1025000080818823A1F320E0F2CF0E946D1621E0A4
:10251000892B69F3F8CFFC01248135816217730799
:1025200020F480819181009729F41092CF038FECE1
:1025300093E00895860F971F08951F920F920FB68C
:102540000F9211242F933F938F939F93AF93BF9339
:102550008091D1039091D203A091D303B091D40381
:102560003091D00323E0230F2D3758F50196A11D9C
:10257000B11D2093D0038093D1039093D203A093F5
:10258000D303B093D4038091D5039091D603A09147
:10259000D703B091D8030196A11DB11D8093D50337
:1025A0009093D603A093D703B093D803BF91AF9174
:1025B0009F918F913F912F910F900FBE0F901F9081
:1025C000189526E8230F0296A11DB11DD2CF3FB763
:1025D000F8948091D5039091D603A091D703B09140
:1025E000D80326B5A89B05C02F3F19F00196A11D61
:1025F000B11D3FBFBA2FA92F982F8827BC01CD014D
:10260000620F711D811D911D42E0660F771F881FAB
:10261000991F4A95D1F708958F929F92AF92BF92DA
:10262000CF92DF92EF92FF926B017C010E94E71242
:102630004B015C01C114D104E104F104E9F00E94F2
:10264000F5130E94E712681979098A099B09683E07
:1026500073408105910570F321E0C21AD108E108A9
:10266000F10888EE880E83E0981EA11CB11CC114ED
:10267000D104E104F10429F7FF90EF90DF90CF90AF
:10268000BF90AF909F908F90089582508D3008F04A
:102690003EC0E82FF0E0E15BFC4E0C944B14841339
:1026A00088135C1362138713871366136C137013FC
:1026B000761387137A138013809180008F7780932D
:1026C00080000895809180008F7DF9CF8091B000C7
:1026D0008F778093B00008958091B0008F7DF9CFFF
:1026E000809190008F778093900008958091900062
:1026F0008F7DF9CF8091A0008F778093A0000895FF
:102700008091A0008F7DF9CF84B58F7784BD089527
:1027100084B58F7DFBCFCF93DF9390E0FC01E8552C
:10272000FE4F24918D539E4FFC0184918823C9F064
:1027300090E0880F991FFC01EA50FE4FA591B491DB
:10274000FC01E651FE4FC591D49161110DC09FB7B8
:10275000F8948C91209582238C9388812823288358
:102760009FBFDF91CF910895623051F49FB7F894E5
:102770003C91822F809583238C93E8812E2BEFCF81
:102780008FB7F894EC912E2B2C938FBFEACF1F9329
:10279000CF93DF93282F30E0F901E357FE4F849168
:1027A000F901E855FE4FD491F901ED53FE4FC49164
:1027B000CC23A9F0162F81110E944513EC2FF0E0D5
:1027C000EE0FFF1FE651FE4FA591B4918FB7F8941D
:1027D000EC91111108C0D095DE23DC938FBFDF91FF
:1027E000CF911F910895DE2BF8CF089597FB072E08
:1027F00016F4009407D077FD09D00E94511407FC0D
:1028000005D03EF4909581959F4F08957095619500
:102810007F4F0895A1E21A2EAA1BBB1BFD010DC01C
:10282000AA1FBB1FEE1FFF1FA217B307E407F50780
:1028300020F0A21BB30BE40BF50B661F771F881F5C
:10284000991F1A9469F760957095809590959B01F2
:10285000AC01BD01CF010895052E97FB1EF4009435
:102860000E94431457FD07D00E940A1407FC03D0AE
:102870004EF40C94431450954095309521953F4F5C
:102880004F4F5F4F089590958095709561957F4F5C
:102890008F4F9F4F0895EE0FFF1F0590F491E02D8D
:1028A0000994AA1BBB1B51E107C0AA1FBB1FA61797
:1028B000B70710F0A61BB70B881F991F5A95A9F7E9
:1028C00080959095BC01CD0108950F931F93CF93F0
:1028D000DF938230910510F482E090E0E091DB0319
:1028E000F091DC0330E020E0B0E0A0E0309799F414
:1028F0002115310509F44AC0281B390B2430310554
:10290000D8F58A819B816115710589F1FB0193835B
:102910008283FE0111C040815181028113814817D9
:102920005907E0F04817590799F4109761F012968B
:102930000C93129713961C933296CF01DF91CF918F
:102940001F910F9108950093DB031093DC03F4CFE4
:102950002115310551F04217530738F0A901DB0169
:102960009A01BD01DF01F801C1CFEF01F9CF9093CA
:10297000DC038093DB03CDCFFE01E20FF31F8193D5
:1029800091932250310939832883D7CF2091D903DD
:102990003091DA03232B41F420910201309103019D
:1029A0003093DA032093D903209100013091010183
:1029B0002115310541F42DB73EB7409104015091E6
:1029C0000501241B350BE091D903F091DA03E217DE
:1029D000F307A0F42E1B3F0B2817390778F0AC0142
:1029E0004E5F5F4F2417350748F04E0F5F1F50931F
:1029F000DA034093D903819391939FCFF0E0E0E015
:102A00009CCFCF93DF930097E9F0FC0132971382BC
:102A10001282A091DB03B091DC03ED0130E020E0F5
:102A20001097A1F420813181820F931F2091D90347
:102A30003091DA032817390709F061C0F093DA03FF
:102A4000E093D903DF91CF910895EA01CE17DF0714
:102A5000E8F54A815B819E0141155105B1F7E90115
:102A6000FB83EA8349915991C40FD51FEC17FD07E9
:102A700061F4808191810296840F951FE901998309
:102A80008883828193819B838A83F0E0E0E01296C1
:102A90008D919C9113970097B9F52D913C911197C9
:102AA000CD010296820F931F2091D9033091DA0352
:102AB0002817390739F6309751F51092DC03109238
:102AC000DB03B093DA03A093D903BCCFD383C283D3
:102AD00040815181840F951FC817D90761F44E5F5B
:102AE0005F4F88819981480F591F518340838A81A4
:102AF0009B81938382832115310509F0B0CFF09338
:102B0000DC03E093DB039ECFFD01DC01C0CF138229
:102B10001282D7CFB0E0A0E0E0E9F5E10C947F1697
:102B20008C01009751F4CB010E9465148C01C801FF
:102B3000CDB7DEB7E0E10C949B16FC01E60FF71F62
:102B40009C0122503109E217F30708F49DC0D90116
:102B5000CD91DC911197C617D70798F0C530D105F4
:102B600030F3CE0104978617970708F3C61BD70BDF
:102B70002297C193D1936D937C93CF010E9401154D
:102B8000D6CF5B01AC1ABD0A4C018C0E9D1EA091E4
:102B9000DB03B091DC03512C412CF12CE12C10977C
:102BA00031F58091D9039091DA038815990509F0E0
:102BB0005CC04616570608F058C0809100019091FD
:102BC0000101009741F48DB79EB7409104015091E7
:102BD0000501841B950BE817F90708F055C0F09321
:102BE000DA03E093D903F90171836083A0CF8D915B
:102BF0009C91119712966C90129713967C90139754
:102C0000A815B90559F56C0142E0C40ED11CCA14CF
:102C1000DB0420F1AC014A195B09DA011296159721
:102C200080F06282738251834083D9016D937C93DB
:102C3000E114F10471F0D7011396FC93EE9312970F
:102C400076CF22968C0F9D1FF90191838083F3012B
:102C5000EFCFF093DC03E093DB0369CF481659060E
:102C600008F42C017D01D3019ACFCB010E94651499
:102C70007C01009749F0AE01B8010E946416C801BA
:102C80000E940115870153CF10E000E050CFFB01F7
:102C9000DC0105900D920020E1F70895FC010590FC
:102CA0000020E9F7809590958E0F9F1F0895FB01F6
:102CB000DC0104C08D910190801921F441505040F5
:102CC000C8F7881B990B0895FB01DC0102C0019035
:102CD0000D9241505040D8F70895FB01DC018D91D1
:102CE000019080190110D9F3990B0895FB01DC01C3
:102CF00001900D920020E1F708952F923F924F929C
:102D00005F926F927F928F929F92AF92BF92CF927B
:102D1000DF92EF92FF920F931F93CF93DF93CDB784
:102D2000DEB7CA1BDB0B0FB6F894DEBF0FBECDBFFC
:102D300009942A88398848885F846E847D848C84CD
:102D40009B84AA84B984C884DF80EE80FD800C81D6
:102D50001B81AA81B981CE0FD11D0FB6F894DEBFB9
:102D60000FBECDBFED01089511E0C4E0D1E004C075
:102D7000FE010E944B142196C630D107C9F7F89482
:102D8000FFCF0000DD038000010153746572696E9E
:102D90006720776865656C2072656D6F7465206368
:102DA0006F6E74726F6C0070686F6E652070726504
:102DB00073730A0070686F6E6520627574746F6E4D
:102DC0002070726573730070686F6E65206C6F6E33
:102DD0006770726573730A0070686F6E6520627544
:102DE00074746F6E206C6F6E677072657373004DD4
:102DF00030004D31004D32004D33004D340042540F
:102E00002B43410D0A0042542B43450D0A00425406
:102E10002B43520D0A00434F4D2B50410D0A0043E6
:102E20004F4D2B50550D0A00434F4D2B504E0D0A60
:102E300000434F4D2B50560D0A00434F4D2B564F1C
:102E40004C0041542B4D590D0A00434F4D2B544F0C
:102E50004E454F46460D0A004400496E697469614B
:102E60006C697A6174696F6E0052656164790043C0
:102E70004F4D2B4D42540D0A00434F4D2B4D5544A1
:102E80000D0A00434F4D2B4D41580D0A0000000024
:102E900000D80BD60FB40B340C4D0CB70B350C000F
:102EA000000000B20ED60F620E920E340E4E0E408F
:022EB0000E0012
:00000001FF
